{"contracts/Election.sol":{"Election":{"abi":[{"inputs":[{"internalType":"string[]","name":"_areas","type":"string[]"}],"stateMutability":"nonpayable","type":"constructor"},{"anonymous":false,"inputs":[{"indexed":false,"internalType":"enum Election.Phase","name":"phase","type":"uint8"}],"name":"PhaseAdvanced","type":"event"},{"anonymous":false,"inputs":[{"components":[{"internalType":"string","name":"forename","type":"string"},{"internalType":"string","name":"surname","type":"string"},{"internalType":"uint256","name":"areaID","type":"uint256"},{"internalType":"uint256","name":"uid","type":"uint256"},{"internalType":"address","name":"user","type":"address"},{"internalType":"uint256","name":"voteCount","type":"uint256"}],"indexed":false,"internalType":"struct Election.Candidate","name":"candidate","type":"tuple"},{"components":[{"internalType":"string","name":"name","type":"string"},{"internalType":"uint256","name":"id","type":"uint256"},{"components":[{"internalType":"string","name":"forename","type":"string"},{"internalType":"string","name":"surname","type":"string"},{"internalType":"uint256","name":"areaID","type":"uint256"},{"internalType":"uint256","name":"uid","type":"uint256"},{"internalType":"address","name":"user","type":"address"},{"internalType":"uint256","name":"voteCount","type":"uint256"}],"internalType":"struct Election.Candidate","name":"candidate","type":"tuple"}],"indexed":false,"internalType":"struct Election.Area","name":"area","type":"tuple"}],"name":"WinningCandidate","type":"event"},{"inputs":[{"internalType":"string","name":"forename","type":"string"},{"internalType":"string","name":"surname","type":"string"},{"internalType":"uint256","name":"area","type":"uint256"}],"name":"addCandidate","outputs":[],"stateMutability":"nonpayable","type":"function"},{"inputs":[],"name":"advancePhase","outputs":[],"stateMutability":"nonpayable","type":"function"},{"inputs":[{"internalType":"uint256","name":"","type":"uint256"}],"name":"areas","outputs":[{"internalType":"string","name":"name","type":"string"},{"internalType":"uint256","name":"id","type":"uint256"},{"components":[{"internalType":"string","name":"forename","type":"string"},{"internalType":"string","name":"surname","type":"string"},{"internalType":"uint256","name":"areaID","type":"uint256"},{"internalType":"uint256","name":"uid","type":"uint256"},{"internalType":"address","name":"user","type":"address"},{"internalType":"uint256","name":"voteCount","type":"uint256"}],"internalType":"struct Election.Candidate","name":"candidate","type":"tuple"}],"stateMutability":"view","type":"function"},{"inputs":[{"internalType":"uint256","name":"","type":"uint256"}],"name":"candidates","outputs":[{"internalType":"string","name":"forename","type":"string"},{"internalType":"string","name":"surname","type":"string"},{"internalType":"uint256","name":"areaID","type":"uint256"},{"internalType":"uint256","name":"uid","type":"uint256"},{"internalType":"address","name":"user","type":"address"},{"internalType":"uint256","name":"voteCount","type":"uint256"}],"stateMutability":"view","type":"function"},{"inputs":[],"name":"currentPhase","outputs":[{"internalType":"enum Election.Phase","name":"","type":"uint8"}],"stateMutability":"view","type":"function"},{"inputs":[],"name":"declareAreaWinners","outputs":[],"stateMutability":"nonpayable","type":"function"},{"inputs":[],"name":"electionManager","outputs":[{"internalType":"address","name":"","type":"address"}],"stateMutability":"view","type":"function"},{"inputs":[],"name":"getAreas","outputs":[{"components":[{"internalType":"string","name":"name","type":"string"},{"internalType":"uint256","name":"id","type":"uint256"},{"components":[{"internalType":"string","name":"forename","type":"string"},{"internalType":"string","name":"surname","type":"string"},{"internalType":"uint256","name":"areaID","type":"uint256"},{"internalType":"uint256","name":"uid","type":"uint256"},{"internalType":"address","name":"user","type":"address"},{"internalType":"uint256","name":"voteCount","type":"uint256"}],"internalType":"struct Election.Candidate","name":"candidate","type":"tuple"}],"internalType":"struct Election.Area[]","name":"","type":"tuple[]"}],"stateMutability":"view","type":"function"},{"inputs":[{"internalType":"uint256","name":"id","type":"uint256"}],"name":"getCandidateByID","outputs":[{"components":[{"internalType":"string","name":"forename","type":"string"},{"internalType":"string","name":"surname","type":"string"},{"internalType":"uint256","name":"areaID","type":"uint256"},{"internalType":"uint256","name":"uid","type":"uint256"},{"internalType":"address","name":"user","type":"address"},{"internalType":"uint256","name":"voteCount","type":"uint256"}],"internalType":"struct Election.Candidate","name":"","type":"tuple"}],"stateMutability":"view","type":"function"},{"inputs":[],"name":"getCurrentPhase","outputs":[{"internalType":"enum Election.Phase","name":"","type":"uint8"}],"stateMutability":"view","type":"function"},{"inputs":[],"name":"getElectionManager","outputs":[{"internalType":"address","name":"","type":"address"}],"stateMutability":"view","type":"function"},{"inputs":[{"internalType":"address","name":"voterAddress","type":"address"}],"name":"getVoterByAddress","outputs":[{"components":[{"internalType":"string","name":"forename","type":"string"},{"internalType":"string","name":"surname","type":"string"},{"internalType":"uint256","name":"areaID","type":"uint256"},{"internalType":"uint256","name":"uid","type":"uint256"},{"internalType":"bool","name":"voted","type":"bool"},{"internalType":"address","name":"user","type":"address"}],"internalType":"struct Election.Voter","name":"","type":"tuple"}],"stateMutability":"view","type":"function"},{"inputs":[{"internalType":"string","name":"forename","type":"string"},{"internalType":"string","name":"surname","type":"string"},{"internalType":"uint256","name":"area","type":"uint256"}],"name":"registerVoter","outputs":[],"stateMutability":"nonpayable","type":"function"},{"inputs":[{"internalType":"uint256","name":"candidateID","type":"uint256"}],"name":"voteForCandidate","outputs":[],"stateMutability":"nonpayable","type":"function"},{"inputs":[{"internalType":"address","name":"","type":"address"}],"name":"voters","outputs":[{"internalType":"string","name":"forename","type":"string"},{"internalType":"string","name":"surname","type":"string"},{"internalType":"uint256","name":"areaID","type":"uint256"},{"internalType":"uint256","name":"uid","type":"uint256"},{"internalType":"bool","name":"voted","type":"bool"},{"internalType":"address","name":"user","type":"address"}],"stateMutability":"view","type":"function"}],"evm":{"bytecode":{"linkReferences":{},"object":"608060405260008055600060015560006002553480156200001f57600080fd5b5060405162003b6838038062003b6883398181016040528101906200004591906200051b565b60005b81518110156200021557600260008154809291906200006790620005a5565b9190505550600060405180606001604052808484815181106200008f576200008e620005f2565b5b6020026020010151815260200160025481526020016040518060c001604052806040518060200160405280600081525081526020016040518060200160405280600081525081526020016000815260200160008152602001600073ffffffffffffffffffffffffffffffffffffffff168152602001600081525081525090506005819080600181540180825580915050600190039060005260206000209060080201600090919091909150600082015181600001908162000151919062000862565b506020820151816001015560408201518160020160008201518160000190816200017c919062000862565b50602082015181600101908162000194919062000862565b50604082015181600201556060820151816003015560808201518160040160006101000a81548173ffffffffffffffffffffffffffffffffffffffff021916908373ffffffffffffffffffffffffffffffffffffffff16021790555060a08201518160050155505050505080806200020c90620005a5565b91505062000048565b506000600660006101000a81548160ff021916908360028111156200023f576200023e62000949565b5b021790555033600660016101000a81548173ffffffffffffffffffffffffffffffffffffffff021916908373ffffffffffffffffffffffffffffffffffffffff1602179055505062000978565b6000604051905090565b600080fd5b600080fd5b600080fd5b6000601f19601f8301169050919050565b7f4e487b7100000000000000000000000000000000000000000000000000000000600052604160045260246000fd5b620002f082620002a5565b810181811067ffffffffffffffff82111715620003125762000311620002b6565b5b80604052505050565b6000620003276200028c565b9050620003358282620002e5565b919050565b600067ffffffffffffffff821115620003585762000357620002b6565b5b602082029050602081019050919050565b600080fd5b600080fd5b600067ffffffffffffffff821115620003915762000390620002b6565b5b6200039c82620002a5565b9050602081019050919050565b60005b83811015620003c9578082015181840152602081019050620003ac565b60008484015250505050565b6000620003ec620003e68462000373565b6200031b565b9050828152602081018484840111156200040b576200040a6200036e565b5b62000418848285620003a9565b509392505050565b600082601f830112620004385762000437620002a0565b5b81516200044a848260208601620003d5565b91505092915050565b60006200046a62000464846200033a565b6200031b565b9050808382526020820190506020840283018581111562000490576200048f62000369565b5b835b81811015620004de57805167ffffffffffffffff811115620004b957620004b8620002a0565b5b808601620004c8898262000420565b8552602085019450505060208101905062000492565b5050509392505050565b600082601f8301126200050057620004ff620002a0565b5b81516200051284826020860162000453565b91505092915050565b60006020828403121562000534576200053362000296565b5b600082015167ffffffffffffffff8111156200055557620005546200029b565b5b6200056384828501620004e8565b91505092915050565b7f4e487b7100000000000000000000000000000000000000000000000000000000600052601160045260246000fd5b6000819050919050565b6000620005b2826200059b565b91507fffffffffffffffffffffffffffffffffffffffffffffffffffffffffffffffff8203620005e757620005e66200056c565b5b600182019050919050565b7f4e487b7100000000000000000000000000000000000000000000000000000000600052603260045260246000fd5b600081519050919050565b7f4e487b7100000000000000000000000000000000000000000000000000000000600052602260045260246000fd5b600060028204905060018216806200067457607f821691505b6020821081036200068a57620006896200062c565b5b50919050565b60008190508160005260206000209050919050565b60006020601f8301049050919050565b600082821b905092915050565b600060088302620006f47fffffffffffffffffffffffffffffffffffffffffffffffffffffffffffffffff82620006b5565b620007008683620006b5565b95508019841693508086168417925050509392505050565b6000819050919050565b6000620007436200073d62000737846200059b565b62000718565b6200059b565b9050919050565b6000819050919050565b6200075f8362000722565b620007776200076e826200074a565b848454620006c2565b825550505050565b600090565b6200078e6200077f565b6200079b81848462000754565b505050565b5b81811015620007c357620007b760008262000784565b600181019050620007a1565b5050565b601f8211156200081257620007dc8162000690565b620007e784620006a5565b81016020851015620007f7578190505b6200080f6200080685620006a5565b830182620007a0565b50505b505050565b600082821c905092915050565b6000620008376000198460080262000817565b1980831691505092915050565b600062000852838362000824565b9150826002028217905092915050565b6200086d8262000621565b67ffffffffffffffff811115620008895762000888620002b6565b5b6200089582546200065b565b620008a2828285620007c7565b600060209050601f831160018114620008da5760008415620008c5578287015190505b620008d1858262000844565b86555062000941565b601f198416620008ea8662000690565b60005b828110156200091457848901518255600182019150602085019450602081019050620008ed565b8683101562000934578489015162000930601f89168262000824565b8355505b6001600288020188555050505b505050505050565b7f4e487b7100000000000000000000000000000000000000000000000000000000600052602160045260246000fd5b6131e080620009886000396000f3fe608060405234801561001057600080fd5b50600436106100f55760003560e01c80638220239611610097578063a3ec138d11610066578063a3ec138d1461027b578063ae17a82a146102b0578063be25a718146102cc578063bf77b8bf146102d6576100f5565b806382202396146101f15780639277bbea146102215780639b2c61251461022b578063a3a40ea51461025d576100f5565b806336c8c5ee116100d357806336c8c5ee1461016b5780633ca09fdf146101875780634bdd7585146101a35780637da32949146101d3576100f5565b8063055ad42e146100fa5780632ea3981a146101185780633477ee2e14610136575b600080fd5b6101026102f4565b60405161010f9190611f07565b60405180910390f35b610120610307565b60405161012d91906121b5565b60405180910390f35b610150600480360381019061014b9190612217565b6105ae565b604051610162969594939291906122ac565b60405180910390f35b61018560048036038101906101809190612217565b61072a565b005b6101a1600480360381019061019c9190612450565b610a82565b005b6101bd60048036038101906101b89190612507565b610ce0565b6040516101ca91906125df565b60405180910390f35b6101db610f2f565b6040516101e89190612601565b60405180910390f35b61020b60048036038101906102069190612217565b610f55565b60405161021891906126ac565b60405180910390f35b6102296111ba565b005b61024560048036038101906102409190612217565b611605565b604051610254939291906126ce565b60405180910390f35b610265611869565b6040516102729190611f07565b60405180910390f35b61029560048036038101906102909190612507565b611880565b6040516102a796959493929190612722565b60405180910390f35b6102ca60048036038101906102c59190612450565b6119f9565b005b6102d4611c11565b005b6102de611dcc565b6040516102eb9190612601565b60405180910390f35b600660009054906101000a900460ff1681565b60606005805480602002602001604051908101604052809291908181526020016000905b828210156105a5578382906000526020600020906008020160405180606001604052908160008201805461035e906127c0565b80601f016020809104026020016040519081016040528092919081815260200182805461038a906127c0565b80156103d75780601f106103ac576101008083540402835291602001916103d7565b820191906000526020600020905b8154815290600101906020018083116103ba57829003601f168201915b5050505050815260200160018201548152602001600282016040518060c001604052908160008201805461040a906127c0565b80601f0160208091040260200160405190810160405280929190818152602001828054610436906127c0565b80156104835780601f1061045857610100808354040283529160200191610483565b820191906000526020600020905b81548152906001019060200180831161046657829003601f168201915b5050505050815260200160018201805461049c906127c0565b80601f01602080910402602001604051908101604052809291908181526020018280546104c8906127c0565b80156105155780601f106104ea57610100808354040283529160200191610515565b820191906000526020600020905b8154815290600101906020018083116104f857829003601f168201915b5050505050815260200160028201548152602001600382015481526020016004820160009054906101000a900473ffffffffffffffffffffffffffffffffffffffff1673ffffffffffffffffffffffffffffffffffffffff1673ffffffffffffffffffffffffffffffffffffffff168152602001600582015481525050815250508152602001906001019061032b565b50505050905090565b600481815481106105be57600080fd5b90600052602060002090600602016000915090508060000180546105e1906127c0565b80601f016020809104026020016040519081016040528092919081815260200182805461060d906127c0565b801561065a5780601f1061062f5761010080835404028352916020019161065a565b820191906000526020600020905b81548152906001019060200180831161063d57829003601f168201915b50505050509080600101805461066f906127c0565b80601f016020809104026020016040519081016040528092919081815260200182805461069b906127c0565b80156106e85780601f106106bd576101008083540402835291602001916106e8565b820191906000526020600020905b8154815290600101906020018083116106cb57829003601f168201915b5050505050908060020154908060030154908060040160009054906101000a900473ffffffffffffffffffffffffffffffffffffffff16908060050154905086565b6001600281111561073e5761073d611e90565b5b600660009054906101000a900460ff1660028111156107605761075f611e90565b5b1461076a57600080fd5b600061077533610ce0565b905060008160600151036107be576040517f08c379a00000000000000000000000000000000000000000000000000000000081526004016107b59061283d565b60405180910390fd5b60006107c983610f55565b90506000816060015103610812576040517f08c379a0000000000000000000000000000000000000000000000000000000008152600401610809906128a9565b60405180910390fd5b806040015182604001511461085c576040517f08c379a00000000000000000000000000000000000000000000000000000000081526004016108539061293b565b60405180910390fd5b8160800151156108a1576040517f08c379a0000000000000000000000000000000000000000000000000000000008152600401610898906129a7565b60405180910390fd5b60018160a0018181516108b491906129f6565b91508181525050806004600183606001516108cf9190612a2a565b815481106108e0576108df612a5e565b5b906000526020600020906006020160008201518160000190816109039190612c39565b5060208201518160010190816109199190612c39565b50604082015181600201556060820151816003015560808201518160040160006101000a81548173ffffffffffffffffffffffffffffffffffffffff021916908373ffffffffffffffffffffffffffffffffffffffff16021790555060a08201518160050155905050600182608001901515908115158152505081600360003373ffffffffffffffffffffffffffffffffffffffff1673ffffffffffffffffffffffffffffffffffffffff16815260200190815260200160002060008201518160000190816109e89190612c39565b5060208201518160010190816109fe9190612c39565b50604082015181600201556060820151816003015560808201518160040160006101000a81548160ff02191690831515021790555060a08201518160040160016101000a81548173ffffffffffffffffffffffffffffffffffffffff021916908373ffffffffffffffffffffffffffffffffffffffff160217905550905050505050565b60006002811115610a9657610a95611e90565b5b600660009054906101000a900460ff166002811115610ab857610ab7611e90565b5b14610ac257600080fd5b60005b600480549050811015610bb85760048181548110610ae657610ae5612a5e565b5b906000526020600020906006020160040160009054906101000a900473ffffffffffffffffffffffffffffffffffffffff16604051602001610b289190612d53565b6040516020818303038152906040528051906020012033604051602001610b4f9190612d53565b6040516020818303038152906040528051906020012003610ba5576040517f08c379a0000000000000000000000000000000000000000000000000000000008152600401610b9c90612dba565b60405180910390fd5b8080610bb090612dda565b915050610ac5565b5060016000815480929190610bcc90612dda565b919050555060006040518060c0016040528085815260200184815260200183815260200160015481526020013373ffffffffffffffffffffffffffffffffffffffff1681526020016000815250905060048190806001815401808255809150506001900390600052602060002090600602016000909190919091506000820151816000019081610c5c9190612c39565b506020820151816001019081610c729190612c39565b50604082015181600201556060820151816003015560808201518160040160006101000a81548173ffffffffffffffffffffffffffffffffffffffff021916908373ffffffffffffffffffffffffffffffffffffffff16021790555060a08201518160050155505050505050565b610ce8611df6565b6000600360008473ffffffffffffffffffffffffffffffffffffffff1673ffffffffffffffffffffffffffffffffffffffff1681526020019081526020016000206040518060c0016040529081600082018054610d44906127c0565b80601f0160208091040260200160405190810160405280929190818152602001828054610d70906127c0565b8015610dbd5780601f10610d9257610100808354040283529160200191610dbd565b820191906000526020600020905b815481529060010190602001808311610da057829003601f168201915b50505050508152602001600182018054610dd6906127c0565b80601f0160208091040260200160405190810160405280929190818152602001828054610e02906127c0565b8015610e4f5780601f10610e2457610100808354040283529160200191610e4f565b820191906000526020600020905b815481529060010190602001808311610e3257829003601f168201915b5050505050815260200160028201548152602001600382015481526020016004820160009054906101000a900460ff161515151581526020016004820160019054906101000a900473ffffffffffffffffffffffffffffffffffffffff1673ffffffffffffffffffffffffffffffffffffffff1673ffffffffffffffffffffffffffffffffffffffff168152505090506000816060015103610f26576040517f08c379a0000000000000000000000000000000000000000000000000000000008152600401610f1d90612e6e565b60405180910390fd5b80915050919050565b600660019054906101000a900473ffffffffffffffffffffffffffffffffffffffff1681565b610f5d611e44565b60005b600480549050811015611179578260048281548110610f8257610f81612a5e565b5b906000526020600020906006020160030154036111665760048181548110610fad57610fac612a5e565b5b90600052602060002090600602016040518060c0016040529081600082018054610fd6906127c0565b80601f0160208091040260200160405190810160405280929190818152602001828054611002906127c0565b801561104f5780601f106110245761010080835404028352916020019161104f565b820191906000526020600020905b81548152906001019060200180831161103257829003601f168201915b50505050508152602001600182018054611068906127c0565b80601f0160208091040260200160405190810160405280929190818152602001828054611094906127c0565b80156110e15780601f106110b6576101008083540402835291602001916110e1565b820191906000526020600020905b8154815290600101906020018083116110c457829003601f168201915b5050505050815260200160028201548152602001600382015481526020016004820160009054906101000a900473ffffffffffffffffffffffffffffffffffffffff1673ffffffffffffffffffffffffffffffffffffffff1673ffffffffffffffffffffffffffffffffffffffff1681526020016005820154815250509150506111b5565b808061117190612dda565b915050610f60565b506040517f08c379a00000000000000000000000000000000000000000000000000000000081526004016111ac90612eda565b60405180910390fd5b919050565b600660019054906101000a900473ffffffffffffffffffffffffffffffffffffffff1673ffffffffffffffffffffffffffffffffffffffff163373ffffffffffffffffffffffffffffffffffffffff161461121457600080fd5b60028081111561122757611226611e90565b5b600660009054906101000a900460ff16600281111561124957611248611e90565b5b1461125357600080fd5b60005b6005805490508110156116025761126b611e44565b60005b6004805490508110156114d9576004818154811061128f5761128e612a5e565b5b906000526020600020906006020160020154600584815481106112b5576112b4612a5e565b5b906000526020600020906008020160010154036114c657600481815481106112e0576112df612a5e565b5b9060005260206000209060060201600501548260a0015110156114c5576004818154811061131157611310612a5e565b5b90600052602060002090600602016040518060c001604052908160008201805461133a906127c0565b80601f0160208091040260200160405190810160405280929190818152602001828054611366906127c0565b80156113b35780601f10611388576101008083540402835291602001916113b3565b820191906000526020600020905b81548152906001019060200180831161139657829003601f168201915b505050505081526020016001820180546113cc906127c0565b80601f01602080910402602001604051908101604052809291908181526020018280546113f8906127c0565b80156114455780601f1061141a57610100808354040283529160200191611445565b820191906000526020600020905b81548152906001019060200180831161142857829003601f168201915b5050505050815260200160028201548152602001600382015481526020016004820160009054906101000a900473ffffffffffffffffffffffffffffffffffffffff1673ffffffffffffffffffffffffffffffffffffffff1673ffffffffffffffffffffffffffffffffffffffff16815260200160058201548152505091505b5b80806114d190612dda565b91505061126e565b5080600583815481106114ef576114ee612a5e565b5b906000526020600020906008020160020160008201518160000190816115159190612c39565b50602082015181600101908161152b9190612c39565b50604082015181600201556060820151816003015560808201518160040160006101000a81548173ffffffffffffffffffffffffffffffffffffffff021916908373ffffffffffffffffffffffffffffffffffffffff16021790555060a082015181600501559050507f28e4cdce854cbc2d5590d27fa474702ac9c289967764a63f240aa28101ff583581600584815481106115ca576115c9612a5e565b5b90600052602060002090600802016040516115e6929190613107565b60405180910390a15080806115fa90612dda565b915050611256565b50565b6005818154811061161557600080fd5b9060005260206000209060080201600091509050806000018054611638906127c0565b80601f0160208091040260200160405190810160405280929190818152602001828054611664906127c0565b80156116b15780601f10611686576101008083540402835291602001916116b1565b820191906000526020600020905b81548152906001019060200180831161169457829003601f168201915b505050505090806001015490806002016040518060c00160405290816000820180546116dc906127c0565b80601f0160208091040260200160405190810160405280929190818152602001828054611708906127c0565b80156117555780601f1061172a57610100808354040283529160200191611755565b820191906000526020600020905b81548152906001019060200180831161173857829003601f168201915b5050505050815260200160018201805461176e906127c0565b80601f016020809104026020016040519081016040528092919081815260200182805461179a906127c0565b80156117e75780601f106117bc576101008083540402835291602001916117e7565b820191906000526020600020905b8154815290600101906020018083116117ca57829003601f168201915b5050505050815260200160028201548152602001600382015481526020016004820160009054906101000a900473ffffffffffffffffffffffffffffffffffffffff1673ffffffffffffffffffffffffffffffffffffffff1673ffffffffffffffffffffffffffffffffffffffff168152602001600582015481525050905083565b6000600660009054906101000a900460ff16905090565b60036020528060005260406000206000915090508060000180546118a3906127c0565b80601f01602080910402602001604051908101604052809291908181526020018280546118cf906127c0565b801561191c5780601f106118f15761010080835404028352916020019161191c565b820191906000526020600020905b8154815290600101906020018083116118ff57829003601f168201915b505050505090806001018054611931906127c0565b80601f016020809104026020016040519081016040528092919081815260200182805461195d906127c0565b80156119aa5780601f1061197f576101008083540402835291602001916119aa565b820191906000526020600020905b81548152906001019060200180831161198d57829003601f168201915b5050505050908060020154908060030154908060040160009054906101000a900460ff16908060040160019054906101000a900473ffffffffffffffffffffffffffffffffffffffff16905086565b60006002811115611a0d57611a0c611e90565b5b600660009054906101000a900460ff166002811115611a2f57611a2e611e90565b5b14611a3957600080fd5b6000600360003373ffffffffffffffffffffffffffffffffffffffff1673ffffffffffffffffffffffffffffffffffffffff1681526020019081526020016000206003015414611abe576040517f08c379a0000000000000000000000000000000000000000000000000000000008152600401611ab59061318a565b60405180910390fd5b600080815480929190611ad090612dda565b919050555060006040518060c0016040528085815260200184815260200183815260200160005481526020016000151581526020013373ffffffffffffffffffffffffffffffffffffffff16815250905080600360003373ffffffffffffffffffffffffffffffffffffffff1673ffffffffffffffffffffffffffffffffffffffff1681526020019081526020016000206000820151816000019081611b769190612c39565b506020820151816001019081611b8c9190612c39565b50604082015181600201556060820151816003015560808201518160040160006101000a81548160ff02191690831515021790555060a08201518160040160016101000a81548173ffffffffffffffffffffffffffffffffffffffff021916908373ffffffffffffffffffffffffffffffffffffffff16021790555090505050505050565b600660019054906101000a900473ffffffffffffffffffffffffffffffffffffffff1673ffffffffffffffffffffffffffffffffffffffff163373ffffffffffffffffffffffffffffffffffffffff1614611c6b57600080fd5b60006002811115611c7f57611c7e611e90565b5b600660009054906101000a900460ff166002811115611ca157611ca0611e90565b5b03611d1c576001600660006101000a81548160ff02191690836002811115611ccc57611ccb611e90565b5b02179055507fd0e47a271d69b0e6e3f9bd81c7c695bfbcb309e6ee66a23e6ad80a8f90190574600660009054906101000a900460ff16604051611d0f9190611f07565b60405180910390a1611dca565b60016002811115611d3057611d2f611e90565b5b600660009054906101000a900460ff166002811115611d5257611d51611e90565b5b03611dc9576002600660006101000a81548160ff02191690836002811115611d7d57611d7c611e90565b5b02179055507fd0e47a271d69b0e6e3f9bd81c7c695bfbcb309e6ee66a23e6ad80a8f90190574600660009054906101000a900460ff16604051611dc09190611f07565b60405180910390a15b5b565b6000600660019054906101000a900473ffffffffffffffffffffffffffffffffffffffff16905090565b6040518060c0016040528060608152602001606081526020016000815260200160008152602001600015158152602001600073ffffffffffffffffffffffffffffffffffffffff1681525090565b6040518060c0016040528060608152602001606081526020016000815260200160008152602001600073ffffffffffffffffffffffffffffffffffffffff168152602001600081525090565b7f4e487b7100000000000000000000000000000000000000000000000000000000600052602160045260246000fd5b60038110611ed057611ecf611e90565b5b50565b6000819050611ee182611ebf565b919050565b6000611ef182611ed3565b9050919050565b611f0181611ee6565b82525050565b6000602082019050611f1c6000830184611ef8565b92915050565b600081519050919050565b600082825260208201905092915050565b6000819050602082019050919050565b600081519050919050565b600082825260208201905092915050565b60005b83811015611f88578082015181840152602081019050611f6d565b60008484015250505050565b6000601f19601f8301169050919050565b6000611fb082611f4e565b611fba8185611f59565b9350611fca818560208601611f6a565b611fd381611f94565b840191505092915050565b6000819050919050565b611ff181611fde565b82525050565b600073ffffffffffffffffffffffffffffffffffffffff82169050919050565b600061202282611ff7565b9050919050565b61203281612017565b82525050565b600060c08301600083015184820360008601526120558282611fa5565b9150506020830151848203602086015261206f8282611fa5565b91505060408301516120846040860182611fe8565b5060608301516120976060860182611fe8565b5060808301516120aa6080860182612029565b5060a08301516120bd60a0860182611fe8565b508091505092915050565b600060608301600083015184820360008601526120e58282611fa5565b91505060208301516120fa6020860182611fe8565b50604083015184820360408601526121128282612038565b9150508091505092915050565b600061212b83836120c8565b905092915050565b6000602082019050919050565b600061214b82611f22565b6121558185611f2d565b93508360208202850161216785611f3e565b8060005b858110156121a35784840389528151612184858261211f565b945061218f83612133565b925060208a0199505060018101905061216b565b50829750879550505050505092915050565b600060208201905081810360008301526121cf8184612140565b905092915050565b6000604051905090565b600080fd5b600080fd5b6121f481611fde565b81146121ff57600080fd5b50565b600081359050612211816121eb565b92915050565b60006020828403121561222d5761222c6121e1565b5b600061223b84828501612202565b91505092915050565b600082825260208201905092915050565b600061226082611f4e565b61226a8185612244565b935061227a818560208601611f6a565b61228381611f94565b840191505092915050565b61229781611fde565b82525050565b6122a681612017565b82525050565b600060c08201905081810360008301526122c68189612255565b905081810360208301526122da8188612255565b90506122e9604083018761228e565b6122f6606083018661228e565b612303608083018561229d565b61231060a083018461228e565b979650505050505050565b600080fd5b600080fd5b7f4e487b7100000000000000000000000000000000000000000000000000000000600052604160045260246000fd5b61235d82611f94565b810181811067ffffffffffffffff8211171561237c5761237b612325565b5b80604052505050565b600061238f6121d7565b905061239b8282612354565b919050565b600067ffffffffffffffff8211156123bb576123ba612325565b5b6123c482611f94565b9050602081019050919050565b82818337600083830152505050565b60006123f36123ee846123a0565b612385565b90508281526020810184848401111561240f5761240e612320565b5b61241a8482856123d1565b509392505050565b600082601f8301126124375761243661231b565b5b81356124478482602086016123e0565b91505092915050565b600080600060608486031215612469576124686121e1565b5b600084013567ffffffffffffffff811115612487576124866121e6565b5b61249386828701612422565b935050602084013567ffffffffffffffff8111156124b4576124b36121e6565b5b6124c086828701612422565b92505060406124d186828701612202565b9150509250925092565b6124e481612017565b81146124ef57600080fd5b50565b600081359050612501816124db565b92915050565b60006020828403121561251d5761251c6121e1565b5b600061252b848285016124f2565b91505092915050565b60008115159050919050565b61254981612534565b82525050565b600060c083016000830151848203600086015261256c8282611fa5565b915050602083015184820360208601526125868282611fa5565b915050604083015161259b6040860182611fe8565b5060608301516125ae6060860182611fe8565b5060808301516125c16080860182612540565b5060a08301516125d460a0860182612029565b508091505092915050565b600060208201905081810360008301526125f9818461254f565b905092915050565b6000602082019050612616600083018461229d565b92915050565b600060c08301600083015184820360008601526126398282611fa5565b915050602083015184820360208601526126538282611fa5565b91505060408301516126686040860182611fe8565b50606083015161267b6060860182611fe8565b50608083015161268e6080860182612029565b5060a08301516126a160a0860182611fe8565b508091505092915050565b600060208201905081810360008301526126c6818461261c565b905092915050565b600060608201905081810360008301526126e88186612255565b90506126f7602083018561228e565b8181036040830152612709818461261c565b9050949350505050565b61271c81612534565b82525050565b600060c082019050818103600083015261273c8189612255565b905081810360208301526127508188612255565b905061275f604083018761228e565b61276c606083018661228e565b6127796080830185612713565b61278660a083018461229d565b979650505050505050565b7f4e487b7100000000000000000000000000000000000000000000000000000000600052602260045260246000fd5b600060028204905060018216806127d857607f821691505b6020821081036127eb576127ea612791565b5b50919050565b7f596f7520617265206e6f7420726567697374657265642e000000000000000000600082015250565b6000612827601783612244565b9150612832826127f1565b602082019050919050565b600060208201905081810360008301526128568161281a565b9050919050565b7f496e76616c69642063616e6469646174652049442e0000000000000000000000600082015250565b6000612893601583612244565b915061289e8261285d565b602082019050919050565b600060208201905081810360008301526128c281612886565b9050919050565b7f596f752063616e6e6f7420766f746520666f7220612063616e6469646174652060008201527f696e207468697320617265612e00000000000000000000000000000000000000602082015250565b6000612925602d83612244565b9150612930826128c9565b604082019050919050565b6000602082019050818103600083015261295481612918565b9050919050565b7f596f752063616e6e6f7420766f74652074776963650000000000000000000000600082015250565b6000612991601583612244565b915061299c8261295b565b602082019050919050565b600060208201905081810360008301526129c081612984565b9050919050565b7f4e487b7100000000000000000000000000000000000000000000000000000000600052601160045260246000fd5b6000612a0182611fde565b9150612a0c83611fde565b9250828201905080821115612a2457612a236129c7565b5b92915050565b6000612a3582611fde565b9150612a4083611fde565b9250828203905081811115612a5857612a576129c7565b5b92915050565b7f4e487b7100000000000000000000000000000000000000000000000000000000600052603260045260246000fd5b60008190508160005260206000209050919050565b60006020601f8301049050919050565b600082821b905092915050565b600060088302612aef7fffffffffffffffffffffffffffffffffffffffffffffffffffffffffffffffff82612ab2565b612af98683612ab2565b95508019841693508086168417925050509392505050565b6000819050919050565b6000612b36612b31612b2c84611fde565b612b11565b611fde565b9050919050565b6000819050919050565b612b5083612b1b565b612b64612b5c82612b3d565b848454612abf565b825550505050565b600090565b612b79612b6c565b612b84818484612b47565b505050565b5b81811015612ba857612b9d600082612b71565b600181019050612b8a565b5050565b601f821115612bed57612bbe81612a8d565b612bc784612aa2565b81016020851015612bd6578190505b612bea612be285612aa2565b830182612b89565b50505b505050565b600082821c905092915050565b6000612c1060001984600802612bf2565b1980831691505092915050565b6000612c298383612bff565b9150826002028217905092915050565b612c4282611f4e565b67ffffffffffffffff811115612c5b57612c5a612325565b5b612c6582546127c0565b612c70828285612bac565b600060209050601f831160018114612ca35760008415612c91578287015190505b612c9b8582612c1d565b865550612d03565b601f198416612cb186612a8d565b60005b82811015612cd957848901518255600182019150602085019450602081019050612cb4565b86831015612cf65784890151612cf2601f891682612bff565b8355505b6001600288020188555050505b505050505050565b60008160601b9050919050565b6000612d2382612d0b565b9050919050565b6000612d3582612d18565b9050919050565b612d4d612d4882612017565b612d2a565b82525050565b6000612d5f8284612d3c565b60148201915081905092915050565b7f43616e64696461746520616c7265616479206578697374730000000000000000600082015250565b6000612da4601883612244565b9150612daf82612d6e565b602082019050919050565b60006020820190508181036000830152612dd381612d97565b9050919050565b6000612de582611fde565b91507fffffffffffffffffffffffffffffffffffffffffffffffffffffffffffffffff8203612e1757612e166129c7565b5b600182019050919050565b7f566f746572204e6f7420466f756e640000000000000000000000000000000000600082015250565b6000612e58600f83612244565b9150612e6382612e22565b602082019050919050565b60006020820190508181036000830152612e8781612e4b565b9050919050565b7f43616e646964617465204e6f7420466f756e6400000000000000000000000000600082015250565b6000612ec4601383612244565b9150612ecf82612e8e565b602082019050919050565b60006020820190508181036000830152612ef381612eb7565b9050919050565b60008154612f07816127c0565b612f118186611f59565b94506001821660008114612f2c5760018114612f4257612f75565b60ff198316865281151560200286019350612f75565b612f4b85612a8d565b60005b83811015612f6d57815481890152600182019150602081019050612f4e565b808801955050505b50505092915050565b60008160001c9050919050565b6000819050919050565b6000612fa8612fa383612f7e565b612f8b565b9050919050565b600073ffffffffffffffffffffffffffffffffffffffff82169050919050565b6000612fe2612fdd83612f7e565b612faf565b9050919050565b600060c08301600080840185830360008701526130068382612efa565b92505060018401858303602087015261301f8382612efa565b9250506002840154905061303281612f95565b61303f6040870182611fe8565b506003840154905061305081612f95565b61305d6060870182611fe8565b506004840154905061306e81612fcf565b61307b6080870182612029565b506005840154905061308c81612f95565b61309960a0870182611fe8565b50819250505092915050565b600060608301600080840185830360008701526130c28382612efa565b925050600184015490506130d581612f95565b6130e26020870182611fe8565b506002840185830360408701526130f98382612fe9565b925050819250505092915050565b60006040820190508181036000830152613121818561261c565b9050818103602083015261313581846130a5565b90509392505050565b7f566f74657220616c726561647920657869737473000000000000000000000000600082015250565b6000613174601483612244565b915061317f8261313e565b602082019050919050565b600060208201905081810360008301526131a381613167565b905091905056fea26469706673582212200d6d208b70a3c6e2c087d52ab580ed3de75b5b2eefceb28375a3f1bdd26ac9cd64736f6c63430008130033","opcodes":"PUSH1 0x80 PUSH1 0x40 MSTORE PUSH1 0x0 DUP1 SSTORE PUSH1 0x0 PUSH1 0x1 SSTORE PUSH1 0x0 PUSH1 0x2 SSTORE CALLVALUE DUP1 ISZERO PUSH3 0x1F JUMPI PUSH1 0x0 DUP1 REVERT JUMPDEST POP PUSH1 0x40 MLOAD PUSH3 0x3B68 CODESIZE SUB DUP1 PUSH3 0x3B68 DUP4 CODECOPY DUP2 DUP2 ADD PUSH1 0x40 MSTORE DUP2 ADD SWAP1 PUSH3 0x45 SWAP2 SWAP1 PUSH3 0x51B JUMP JUMPDEST PUSH1 0x0 JUMPDEST DUP2 MLOAD DUP2 LT ISZERO PUSH3 0x215 JUMPI PUSH1 0x2 PUSH1 0x0 DUP2 SLOAD DUP1 SWAP3 SWAP2 SWAP1 PUSH3 0x67 SWAP1 PUSH3 0x5A5 JUMP JUMPDEST SWAP2 SWAP1 POP SSTORE POP PUSH1 0x0 PUSH1 0x40 MLOAD DUP1 PUSH1 0x60 ADD PUSH1 0x40 MSTORE DUP1 DUP5 DUP5 DUP2 MLOAD DUP2 LT PUSH3 0x8F JUMPI PUSH3 0x8E PUSH3 0x5F2 JUMP JUMPDEST JUMPDEST PUSH1 0x20 MUL PUSH1 0x20 ADD ADD MLOAD DUP2 MSTORE PUSH1 0x20 ADD PUSH1 0x2 SLOAD DUP2 MSTORE PUSH1 0x20 ADD PUSH1 0x40 MLOAD DUP1 PUSH1 0xC0 ADD PUSH1 0x40 MSTORE DUP1 PUSH1 0x40 MLOAD DUP1 PUSH1 0x20 ADD PUSH1 0x40 MSTORE DUP1 PUSH1 0x0 DUP2 MSTORE POP DUP2 MSTORE PUSH1 0x20 ADD PUSH1 0x40 MLOAD DUP1 PUSH1 0x20 ADD PUSH1 0x40 MSTORE DUP1 PUSH1 0x0 DUP2 MSTORE POP DUP2 MSTORE PUSH1 0x20 ADD PUSH1 0x0 DUP2 MSTORE PUSH1 0x20 ADD PUSH1 0x0 DUP2 MSTORE PUSH1 0x20 ADD PUSH1 0x0 PUSH20 0xFFFFFFFFFFFFFFFFFFFFFFFFFFFFFFFFFFFFFFFF AND DUP2 MSTORE PUSH1 0x20 ADD PUSH1 0x0 DUP2 MSTORE POP DUP2 MSTORE POP SWAP1 POP PUSH1 0x5 DUP2 SWAP1 DUP1 PUSH1 0x1 DUP2 SLOAD ADD DUP1 DUP3 SSTORE DUP1 SWAP2 POP POP PUSH1 0x1 SWAP1 SUB SWAP1 PUSH1 0x0 MSTORE PUSH1 0x20 PUSH1 0x0 KECCAK256 SWAP1 PUSH1 0x8 MUL ADD PUSH1 0x0 SWAP1 SWAP2 SWAP1 SWAP2 SWAP1 SWAP2 POP PUSH1 0x0 DUP3 ADD MLOAD DUP2 PUSH1 0x0 ADD SWAP1 DUP2 PUSH3 0x151 SWAP2 SWAP1 PUSH3 0x862 JUMP JUMPDEST POP PUSH1 0x20 DUP3 ADD MLOAD DUP2 PUSH1 0x1 ADD SSTORE PUSH1 0x40 DUP3 ADD MLOAD DUP2 PUSH1 0x2 ADD PUSH1 0x0 DUP3 ADD MLOAD DUP2 PUSH1 0x0 ADD SWAP1 DUP2 PUSH3 0x17C SWAP2 SWAP1 PUSH3 0x862 JUMP JUMPDEST POP PUSH1 0x20 DUP3 ADD MLOAD DUP2 PUSH1 0x1 ADD SWAP1 DUP2 PUSH3 0x194 SWAP2 SWAP1 PUSH3 0x862 JUMP JUMPDEST POP PUSH1 0x40 DUP3 ADD MLOAD DUP2 PUSH1 0x2 ADD SSTORE PUSH1 0x60 DUP3 ADD MLOAD DUP2 PUSH1 0x3 ADD SSTORE PUSH1 0x80 DUP3 ADD MLOAD DUP2 PUSH1 0x4 ADD PUSH1 0x0 PUSH2 0x100 EXP DUP2 SLOAD DUP2 PUSH20 0xFFFFFFFFFFFFFFFFFFFFFFFFFFFFFFFFFFFFFFFF MUL NOT AND SWAP1 DUP4 PUSH20 0xFFFFFFFFFFFFFFFFFFFFFFFFFFFFFFFFFFFFFFFF AND MUL OR SWAP1 SSTORE POP PUSH1 0xA0 DUP3 ADD MLOAD DUP2 PUSH1 0x5 ADD SSTORE POP POP POP POP POP DUP1 DUP1 PUSH3 0x20C SWAP1 PUSH3 0x5A5 JUMP JUMPDEST SWAP2 POP POP PUSH3 0x48 JUMP JUMPDEST POP PUSH1 0x0 PUSH1 0x6 PUSH1 0x0 PUSH2 0x100 EXP DUP2 SLOAD DUP2 PUSH1 0xFF MUL NOT AND SWAP1 DUP4 PUSH1 0x2 DUP2 GT ISZERO PUSH3 0x23F JUMPI PUSH3 0x23E PUSH3 0x949 JUMP JUMPDEST JUMPDEST MUL OR SWAP1 SSTORE POP CALLER PUSH1 0x6 PUSH1 0x1 PUSH2 0x100 EXP DUP2 SLOAD DUP2 PUSH20 0xFFFFFFFFFFFFFFFFFFFFFFFFFFFFFFFFFFFFFFFF MUL NOT AND SWAP1 DUP4 PUSH20 0xFFFFFFFFFFFFFFFFFFFFFFFFFFFFFFFFFFFFFFFF AND MUL OR SWAP1 SSTORE POP POP PUSH3 0x978 JUMP JUMPDEST PUSH1 0x0 PUSH1 0x40 MLOAD SWAP1 POP SWAP1 JUMP JUMPDEST PUSH1 0x0 DUP1 REVERT JUMPDEST PUSH1 0x0 DUP1 REVERT JUMPDEST PUSH1 0x0 DUP1 REVERT JUMPDEST PUSH1 0x0 PUSH1 0x1F NOT PUSH1 0x1F DUP4 ADD AND SWAP1 POP SWAP2 SWAP1 POP JUMP JUMPDEST PUSH32 0x4E487B7100000000000000000000000000000000000000000000000000000000 PUSH1 0x0 MSTORE PUSH1 0x41 PUSH1 0x4 MSTORE PUSH1 0x24 PUSH1 0x0 REVERT JUMPDEST PUSH3 0x2F0 DUP3 PUSH3 0x2A5 JUMP JUMPDEST DUP2 ADD DUP2 DUP2 LT PUSH8 0xFFFFFFFFFFFFFFFF DUP3 GT OR ISZERO PUSH3 0x312 JUMPI PUSH3 0x311 PUSH3 0x2B6 JUMP JUMPDEST JUMPDEST DUP1 PUSH1 0x40 MSTORE POP POP POP JUMP JUMPDEST PUSH1 0x0 PUSH3 0x327 PUSH3 0x28C JUMP JUMPDEST SWAP1 POP PUSH3 0x335 DUP3 DUP3 PUSH3 0x2E5 JUMP JUMPDEST SWAP2 SWAP1 POP JUMP JUMPDEST PUSH1 0x0 PUSH8 0xFFFFFFFFFFFFFFFF DUP3 GT ISZERO PUSH3 0x358 JUMPI PUSH3 0x357 PUSH3 0x2B6 JUMP JUMPDEST JUMPDEST PUSH1 0x20 DUP3 MUL SWAP1 POP PUSH1 0x20 DUP2 ADD SWAP1 POP SWAP2 SWAP1 POP JUMP JUMPDEST PUSH1 0x0 DUP1 REVERT JUMPDEST PUSH1 0x0 DUP1 REVERT JUMPDEST PUSH1 0x0 PUSH8 0xFFFFFFFFFFFFFFFF DUP3 GT ISZERO PUSH3 0x391 JUMPI PUSH3 0x390 PUSH3 0x2B6 JUMP JUMPDEST JUMPDEST PUSH3 0x39C DUP3 PUSH3 0x2A5 JUMP JUMPDEST SWAP1 POP PUSH1 0x20 DUP2 ADD SWAP1 POP SWAP2 SWAP1 POP JUMP JUMPDEST PUSH1 0x0 JUMPDEST DUP4 DUP2 LT ISZERO PUSH3 0x3C9 JUMPI DUP1 DUP3 ADD MLOAD DUP2 DUP5 ADD MSTORE PUSH1 0x20 DUP2 ADD SWAP1 POP PUSH3 0x3AC JUMP JUMPDEST PUSH1 0x0 DUP5 DUP5 ADD MSTORE POP POP POP POP JUMP JUMPDEST PUSH1 0x0 PUSH3 0x3EC PUSH3 0x3E6 DUP5 PUSH3 0x373 JUMP JUMPDEST PUSH3 0x31B JUMP JUMPDEST SWAP1 POP DUP3 DUP2 MSTORE PUSH1 0x20 DUP2 ADD DUP5 DUP5 DUP5 ADD GT ISZERO PUSH3 0x40B JUMPI PUSH3 0x40A PUSH3 0x36E JUMP JUMPDEST JUMPDEST PUSH3 0x418 DUP5 DUP3 DUP6 PUSH3 0x3A9 JUMP JUMPDEST POP SWAP4 SWAP3 POP POP POP JUMP JUMPDEST PUSH1 0x0 DUP3 PUSH1 0x1F DUP4 ADD SLT PUSH3 0x438 JUMPI PUSH3 0x437 PUSH3 0x2A0 JUMP JUMPDEST JUMPDEST DUP2 MLOAD PUSH3 0x44A DUP5 DUP3 PUSH1 0x20 DUP7 ADD PUSH3 0x3D5 JUMP JUMPDEST SWAP2 POP POP SWAP3 SWAP2 POP POP JUMP JUMPDEST PUSH1 0x0 PUSH3 0x46A PUSH3 0x464 DUP5 PUSH3 0x33A JUMP JUMPDEST PUSH3 0x31B JUMP JUMPDEST SWAP1 POP DUP1 DUP4 DUP3 MSTORE PUSH1 0x20 DUP3 ADD SWAP1 POP PUSH1 0x20 DUP5 MUL DUP4 ADD DUP6 DUP2 GT ISZERO PUSH3 0x490 JUMPI PUSH3 0x48F PUSH3 0x369 JUMP JUMPDEST JUMPDEST DUP4 JUMPDEST DUP2 DUP2 LT ISZERO PUSH3 0x4DE JUMPI DUP1 MLOAD PUSH8 0xFFFFFFFFFFFFFFFF DUP2 GT ISZERO PUSH3 0x4B9 JUMPI PUSH3 0x4B8 PUSH3 0x2A0 JUMP JUMPDEST JUMPDEST DUP1 DUP7 ADD PUSH3 0x4C8 DUP10 DUP3 PUSH3 0x420 JUMP JUMPDEST DUP6 MSTORE PUSH1 0x20 DUP6 ADD SWAP5 POP POP POP PUSH1 0x20 DUP2 ADD SWAP1 POP PUSH3 0x492 JUMP JUMPDEST POP POP POP SWAP4 SWAP3 POP POP POP JUMP JUMPDEST PUSH1 0x0 DUP3 PUSH1 0x1F DUP4 ADD SLT PUSH3 0x500 JUMPI PUSH3 0x4FF PUSH3 0x2A0 JUMP JUMPDEST JUMPDEST DUP2 MLOAD PUSH3 0x512 DUP5 DUP3 PUSH1 0x20 DUP7 ADD PUSH3 0x453 JUMP JUMPDEST SWAP2 POP POP SWAP3 SWAP2 POP POP JUMP JUMPDEST PUSH1 0x0 PUSH1 0x20 DUP3 DUP5 SUB SLT ISZERO PUSH3 0x534 JUMPI PUSH3 0x533 PUSH3 0x296 JUMP JUMPDEST JUMPDEST PUSH1 0x0 DUP3 ADD MLOAD PUSH8 0xFFFFFFFFFFFFFFFF DUP2 GT ISZERO PUSH3 0x555 JUMPI PUSH3 0x554 PUSH3 0x29B JUMP JUMPDEST JUMPDEST PUSH3 0x563 DUP5 DUP3 DUP6 ADD PUSH3 0x4E8 JUMP JUMPDEST SWAP2 POP POP SWAP3 SWAP2 POP POP JUMP JUMPDEST PUSH32 0x4E487B7100000000000000000000000000000000000000000000000000000000 PUSH1 0x0 MSTORE PUSH1 0x11 PUSH1 0x4 MSTORE PUSH1 0x24 PUSH1 0x0 REVERT JUMPDEST PUSH1 0x0 DUP2 SWAP1 POP SWAP2 SWAP1 POP JUMP JUMPDEST PUSH1 0x0 PUSH3 0x5B2 DUP3 PUSH3 0x59B JUMP JUMPDEST SWAP2 POP PUSH32 0xFFFFFFFFFFFFFFFFFFFFFFFFFFFFFFFFFFFFFFFFFFFFFFFFFFFFFFFFFFFFFFFF DUP3 SUB PUSH3 0x5E7 JUMPI PUSH3 0x5E6 PUSH3 0x56C JUMP JUMPDEST JUMPDEST PUSH1 0x1 DUP3 ADD SWAP1 POP SWAP2 SWAP1 POP JUMP JUMPDEST PUSH32 0x4E487B7100000000000000000000000000000000000000000000000000000000 PUSH1 0x0 MSTORE PUSH1 0x32 PUSH1 0x4 MSTORE PUSH1 0x24 PUSH1 0x0 REVERT JUMPDEST PUSH1 0x0 DUP2 MLOAD SWAP1 POP SWAP2 SWAP1 POP JUMP JUMPDEST PUSH32 0x4E487B7100000000000000000000000000000000000000000000000000000000 PUSH1 0x0 MSTORE PUSH1 0x22 PUSH1 0x4 MSTORE PUSH1 0x24 PUSH1 0x0 REVERT JUMPDEST PUSH1 0x0 PUSH1 0x2 DUP3 DIV SWAP1 POP PUSH1 0x1 DUP3 AND DUP1 PUSH3 0x674 JUMPI PUSH1 0x7F DUP3 AND SWAP2 POP JUMPDEST PUSH1 0x20 DUP3 LT DUP2 SUB PUSH3 0x68A JUMPI PUSH3 0x689 PUSH3 0x62C JUMP JUMPDEST JUMPDEST POP SWAP2 SWAP1 POP JUMP JUMPDEST PUSH1 0x0 DUP2 SWAP1 POP DUP2 PUSH1 0x0 MSTORE PUSH1 0x20 PUSH1 0x0 KECCAK256 SWAP1 POP SWAP2 SWAP1 POP JUMP JUMPDEST PUSH1 0x0 PUSH1 0x20 PUSH1 0x1F DUP4 ADD DIV SWAP1 POP SWAP2 SWAP1 POP JUMP JUMPDEST PUSH1 0x0 DUP3 DUP3 SHL SWAP1 POP SWAP3 SWAP2 POP POP JUMP JUMPDEST PUSH1 0x0 PUSH1 0x8 DUP4 MUL PUSH3 0x6F4 PUSH32 0xFFFFFFFFFFFFFFFFFFFFFFFFFFFFFFFFFFFFFFFFFFFFFFFFFFFFFFFFFFFFFFFF DUP3 PUSH3 0x6B5 JUMP JUMPDEST PUSH3 0x700 DUP7 DUP4 PUSH3 0x6B5 JUMP JUMPDEST SWAP6 POP DUP1 NOT DUP5 AND SWAP4 POP DUP1 DUP7 AND DUP5 OR SWAP3 POP POP POP SWAP4 SWAP3 POP POP POP JUMP JUMPDEST PUSH1 0x0 DUP2 SWAP1 POP SWAP2 SWAP1 POP JUMP JUMPDEST PUSH1 0x0 PUSH3 0x743 PUSH3 0x73D PUSH3 0x737 DUP5 PUSH3 0x59B JUMP JUMPDEST PUSH3 0x718 JUMP JUMPDEST PUSH3 0x59B JUMP JUMPDEST SWAP1 POP SWAP2 SWAP1 POP JUMP JUMPDEST PUSH1 0x0 DUP2 SWAP1 POP SWAP2 SWAP1 POP JUMP JUMPDEST PUSH3 0x75F DUP4 PUSH3 0x722 JUMP JUMPDEST PUSH3 0x777 PUSH3 0x76E DUP3 PUSH3 0x74A JUMP JUMPDEST DUP5 DUP5 SLOAD PUSH3 0x6C2 JUMP JUMPDEST DUP3 SSTORE POP POP POP POP JUMP JUMPDEST PUSH1 0x0 SWAP1 JUMP JUMPDEST PUSH3 0x78E PUSH3 0x77F JUMP JUMPDEST PUSH3 0x79B DUP2 DUP5 DUP5 PUSH3 0x754 JUMP JUMPDEST POP POP POP JUMP JUMPDEST JUMPDEST DUP2 DUP2 LT ISZERO PUSH3 0x7C3 JUMPI PUSH3 0x7B7 PUSH1 0x0 DUP3 PUSH3 0x784 JUMP JUMPDEST PUSH1 0x1 DUP2 ADD SWAP1 POP PUSH3 0x7A1 JUMP JUMPDEST POP POP JUMP JUMPDEST PUSH1 0x1F DUP3 GT ISZERO PUSH3 0x812 JUMPI PUSH3 0x7DC DUP2 PUSH3 0x690 JUMP JUMPDEST PUSH3 0x7E7 DUP5 PUSH3 0x6A5 JUMP JUMPDEST DUP2 ADD PUSH1 0x20 DUP6 LT ISZERO PUSH3 0x7F7 JUMPI DUP2 SWAP1 POP JUMPDEST PUSH3 0x80F PUSH3 0x806 DUP6 PUSH3 0x6A5 JUMP JUMPDEST DUP4 ADD DUP3 PUSH3 0x7A0 JUMP JUMPDEST POP POP JUMPDEST POP POP POP JUMP JUMPDEST PUSH1 0x0 DUP3 DUP3 SHR SWAP1 POP SWAP3 SWAP2 POP POP JUMP JUMPDEST PUSH1 0x0 PUSH3 0x837 PUSH1 0x0 NOT DUP5 PUSH1 0x8 MUL PUSH3 0x817 JUMP JUMPDEST NOT DUP1 DUP4 AND SWAP2 POP POP SWAP3 SWAP2 POP POP JUMP JUMPDEST PUSH1 0x0 PUSH3 0x852 DUP4 DUP4 PUSH3 0x824 JUMP JUMPDEST SWAP2 POP DUP3 PUSH1 0x2 MUL DUP3 OR SWAP1 POP SWAP3 SWAP2 POP POP JUMP JUMPDEST PUSH3 0x86D DUP3 PUSH3 0x621 JUMP JUMPDEST PUSH8 0xFFFFFFFFFFFFFFFF DUP2 GT ISZERO PUSH3 0x889 JUMPI PUSH3 0x888 PUSH3 0x2B6 JUMP JUMPDEST JUMPDEST PUSH3 0x895 DUP3 SLOAD PUSH3 0x65B JUMP JUMPDEST PUSH3 0x8A2 DUP3 DUP3 DUP6 PUSH3 0x7C7 JUMP JUMPDEST PUSH1 0x0 PUSH1 0x20 SWAP1 POP PUSH1 0x1F DUP4 GT PUSH1 0x1 DUP2 EQ PUSH3 0x8DA JUMPI PUSH1 0x0 DUP5 ISZERO PUSH3 0x8C5 JUMPI DUP3 DUP8 ADD MLOAD SWAP1 POP JUMPDEST PUSH3 0x8D1 DUP6 DUP3 PUSH3 0x844 JUMP JUMPDEST DUP7 SSTORE POP PUSH3 0x941 JUMP JUMPDEST PUSH1 0x1F NOT DUP5 AND PUSH3 0x8EA DUP7 PUSH3 0x690 JUMP JUMPDEST PUSH1 0x0 JUMPDEST DUP3 DUP2 LT ISZERO PUSH3 0x914 JUMPI DUP5 DUP10 ADD MLOAD DUP3 SSTORE PUSH1 0x1 DUP3 ADD SWAP2 POP PUSH1 0x20 DUP6 ADD SWAP5 POP PUSH1 0x20 DUP2 ADD SWAP1 POP PUSH3 0x8ED JUMP JUMPDEST DUP7 DUP4 LT ISZERO PUSH3 0x934 JUMPI DUP5 DUP10 ADD MLOAD PUSH3 0x930 PUSH1 0x1F DUP10 AND DUP3 PUSH3 0x824 JUMP JUMPDEST DUP4 SSTORE POP JUMPDEST PUSH1 0x1 PUSH1 0x2 DUP9 MUL ADD DUP9 SSTORE POP POP POP JUMPDEST POP POP POP POP POP POP JUMP JUMPDEST PUSH32 0x4E487B7100000000000000000000000000000000000000000000000000000000 PUSH1 0x0 MSTORE PUSH1 0x21 PUSH1 0x4 MSTORE PUSH1 0x24 PUSH1 0x0 REVERT JUMPDEST PUSH2 0x31E0 DUP1 PUSH3 0x988 PUSH1 0x0 CODECOPY PUSH1 0x0 RETURN INVALID PUSH1 0x80 PUSH1 0x40 MSTORE CALLVALUE DUP1 ISZERO PUSH2 0x10 JUMPI PUSH1 0x0 DUP1 REVERT JUMPDEST POP PUSH1 0x4 CALLDATASIZE LT PUSH2 0xF5 JUMPI PUSH1 0x0 CALLDATALOAD PUSH1 0xE0 SHR DUP1 PUSH4 0x82202396 GT PUSH2 0x97 JUMPI DUP1 PUSH4 0xA3EC138D GT PUSH2 0x66 JUMPI DUP1 PUSH4 0xA3EC138D EQ PUSH2 0x27B JUMPI DUP1 PUSH4 0xAE17A82A EQ PUSH2 0x2B0 JUMPI DUP1 PUSH4 0xBE25A718 EQ PUSH2 0x2CC JUMPI DUP1 PUSH4 0xBF77B8BF EQ PUSH2 0x2D6 JUMPI PUSH2 0xF5 JUMP JUMPDEST DUP1 PUSH4 0x82202396 EQ PUSH2 0x1F1 JUMPI DUP1 PUSH4 0x9277BBEA EQ PUSH2 0x221 JUMPI DUP1 PUSH4 0x9B2C6125 EQ PUSH2 0x22B JUMPI DUP1 PUSH4 0xA3A40EA5 EQ PUSH2 0x25D JUMPI PUSH2 0xF5 JUMP JUMPDEST DUP1 PUSH4 0x36C8C5EE GT PUSH2 0xD3 JUMPI DUP1 PUSH4 0x36C8C5EE EQ PUSH2 0x16B JUMPI DUP1 PUSH4 0x3CA09FDF EQ PUSH2 0x187 JUMPI DUP1 PUSH4 0x4BDD7585 EQ PUSH2 0x1A3 JUMPI DUP1 PUSH4 0x7DA32949 EQ PUSH2 0x1D3 JUMPI PUSH2 0xF5 JUMP JUMPDEST DUP1 PUSH4 0x55AD42E EQ PUSH2 0xFA JUMPI DUP1 PUSH4 0x2EA3981A EQ PUSH2 0x118 JUMPI DUP1 PUSH4 0x3477EE2E EQ PUSH2 0x136 JUMPI JUMPDEST PUSH1 0x0 DUP1 REVERT JUMPDEST PUSH2 0x102 PUSH2 0x2F4 JUMP JUMPDEST PUSH1 0x40 MLOAD PUSH2 0x10F SWAP2 SWAP1 PUSH2 0x1F07 JUMP JUMPDEST PUSH1 0x40 MLOAD DUP1 SWAP2 SUB SWAP1 RETURN JUMPDEST PUSH2 0x120 PUSH2 0x307 JUMP JUMPDEST PUSH1 0x40 MLOAD PUSH2 0x12D SWAP2 SWAP1 PUSH2 0x21B5 JUMP JUMPDEST PUSH1 0x40 MLOAD DUP1 SWAP2 SUB SWAP1 RETURN JUMPDEST PUSH2 0x150 PUSH1 0x4 DUP1 CALLDATASIZE SUB DUP2 ADD SWAP1 PUSH2 0x14B SWAP2 SWAP1 PUSH2 0x2217 JUMP JUMPDEST PUSH2 0x5AE JUMP JUMPDEST PUSH1 0x40 MLOAD PUSH2 0x162 SWAP7 SWAP6 SWAP5 SWAP4 SWAP3 SWAP2 SWAP1 PUSH2 0x22AC JUMP JUMPDEST PUSH1 0x40 MLOAD DUP1 SWAP2 SUB SWAP1 RETURN JUMPDEST PUSH2 0x185 PUSH1 0x4 DUP1 CALLDATASIZE SUB DUP2 ADD SWAP1 PUSH2 0x180 SWAP2 SWAP1 PUSH2 0x2217 JUMP JUMPDEST PUSH2 0x72A JUMP JUMPDEST STOP JUMPDEST PUSH2 0x1A1 PUSH1 0x4 DUP1 CALLDATASIZE SUB DUP2 ADD SWAP1 PUSH2 0x19C SWAP2 SWAP1 PUSH2 0x2450 JUMP JUMPDEST PUSH2 0xA82 JUMP JUMPDEST STOP JUMPDEST PUSH2 0x1BD PUSH1 0x4 DUP1 CALLDATASIZE SUB DUP2 ADD SWAP1 PUSH2 0x1B8 SWAP2 SWAP1 PUSH2 0x2507 JUMP JUMPDEST PUSH2 0xCE0 JUMP JUMPDEST PUSH1 0x40 MLOAD PUSH2 0x1CA SWAP2 SWAP1 PUSH2 0x25DF JUMP JUMPDEST PUSH1 0x40 MLOAD DUP1 SWAP2 SUB SWAP1 RETURN JUMPDEST PUSH2 0x1DB PUSH2 0xF2F JUMP JUMPDEST PUSH1 0x40 MLOAD PUSH2 0x1E8 SWAP2 SWAP1 PUSH2 0x2601 JUMP JUMPDEST PUSH1 0x40 MLOAD DUP1 SWAP2 SUB SWAP1 RETURN JUMPDEST PUSH2 0x20B PUSH1 0x4 DUP1 CALLDATASIZE SUB DUP2 ADD SWAP1 PUSH2 0x206 SWAP2 SWAP1 PUSH2 0x2217 JUMP JUMPDEST PUSH2 0xF55 JUMP JUMPDEST PUSH1 0x40 MLOAD PUSH2 0x218 SWAP2 SWAP1 PUSH2 0x26AC JUMP JUMPDEST PUSH1 0x40 MLOAD DUP1 SWAP2 SUB SWAP1 RETURN JUMPDEST PUSH2 0x229 PUSH2 0x11BA JUMP JUMPDEST STOP JUMPDEST PUSH2 0x245 PUSH1 0x4 DUP1 CALLDATASIZE SUB DUP2 ADD SWAP1 PUSH2 0x240 SWAP2 SWAP1 PUSH2 0x2217 JUMP JUMPDEST PUSH2 0x1605 JUMP JUMPDEST PUSH1 0x40 MLOAD PUSH2 0x254 SWAP4 SWAP3 SWAP2 SWAP1 PUSH2 0x26CE JUMP JUMPDEST PUSH1 0x40 MLOAD DUP1 SWAP2 SUB SWAP1 RETURN JUMPDEST PUSH2 0x265 PUSH2 0x1869 JUMP JUMPDEST PUSH1 0x40 MLOAD PUSH2 0x272 SWAP2 SWAP1 PUSH2 0x1F07 JUMP JUMPDEST PUSH1 0x40 MLOAD DUP1 SWAP2 SUB SWAP1 RETURN JUMPDEST PUSH2 0x295 PUSH1 0x4 DUP1 CALLDATASIZE SUB DUP2 ADD SWAP1 PUSH2 0x290 SWAP2 SWAP1 PUSH2 0x2507 JUMP JUMPDEST PUSH2 0x1880 JUMP JUMPDEST PUSH1 0x40 MLOAD PUSH2 0x2A7 SWAP7 SWAP6 SWAP5 SWAP4 SWAP3 SWAP2 SWAP1 PUSH2 0x2722 JUMP JUMPDEST PUSH1 0x40 MLOAD DUP1 SWAP2 SUB SWAP1 RETURN JUMPDEST PUSH2 0x2CA PUSH1 0x4 DUP1 CALLDATASIZE SUB DUP2 ADD SWAP1 PUSH2 0x2C5 SWAP2 SWAP1 PUSH2 0x2450 JUMP JUMPDEST PUSH2 0x19F9 JUMP JUMPDEST STOP JUMPDEST PUSH2 0x2D4 PUSH2 0x1C11 JUMP JUMPDEST STOP JUMPDEST PUSH2 0x2DE PUSH2 0x1DCC JUMP JUMPDEST PUSH1 0x40 MLOAD PUSH2 0x2EB SWAP2 SWAP1 PUSH2 0x2601 JUMP JUMPDEST PUSH1 0x40 MLOAD DUP1 SWAP2 SUB SWAP1 RETURN JUMPDEST PUSH1 0x6 PUSH1 0x0 SWAP1 SLOAD SWAP1 PUSH2 0x100 EXP SWAP1 DIV PUSH1 0xFF AND DUP2 JUMP JUMPDEST PUSH1 0x60 PUSH1 0x5 DUP1 SLOAD DUP1 PUSH1 0x20 MUL PUSH1 0x20 ADD PUSH1 0x40 MLOAD SWAP1 DUP2 ADD PUSH1 0x40 MSTORE DUP1 SWAP3 SWAP2 SWAP1 DUP2 DUP2 MSTORE PUSH1 0x20 ADD PUSH1 0x0 SWAP1 JUMPDEST DUP3 DUP3 LT ISZERO PUSH2 0x5A5 JUMPI DUP4 DUP3 SWAP1 PUSH1 0x0 MSTORE PUSH1 0x20 PUSH1 0x0 KECCAK256 SWAP1 PUSH1 0x8 MUL ADD PUSH1 0x40 MLOAD DUP1 PUSH1 0x60 ADD PUSH1 0x40 MSTORE SWAP1 DUP2 PUSH1 0x0 DUP3 ADD DUP1 SLOAD PUSH2 0x35E SWAP1 PUSH2 0x27C0 JUMP JUMPDEST DUP1 PUSH1 0x1F ADD PUSH1 0x20 DUP1 SWAP2 DIV MUL PUSH1 0x20 ADD PUSH1 0x40 MLOAD SWAP1 DUP2 ADD PUSH1 0x40 MSTORE DUP1 SWAP3 SWAP2 SWAP1 DUP2 DUP2 MSTORE PUSH1 0x20 ADD DUP3 DUP1 SLOAD PUSH2 0x38A SWAP1 PUSH2 0x27C0 JUMP JUMPDEST DUP1 ISZERO PUSH2 0x3D7 JUMPI DUP1 PUSH1 0x1F LT PUSH2 0x3AC JUMPI PUSH2 0x100 DUP1 DUP4 SLOAD DIV MUL DUP4 MSTORE SWAP2 PUSH1 0x20 ADD SWAP2 PUSH2 0x3D7 JUMP JUMPDEST DUP3 ADD SWAP2 SWAP1 PUSH1 0x0 MSTORE PUSH1 0x20 PUSH1 0x0 KECCAK256 SWAP1 JUMPDEST DUP2 SLOAD DUP2 MSTORE SWAP1 PUSH1 0x1 ADD SWAP1 PUSH1 0x20 ADD DUP1 DUP4 GT PUSH2 0x3BA JUMPI DUP3 SWAP1 SUB PUSH1 0x1F AND DUP3 ADD SWAP2 JUMPDEST POP POP POP POP POP DUP2 MSTORE PUSH1 0x20 ADD PUSH1 0x1 DUP3 ADD SLOAD DUP2 MSTORE PUSH1 0x20 ADD PUSH1 0x2 DUP3 ADD PUSH1 0x40 MLOAD DUP1 PUSH1 0xC0 ADD PUSH1 0x40 MSTORE SWAP1 DUP2 PUSH1 0x0 DUP3 ADD DUP1 SLOAD PUSH2 0x40A SWAP1 PUSH2 0x27C0 JUMP JUMPDEST DUP1 PUSH1 0x1F ADD PUSH1 0x20 DUP1 SWAP2 DIV MUL PUSH1 0x20 ADD PUSH1 0x40 MLOAD SWAP1 DUP2 ADD PUSH1 0x40 MSTORE DUP1 SWAP3 SWAP2 SWAP1 DUP2 DUP2 MSTORE PUSH1 0x20 ADD DUP3 DUP1 SLOAD PUSH2 0x436 SWAP1 PUSH2 0x27C0 JUMP JUMPDEST DUP1 ISZERO PUSH2 0x483 JUMPI DUP1 PUSH1 0x1F LT PUSH2 0x458 JUMPI PUSH2 0x100 DUP1 DUP4 SLOAD DIV MUL DUP4 MSTORE SWAP2 PUSH1 0x20 ADD SWAP2 PUSH2 0x483 JUMP JUMPDEST DUP3 ADD SWAP2 SWAP1 PUSH1 0x0 MSTORE PUSH1 0x20 PUSH1 0x0 KECCAK256 SWAP1 JUMPDEST DUP2 SLOAD DUP2 MSTORE SWAP1 PUSH1 0x1 ADD SWAP1 PUSH1 0x20 ADD DUP1 DUP4 GT PUSH2 0x466 JUMPI DUP3 SWAP1 SUB PUSH1 0x1F AND DUP3 ADD SWAP2 JUMPDEST POP POP POP POP POP DUP2 MSTORE PUSH1 0x20 ADD PUSH1 0x1 DUP3 ADD DUP1 SLOAD PUSH2 0x49C SWAP1 PUSH2 0x27C0 JUMP JUMPDEST DUP1 PUSH1 0x1F ADD PUSH1 0x20 DUP1 SWAP2 DIV MUL PUSH1 0x20 ADD PUSH1 0x40 MLOAD SWAP1 DUP2 ADD PUSH1 0x40 MSTORE DUP1 SWAP3 SWAP2 SWAP1 DUP2 DUP2 MSTORE PUSH1 0x20 ADD DUP3 DUP1 SLOAD PUSH2 0x4C8 SWAP1 PUSH2 0x27C0 JUMP JUMPDEST DUP1 ISZERO PUSH2 0x515 JUMPI DUP1 PUSH1 0x1F LT PUSH2 0x4EA JUMPI PUSH2 0x100 DUP1 DUP4 SLOAD DIV MUL DUP4 MSTORE SWAP2 PUSH1 0x20 ADD SWAP2 PUSH2 0x515 JUMP JUMPDEST DUP3 ADD SWAP2 SWAP1 PUSH1 0x0 MSTORE PUSH1 0x20 PUSH1 0x0 KECCAK256 SWAP1 JUMPDEST DUP2 SLOAD DUP2 MSTORE SWAP1 PUSH1 0x1 ADD SWAP1 PUSH1 0x20 ADD DUP1 DUP4 GT PUSH2 0x4F8 JUMPI DUP3 SWAP1 SUB PUSH1 0x1F AND DUP3 ADD SWAP2 JUMPDEST POP POP POP POP POP DUP2 MSTORE PUSH1 0x20 ADD PUSH1 0x2 DUP3 ADD SLOAD DUP2 MSTORE PUSH1 0x20 ADD PUSH1 0x3 DUP3 ADD SLOAD DUP2 MSTORE PUSH1 0x20 ADD PUSH1 0x4 DUP3 ADD PUSH1 0x0 SWAP1 SLOAD SWAP1 PUSH2 0x100 EXP SWAP1 DIV PUSH20 0xFFFFFFFFFFFFFFFFFFFFFFFFFFFFFFFFFFFFFFFF AND PUSH20 0xFFFFFFFFFFFFFFFFFFFFFFFFFFFFFFFFFFFFFFFF AND PUSH20 0xFFFFFFFFFFFFFFFFFFFFFFFFFFFFFFFFFFFFFFFF AND DUP2 MSTORE PUSH1 0x20 ADD PUSH1 0x5 DUP3 ADD SLOAD DUP2 MSTORE POP POP DUP2 MSTORE POP POP DUP2 MSTORE PUSH1 0x20 ADD SWAP1 PUSH1 0x1 ADD SWAP1 PUSH2 0x32B JUMP JUMPDEST POP POP POP POP SWAP1 POP SWAP1 JUMP JUMPDEST PUSH1 0x4 DUP2 DUP2 SLOAD DUP2 LT PUSH2 0x5BE JUMPI PUSH1 0x0 DUP1 REVERT JUMPDEST SWAP1 PUSH1 0x0 MSTORE PUSH1 0x20 PUSH1 0x0 KECCAK256 SWAP1 PUSH1 0x6 MUL ADD PUSH1 0x0 SWAP2 POP SWAP1 POP DUP1 PUSH1 0x0 ADD DUP1 SLOAD PUSH2 0x5E1 SWAP1 PUSH2 0x27C0 JUMP JUMPDEST DUP1 PUSH1 0x1F ADD PUSH1 0x20 DUP1 SWAP2 DIV MUL PUSH1 0x20 ADD PUSH1 0x40 MLOAD SWAP1 DUP2 ADD PUSH1 0x40 MSTORE DUP1 SWAP3 SWAP2 SWAP1 DUP2 DUP2 MSTORE PUSH1 0x20 ADD DUP3 DUP1 SLOAD PUSH2 0x60D SWAP1 PUSH2 0x27C0 JUMP JUMPDEST DUP1 ISZERO PUSH2 0x65A JUMPI DUP1 PUSH1 0x1F LT PUSH2 0x62F JUMPI PUSH2 0x100 DUP1 DUP4 SLOAD DIV MUL DUP4 MSTORE SWAP2 PUSH1 0x20 ADD SWAP2 PUSH2 0x65A JUMP JUMPDEST DUP3 ADD SWAP2 SWAP1 PUSH1 0x0 MSTORE PUSH1 0x20 PUSH1 0x0 KECCAK256 SWAP1 JUMPDEST DUP2 SLOAD DUP2 MSTORE SWAP1 PUSH1 0x1 ADD SWAP1 PUSH1 0x20 ADD DUP1 DUP4 GT PUSH2 0x63D JUMPI DUP3 SWAP1 SUB PUSH1 0x1F AND DUP3 ADD SWAP2 JUMPDEST POP POP POP POP POP SWAP1 DUP1 PUSH1 0x1 ADD DUP1 SLOAD PUSH2 0x66F SWAP1 PUSH2 0x27C0 JUMP JUMPDEST DUP1 PUSH1 0x1F ADD PUSH1 0x20 DUP1 SWAP2 DIV MUL PUSH1 0x20 ADD PUSH1 0x40 MLOAD SWAP1 DUP2 ADD PUSH1 0x40 MSTORE DUP1 SWAP3 SWAP2 SWAP1 DUP2 DUP2 MSTORE PUSH1 0x20 ADD DUP3 DUP1 SLOAD PUSH2 0x69B SWAP1 PUSH2 0x27C0 JUMP JUMPDEST DUP1 ISZERO PUSH2 0x6E8 JUMPI DUP1 PUSH1 0x1F LT PUSH2 0x6BD JUMPI PUSH2 0x100 DUP1 DUP4 SLOAD DIV MUL DUP4 MSTORE SWAP2 PUSH1 0x20 ADD SWAP2 PUSH2 0x6E8 JUMP JUMPDEST DUP3 ADD SWAP2 SWAP1 PUSH1 0x0 MSTORE PUSH1 0x20 PUSH1 0x0 KECCAK256 SWAP1 JUMPDEST DUP2 SLOAD DUP2 MSTORE SWAP1 PUSH1 0x1 ADD SWAP1 PUSH1 0x20 ADD DUP1 DUP4 GT PUSH2 0x6CB JUMPI DUP3 SWAP1 SUB PUSH1 0x1F AND DUP3 ADD SWAP2 JUMPDEST POP POP POP POP POP SWAP1 DUP1 PUSH1 0x2 ADD SLOAD SWAP1 DUP1 PUSH1 0x3 ADD SLOAD SWAP1 DUP1 PUSH1 0x4 ADD PUSH1 0x0 SWAP1 SLOAD SWAP1 PUSH2 0x100 EXP SWAP1 DIV PUSH20 0xFFFFFFFFFFFFFFFFFFFFFFFFFFFFFFFFFFFFFFFF AND SWAP1 DUP1 PUSH1 0x5 ADD SLOAD SWAP1 POP DUP7 JUMP JUMPDEST PUSH1 0x1 PUSH1 0x2 DUP2 GT ISZERO PUSH2 0x73E JUMPI PUSH2 0x73D PUSH2 0x1E90 JUMP JUMPDEST JUMPDEST PUSH1 0x6 PUSH1 0x0 SWAP1 SLOAD SWAP1 PUSH2 0x100 EXP SWAP1 DIV PUSH1 0xFF AND PUSH1 0x2 DUP2 GT ISZERO PUSH2 0x760 JUMPI PUSH2 0x75F PUSH2 0x1E90 JUMP JUMPDEST JUMPDEST EQ PUSH2 0x76A JUMPI PUSH1 0x0 DUP1 REVERT JUMPDEST PUSH1 0x0 PUSH2 0x775 CALLER PUSH2 0xCE0 JUMP JUMPDEST SWAP1 POP PUSH1 0x0 DUP2 PUSH1 0x60 ADD MLOAD SUB PUSH2 0x7BE JUMPI PUSH1 0x40 MLOAD PUSH32 0x8C379A000000000000000000000000000000000000000000000000000000000 DUP2 MSTORE PUSH1 0x4 ADD PUSH2 0x7B5 SWAP1 PUSH2 0x283D JUMP JUMPDEST PUSH1 0x40 MLOAD DUP1 SWAP2 SUB SWAP1 REVERT JUMPDEST PUSH1 0x0 PUSH2 0x7C9 DUP4 PUSH2 0xF55 JUMP JUMPDEST SWAP1 POP PUSH1 0x0 DUP2 PUSH1 0x60 ADD MLOAD SUB PUSH2 0x812 JUMPI PUSH1 0x40 MLOAD PUSH32 0x8C379A000000000000000000000000000000000000000000000000000000000 DUP2 MSTORE PUSH1 0x4 ADD PUSH2 0x809 SWAP1 PUSH2 0x28A9 JUMP JUMPDEST PUSH1 0x40 MLOAD DUP1 SWAP2 SUB SWAP1 REVERT JUMPDEST DUP1 PUSH1 0x40 ADD MLOAD DUP3 PUSH1 0x40 ADD MLOAD EQ PUSH2 0x85C JUMPI PUSH1 0x40 MLOAD PUSH32 0x8C379A000000000000000000000000000000000000000000000000000000000 DUP2 MSTORE PUSH1 0x4 ADD PUSH2 0x853 SWAP1 PUSH2 0x293B JUMP JUMPDEST PUSH1 0x40 MLOAD DUP1 SWAP2 SUB SWAP1 REVERT JUMPDEST DUP2 PUSH1 0x80 ADD MLOAD ISZERO PUSH2 0x8A1 JUMPI PUSH1 0x40 MLOAD PUSH32 0x8C379A000000000000000000000000000000000000000000000000000000000 DUP2 MSTORE PUSH1 0x4 ADD PUSH2 0x898 SWAP1 PUSH2 0x29A7 JUMP JUMPDEST PUSH1 0x40 MLOAD DUP1 SWAP2 SUB SWAP1 REVERT JUMPDEST PUSH1 0x1 DUP2 PUSH1 0xA0 ADD DUP2 DUP2 MLOAD PUSH2 0x8B4 SWAP2 SWAP1 PUSH2 0x29F6 JUMP JUMPDEST SWAP2 POP DUP2 DUP2 MSTORE POP POP DUP1 PUSH1 0x4 PUSH1 0x1 DUP4 PUSH1 0x60 ADD MLOAD PUSH2 0x8CF SWAP2 SWAP1 PUSH2 0x2A2A JUMP JUMPDEST DUP2 SLOAD DUP2 LT PUSH2 0x8E0 JUMPI PUSH2 0x8DF PUSH2 0x2A5E JUMP JUMPDEST JUMPDEST SWAP1 PUSH1 0x0 MSTORE PUSH1 0x20 PUSH1 0x0 KECCAK256 SWAP1 PUSH1 0x6 MUL ADD PUSH1 0x0 DUP3 ADD MLOAD DUP2 PUSH1 0x0 ADD SWAP1 DUP2 PUSH2 0x903 SWAP2 SWAP1 PUSH2 0x2C39 JUMP JUMPDEST POP PUSH1 0x20 DUP3 ADD MLOAD DUP2 PUSH1 0x1 ADD SWAP1 DUP2 PUSH2 0x919 SWAP2 SWAP1 PUSH2 0x2C39 JUMP JUMPDEST POP PUSH1 0x40 DUP3 ADD MLOAD DUP2 PUSH1 0x2 ADD SSTORE PUSH1 0x60 DUP3 ADD MLOAD DUP2 PUSH1 0x3 ADD SSTORE PUSH1 0x80 DUP3 ADD MLOAD DUP2 PUSH1 0x4 ADD PUSH1 0x0 PUSH2 0x100 EXP DUP2 SLOAD DUP2 PUSH20 0xFFFFFFFFFFFFFFFFFFFFFFFFFFFFFFFFFFFFFFFF MUL NOT AND SWAP1 DUP4 PUSH20 0xFFFFFFFFFFFFFFFFFFFFFFFFFFFFFFFFFFFFFFFF AND MUL OR SWAP1 SSTORE POP PUSH1 0xA0 DUP3 ADD MLOAD DUP2 PUSH1 0x5 ADD SSTORE SWAP1 POP POP PUSH1 0x1 DUP3 PUSH1 0x80 ADD SWAP1 ISZERO ISZERO SWAP1 DUP2 ISZERO ISZERO DUP2 MSTORE POP POP DUP2 PUSH1 0x3 PUSH1 0x0 CALLER PUSH20 0xFFFFFFFFFFFFFFFFFFFFFFFFFFFFFFFFFFFFFFFF AND PUSH20 0xFFFFFFFFFFFFFFFFFFFFFFFFFFFFFFFFFFFFFFFF AND DUP2 MSTORE PUSH1 0x20 ADD SWAP1 DUP2 MSTORE PUSH1 0x20 ADD PUSH1 0x0 KECCAK256 PUSH1 0x0 DUP3 ADD MLOAD DUP2 PUSH1 0x0 ADD SWAP1 DUP2 PUSH2 0x9E8 SWAP2 SWAP1 PUSH2 0x2C39 JUMP JUMPDEST POP PUSH1 0x20 DUP3 ADD MLOAD DUP2 PUSH1 0x1 ADD SWAP1 DUP2 PUSH2 0x9FE SWAP2 SWAP1 PUSH2 0x2C39 JUMP JUMPDEST POP PUSH1 0x40 DUP3 ADD MLOAD DUP2 PUSH1 0x2 ADD SSTORE PUSH1 0x60 DUP3 ADD MLOAD DUP2 PUSH1 0x3 ADD SSTORE PUSH1 0x80 DUP3 ADD MLOAD DUP2 PUSH1 0x4 ADD PUSH1 0x0 PUSH2 0x100 EXP DUP2 SLOAD DUP2 PUSH1 0xFF MUL NOT AND SWAP1 DUP4 ISZERO ISZERO MUL OR SWAP1 SSTORE POP PUSH1 0xA0 DUP3 ADD MLOAD DUP2 PUSH1 0x4 ADD PUSH1 0x1 PUSH2 0x100 EXP DUP2 SLOAD DUP2 PUSH20 0xFFFFFFFFFFFFFFFFFFFFFFFFFFFFFFFFFFFFFFFF MUL NOT AND SWAP1 DUP4 PUSH20 0xFFFFFFFFFFFFFFFFFFFFFFFFFFFFFFFFFFFFFFFF AND MUL OR SWAP1 SSTORE POP SWAP1 POP POP POP POP POP JUMP JUMPDEST PUSH1 0x0 PUSH1 0x2 DUP2 GT ISZERO PUSH2 0xA96 JUMPI PUSH2 0xA95 PUSH2 0x1E90 JUMP JUMPDEST JUMPDEST PUSH1 0x6 PUSH1 0x0 SWAP1 SLOAD SWAP1 PUSH2 0x100 EXP SWAP1 DIV PUSH1 0xFF AND PUSH1 0x2 DUP2 GT ISZERO PUSH2 0xAB8 JUMPI PUSH2 0xAB7 PUSH2 0x1E90 JUMP JUMPDEST JUMPDEST EQ PUSH2 0xAC2 JUMPI PUSH1 0x0 DUP1 REVERT JUMPDEST PUSH1 0x0 JUMPDEST PUSH1 0x4 DUP1 SLOAD SWAP1 POP DUP2 LT ISZERO PUSH2 0xBB8 JUMPI PUSH1 0x4 DUP2 DUP2 SLOAD DUP2 LT PUSH2 0xAE6 JUMPI PUSH2 0xAE5 PUSH2 0x2A5E JUMP JUMPDEST JUMPDEST SWAP1 PUSH1 0x0 MSTORE PUSH1 0x20 PUSH1 0x0 KECCAK256 SWAP1 PUSH1 0x6 MUL ADD PUSH1 0x4 ADD PUSH1 0x0 SWAP1 SLOAD SWAP1 PUSH2 0x100 EXP SWAP1 DIV PUSH20 0xFFFFFFFFFFFFFFFFFFFFFFFFFFFFFFFFFFFFFFFF AND PUSH1 0x40 MLOAD PUSH1 0x20 ADD PUSH2 0xB28 SWAP2 SWAP1 PUSH2 0x2D53 JUMP JUMPDEST PUSH1 0x40 MLOAD PUSH1 0x20 DUP2 DUP4 SUB SUB DUP2 MSTORE SWAP1 PUSH1 0x40 MSTORE DUP1 MLOAD SWAP1 PUSH1 0x20 ADD KECCAK256 CALLER PUSH1 0x40 MLOAD PUSH1 0x20 ADD PUSH2 0xB4F SWAP2 SWAP1 PUSH2 0x2D53 JUMP JUMPDEST PUSH1 0x40 MLOAD PUSH1 0x20 DUP2 DUP4 SUB SUB DUP2 MSTORE SWAP1 PUSH1 0x40 MSTORE DUP1 MLOAD SWAP1 PUSH1 0x20 ADD KECCAK256 SUB PUSH2 0xBA5 JUMPI PUSH1 0x40 MLOAD PUSH32 0x8C379A000000000000000000000000000000000000000000000000000000000 DUP2 MSTORE PUSH1 0x4 ADD PUSH2 0xB9C SWAP1 PUSH2 0x2DBA JUMP JUMPDEST PUSH1 0x40 MLOAD DUP1 SWAP2 SUB SWAP1 REVERT JUMPDEST DUP1 DUP1 PUSH2 0xBB0 SWAP1 PUSH2 0x2DDA JUMP JUMPDEST SWAP2 POP POP PUSH2 0xAC5 JUMP JUMPDEST POP PUSH1 0x1 PUSH1 0x0 DUP2 SLOAD DUP1 SWAP3 SWAP2 SWAP1 PUSH2 0xBCC SWAP1 PUSH2 0x2DDA JUMP JUMPDEST SWAP2 SWAP1 POP SSTORE POP PUSH1 0x0 PUSH1 0x40 MLOAD DUP1 PUSH1 0xC0 ADD PUSH1 0x40 MSTORE DUP1 DUP6 DUP2 MSTORE PUSH1 0x20 ADD DUP5 DUP2 MSTORE PUSH1 0x20 ADD DUP4 DUP2 MSTORE PUSH1 0x20 ADD PUSH1 0x1 SLOAD DUP2 MSTORE PUSH1 0x20 ADD CALLER PUSH20 0xFFFFFFFFFFFFFFFFFFFFFFFFFFFFFFFFFFFFFFFF AND DUP2 MSTORE PUSH1 0x20 ADD PUSH1 0x0 DUP2 MSTORE POP SWAP1 POP PUSH1 0x4 DUP2 SWAP1 DUP1 PUSH1 0x1 DUP2 SLOAD ADD DUP1 DUP3 SSTORE DUP1 SWAP2 POP POP PUSH1 0x1 SWAP1 SUB SWAP1 PUSH1 0x0 MSTORE PUSH1 0x20 PUSH1 0x0 KECCAK256 SWAP1 PUSH1 0x6 MUL ADD PUSH1 0x0 SWAP1 SWAP2 SWAP1 SWAP2 SWAP1 SWAP2 POP PUSH1 0x0 DUP3 ADD MLOAD DUP2 PUSH1 0x0 ADD SWAP1 DUP2 PUSH2 0xC5C SWAP2 SWAP1 PUSH2 0x2C39 JUMP JUMPDEST POP PUSH1 0x20 DUP3 ADD MLOAD DUP2 PUSH1 0x1 ADD SWAP1 DUP2 PUSH2 0xC72 SWAP2 SWAP1 PUSH2 0x2C39 JUMP JUMPDEST POP PUSH1 0x40 DUP3 ADD MLOAD DUP2 PUSH1 0x2 ADD SSTORE PUSH1 0x60 DUP3 ADD MLOAD DUP2 PUSH1 0x3 ADD SSTORE PUSH1 0x80 DUP3 ADD MLOAD DUP2 PUSH1 0x4 ADD PUSH1 0x0 PUSH2 0x100 EXP DUP2 SLOAD DUP2 PUSH20 0xFFFFFFFFFFFFFFFFFFFFFFFFFFFFFFFFFFFFFFFF MUL NOT AND SWAP1 DUP4 PUSH20 0xFFFFFFFFFFFFFFFFFFFFFFFFFFFFFFFFFFFFFFFF AND MUL OR SWAP1 SSTORE POP PUSH1 0xA0 DUP3 ADD MLOAD DUP2 PUSH1 0x5 ADD SSTORE POP POP POP POP POP POP JUMP JUMPDEST PUSH2 0xCE8 PUSH2 0x1DF6 JUMP JUMPDEST PUSH1 0x0 PUSH1 0x3 PUSH1 0x0 DUP5 PUSH20 0xFFFFFFFFFFFFFFFFFFFFFFFFFFFFFFFFFFFFFFFF AND PUSH20 0xFFFFFFFFFFFFFFFFFFFFFFFFFFFFFFFFFFFFFFFF AND DUP2 MSTORE PUSH1 0x20 ADD SWAP1 DUP2 MSTORE PUSH1 0x20 ADD PUSH1 0x0 KECCAK256 PUSH1 0x40 MLOAD DUP1 PUSH1 0xC0 ADD PUSH1 0x40 MSTORE SWAP1 DUP2 PUSH1 0x0 DUP3 ADD DUP1 SLOAD PUSH2 0xD44 SWAP1 PUSH2 0x27C0 JUMP JUMPDEST DUP1 PUSH1 0x1F ADD PUSH1 0x20 DUP1 SWAP2 DIV MUL PUSH1 0x20 ADD PUSH1 0x40 MLOAD SWAP1 DUP2 ADD PUSH1 0x40 MSTORE DUP1 SWAP3 SWAP2 SWAP1 DUP2 DUP2 MSTORE PUSH1 0x20 ADD DUP3 DUP1 SLOAD PUSH2 0xD70 SWAP1 PUSH2 0x27C0 JUMP JUMPDEST DUP1 ISZERO PUSH2 0xDBD JUMPI DUP1 PUSH1 0x1F LT PUSH2 0xD92 JUMPI PUSH2 0x100 DUP1 DUP4 SLOAD DIV MUL DUP4 MSTORE SWAP2 PUSH1 0x20 ADD SWAP2 PUSH2 0xDBD JUMP JUMPDEST DUP3 ADD SWAP2 SWAP1 PUSH1 0x0 MSTORE PUSH1 0x20 PUSH1 0x0 KECCAK256 SWAP1 JUMPDEST DUP2 SLOAD DUP2 MSTORE SWAP1 PUSH1 0x1 ADD SWAP1 PUSH1 0x20 ADD DUP1 DUP4 GT PUSH2 0xDA0 JUMPI DUP3 SWAP1 SUB PUSH1 0x1F AND DUP3 ADD SWAP2 JUMPDEST POP POP POP POP POP DUP2 MSTORE PUSH1 0x20 ADD PUSH1 0x1 DUP3 ADD DUP1 SLOAD PUSH2 0xDD6 SWAP1 PUSH2 0x27C0 JUMP JUMPDEST DUP1 PUSH1 0x1F ADD PUSH1 0x20 DUP1 SWAP2 DIV MUL PUSH1 0x20 ADD PUSH1 0x40 MLOAD SWAP1 DUP2 ADD PUSH1 0x40 MSTORE DUP1 SWAP3 SWAP2 SWAP1 DUP2 DUP2 MSTORE PUSH1 0x20 ADD DUP3 DUP1 SLOAD PUSH2 0xE02 SWAP1 PUSH2 0x27C0 JUMP JUMPDEST DUP1 ISZERO PUSH2 0xE4F JUMPI DUP1 PUSH1 0x1F LT PUSH2 0xE24 JUMPI PUSH2 0x100 DUP1 DUP4 SLOAD DIV MUL DUP4 MSTORE SWAP2 PUSH1 0x20 ADD SWAP2 PUSH2 0xE4F JUMP JUMPDEST DUP3 ADD SWAP2 SWAP1 PUSH1 0x0 MSTORE PUSH1 0x20 PUSH1 0x0 KECCAK256 SWAP1 JUMPDEST DUP2 SLOAD DUP2 MSTORE SWAP1 PUSH1 0x1 ADD SWAP1 PUSH1 0x20 ADD DUP1 DUP4 GT PUSH2 0xE32 JUMPI DUP3 SWAP1 SUB PUSH1 0x1F AND DUP3 ADD SWAP2 JUMPDEST POP POP POP POP POP DUP2 MSTORE PUSH1 0x20 ADD PUSH1 0x2 DUP3 ADD SLOAD DUP2 MSTORE PUSH1 0x20 ADD PUSH1 0x3 DUP3 ADD SLOAD DUP2 MSTORE PUSH1 0x20 ADD PUSH1 0x4 DUP3 ADD PUSH1 0x0 SWAP1 SLOAD SWAP1 PUSH2 0x100 EXP SWAP1 DIV PUSH1 0xFF AND ISZERO ISZERO ISZERO ISZERO DUP2 MSTORE PUSH1 0x20 ADD PUSH1 0x4 DUP3 ADD PUSH1 0x1 SWAP1 SLOAD SWAP1 PUSH2 0x100 EXP SWAP1 DIV PUSH20 0xFFFFFFFFFFFFFFFFFFFFFFFFFFFFFFFFFFFFFFFF AND PUSH20 0xFFFFFFFFFFFFFFFFFFFFFFFFFFFFFFFFFFFFFFFF AND PUSH20 0xFFFFFFFFFFFFFFFFFFFFFFFFFFFFFFFFFFFFFFFF AND DUP2 MSTORE POP POP SWAP1 POP PUSH1 0x0 DUP2 PUSH1 0x60 ADD MLOAD SUB PUSH2 0xF26 JUMPI PUSH1 0x40 MLOAD PUSH32 0x8C379A000000000000000000000000000000000000000000000000000000000 DUP2 MSTORE PUSH1 0x4 ADD PUSH2 0xF1D SWAP1 PUSH2 0x2E6E JUMP JUMPDEST PUSH1 0x40 MLOAD DUP1 SWAP2 SUB SWAP1 REVERT JUMPDEST DUP1 SWAP2 POP POP SWAP2 SWAP1 POP JUMP JUMPDEST PUSH1 0x6 PUSH1 0x1 SWAP1 SLOAD SWAP1 PUSH2 0x100 EXP SWAP1 DIV PUSH20 0xFFFFFFFFFFFFFFFFFFFFFFFFFFFFFFFFFFFFFFFF AND DUP2 JUMP JUMPDEST PUSH2 0xF5D PUSH2 0x1E44 JUMP JUMPDEST PUSH1 0x0 JUMPDEST PUSH1 0x4 DUP1 SLOAD SWAP1 POP DUP2 LT ISZERO PUSH2 0x1179 JUMPI DUP3 PUSH1 0x4 DUP3 DUP2 SLOAD DUP2 LT PUSH2 0xF82 JUMPI PUSH2 0xF81 PUSH2 0x2A5E JUMP JUMPDEST JUMPDEST SWAP1 PUSH1 0x0 MSTORE PUSH1 0x20 PUSH1 0x0 KECCAK256 SWAP1 PUSH1 0x6 MUL ADD PUSH1 0x3 ADD SLOAD SUB PUSH2 0x1166 JUMPI PUSH1 0x4 DUP2 DUP2 SLOAD DUP2 LT PUSH2 0xFAD JUMPI PUSH2 0xFAC PUSH2 0x2A5E JUMP JUMPDEST JUMPDEST SWAP1 PUSH1 0x0 MSTORE PUSH1 0x20 PUSH1 0x0 KECCAK256 SWAP1 PUSH1 0x6 MUL ADD PUSH1 0x40 MLOAD DUP1 PUSH1 0xC0 ADD PUSH1 0x40 MSTORE SWAP1 DUP2 PUSH1 0x0 DUP3 ADD DUP1 SLOAD PUSH2 0xFD6 SWAP1 PUSH2 0x27C0 JUMP JUMPDEST DUP1 PUSH1 0x1F ADD PUSH1 0x20 DUP1 SWAP2 DIV MUL PUSH1 0x20 ADD PUSH1 0x40 MLOAD SWAP1 DUP2 ADD PUSH1 0x40 MSTORE DUP1 SWAP3 SWAP2 SWAP1 DUP2 DUP2 MSTORE PUSH1 0x20 ADD DUP3 DUP1 SLOAD PUSH2 0x1002 SWAP1 PUSH2 0x27C0 JUMP JUMPDEST DUP1 ISZERO PUSH2 0x104F JUMPI DUP1 PUSH1 0x1F LT PUSH2 0x1024 JUMPI PUSH2 0x100 DUP1 DUP4 SLOAD DIV MUL DUP4 MSTORE SWAP2 PUSH1 0x20 ADD SWAP2 PUSH2 0x104F JUMP JUMPDEST DUP3 ADD SWAP2 SWAP1 PUSH1 0x0 MSTORE PUSH1 0x20 PUSH1 0x0 KECCAK256 SWAP1 JUMPDEST DUP2 SLOAD DUP2 MSTORE SWAP1 PUSH1 0x1 ADD SWAP1 PUSH1 0x20 ADD DUP1 DUP4 GT PUSH2 0x1032 JUMPI DUP3 SWAP1 SUB PUSH1 0x1F AND DUP3 ADD SWAP2 JUMPDEST POP POP POP POP POP DUP2 MSTORE PUSH1 0x20 ADD PUSH1 0x1 DUP3 ADD DUP1 SLOAD PUSH2 0x1068 SWAP1 PUSH2 0x27C0 JUMP JUMPDEST DUP1 PUSH1 0x1F ADD PUSH1 0x20 DUP1 SWAP2 DIV MUL PUSH1 0x20 ADD PUSH1 0x40 MLOAD SWAP1 DUP2 ADD PUSH1 0x40 MSTORE DUP1 SWAP3 SWAP2 SWAP1 DUP2 DUP2 MSTORE PUSH1 0x20 ADD DUP3 DUP1 SLOAD PUSH2 0x1094 SWAP1 PUSH2 0x27C0 JUMP JUMPDEST DUP1 ISZERO PUSH2 0x10E1 JUMPI DUP1 PUSH1 0x1F LT PUSH2 0x10B6 JUMPI PUSH2 0x100 DUP1 DUP4 SLOAD DIV MUL DUP4 MSTORE SWAP2 PUSH1 0x20 ADD SWAP2 PUSH2 0x10E1 JUMP JUMPDEST DUP3 ADD SWAP2 SWAP1 PUSH1 0x0 MSTORE PUSH1 0x20 PUSH1 0x0 KECCAK256 SWAP1 JUMPDEST DUP2 SLOAD DUP2 MSTORE SWAP1 PUSH1 0x1 ADD SWAP1 PUSH1 0x20 ADD DUP1 DUP4 GT PUSH2 0x10C4 JUMPI DUP3 SWAP1 SUB PUSH1 0x1F AND DUP3 ADD SWAP2 JUMPDEST POP POP POP POP POP DUP2 MSTORE PUSH1 0x20 ADD PUSH1 0x2 DUP3 ADD SLOAD DUP2 MSTORE PUSH1 0x20 ADD PUSH1 0x3 DUP3 ADD SLOAD DUP2 MSTORE PUSH1 0x20 ADD PUSH1 0x4 DUP3 ADD PUSH1 0x0 SWAP1 SLOAD SWAP1 PUSH2 0x100 EXP SWAP1 DIV PUSH20 0xFFFFFFFFFFFFFFFFFFFFFFFFFFFFFFFFFFFFFFFF AND PUSH20 0xFFFFFFFFFFFFFFFFFFFFFFFFFFFFFFFFFFFFFFFF AND PUSH20 0xFFFFFFFFFFFFFFFFFFFFFFFFFFFFFFFFFFFFFFFF AND DUP2 MSTORE PUSH1 0x20 ADD PUSH1 0x5 DUP3 ADD SLOAD DUP2 MSTORE POP POP SWAP2 POP POP PUSH2 0x11B5 JUMP JUMPDEST DUP1 DUP1 PUSH2 0x1171 SWAP1 PUSH2 0x2DDA JUMP JUMPDEST SWAP2 POP POP PUSH2 0xF60 JUMP JUMPDEST POP PUSH1 0x40 MLOAD PUSH32 0x8C379A000000000000000000000000000000000000000000000000000000000 DUP2 MSTORE PUSH1 0x4 ADD PUSH2 0x11AC SWAP1 PUSH2 0x2EDA JUMP JUMPDEST PUSH1 0x40 MLOAD DUP1 SWAP2 SUB SWAP1 REVERT JUMPDEST SWAP2 SWAP1 POP JUMP JUMPDEST PUSH1 0x6 PUSH1 0x1 SWAP1 SLOAD SWAP1 PUSH2 0x100 EXP SWAP1 DIV PUSH20 0xFFFFFFFFFFFFFFFFFFFFFFFFFFFFFFFFFFFFFFFF AND PUSH20 0xFFFFFFFFFFFFFFFFFFFFFFFFFFFFFFFFFFFFFFFF AND CALLER PUSH20 0xFFFFFFFFFFFFFFFFFFFFFFFFFFFFFFFFFFFFFFFF AND EQ PUSH2 0x1214 JUMPI PUSH1 0x0 DUP1 REVERT JUMPDEST PUSH1 0x2 DUP1 DUP2 GT ISZERO PUSH2 0x1227 JUMPI PUSH2 0x1226 PUSH2 0x1E90 JUMP JUMPDEST JUMPDEST PUSH1 0x6 PUSH1 0x0 SWAP1 SLOAD SWAP1 PUSH2 0x100 EXP SWAP1 DIV PUSH1 0xFF AND PUSH1 0x2 DUP2 GT ISZERO PUSH2 0x1249 JUMPI PUSH2 0x1248 PUSH2 0x1E90 JUMP JUMPDEST JUMPDEST EQ PUSH2 0x1253 JUMPI PUSH1 0x0 DUP1 REVERT JUMPDEST PUSH1 0x0 JUMPDEST PUSH1 0x5 DUP1 SLOAD SWAP1 POP DUP2 LT ISZERO PUSH2 0x1602 JUMPI PUSH2 0x126B PUSH2 0x1E44 JUMP JUMPDEST PUSH1 0x0 JUMPDEST PUSH1 0x4 DUP1 SLOAD SWAP1 POP DUP2 LT ISZERO PUSH2 0x14D9 JUMPI PUSH1 0x4 DUP2 DUP2 SLOAD DUP2 LT PUSH2 0x128F JUMPI PUSH2 0x128E PUSH2 0x2A5E JUMP JUMPDEST JUMPDEST SWAP1 PUSH1 0x0 MSTORE PUSH1 0x20 PUSH1 0x0 KECCAK256 SWAP1 PUSH1 0x6 MUL ADD PUSH1 0x2 ADD SLOAD PUSH1 0x5 DUP5 DUP2 SLOAD DUP2 LT PUSH2 0x12B5 JUMPI PUSH2 0x12B4 PUSH2 0x2A5E JUMP JUMPDEST JUMPDEST SWAP1 PUSH1 0x0 MSTORE PUSH1 0x20 PUSH1 0x0 KECCAK256 SWAP1 PUSH1 0x8 MUL ADD PUSH1 0x1 ADD SLOAD SUB PUSH2 0x14C6 JUMPI PUSH1 0x4 DUP2 DUP2 SLOAD DUP2 LT PUSH2 0x12E0 JUMPI PUSH2 0x12DF PUSH2 0x2A5E JUMP JUMPDEST JUMPDEST SWAP1 PUSH1 0x0 MSTORE PUSH1 0x20 PUSH1 0x0 KECCAK256 SWAP1 PUSH1 0x6 MUL ADD PUSH1 0x5 ADD SLOAD DUP3 PUSH1 0xA0 ADD MLOAD LT ISZERO PUSH2 0x14C5 JUMPI PUSH1 0x4 DUP2 DUP2 SLOAD DUP2 LT PUSH2 0x1311 JUMPI PUSH2 0x1310 PUSH2 0x2A5E JUMP JUMPDEST JUMPDEST SWAP1 PUSH1 0x0 MSTORE PUSH1 0x20 PUSH1 0x0 KECCAK256 SWAP1 PUSH1 0x6 MUL ADD PUSH1 0x40 MLOAD DUP1 PUSH1 0xC0 ADD PUSH1 0x40 MSTORE SWAP1 DUP2 PUSH1 0x0 DUP3 ADD DUP1 SLOAD PUSH2 0x133A SWAP1 PUSH2 0x27C0 JUMP JUMPDEST DUP1 PUSH1 0x1F ADD PUSH1 0x20 DUP1 SWAP2 DIV MUL PUSH1 0x20 ADD PUSH1 0x40 MLOAD SWAP1 DUP2 ADD PUSH1 0x40 MSTORE DUP1 SWAP3 SWAP2 SWAP1 DUP2 DUP2 MSTORE PUSH1 0x20 ADD DUP3 DUP1 SLOAD PUSH2 0x1366 SWAP1 PUSH2 0x27C0 JUMP JUMPDEST DUP1 ISZERO PUSH2 0x13B3 JUMPI DUP1 PUSH1 0x1F LT PUSH2 0x1388 JUMPI PUSH2 0x100 DUP1 DUP4 SLOAD DIV MUL DUP4 MSTORE SWAP2 PUSH1 0x20 ADD SWAP2 PUSH2 0x13B3 JUMP JUMPDEST DUP3 ADD SWAP2 SWAP1 PUSH1 0x0 MSTORE PUSH1 0x20 PUSH1 0x0 KECCAK256 SWAP1 JUMPDEST DUP2 SLOAD DUP2 MSTORE SWAP1 PUSH1 0x1 ADD SWAP1 PUSH1 0x20 ADD DUP1 DUP4 GT PUSH2 0x1396 JUMPI DUP3 SWAP1 SUB PUSH1 0x1F AND DUP3 ADD SWAP2 JUMPDEST POP POP POP POP POP DUP2 MSTORE PUSH1 0x20 ADD PUSH1 0x1 DUP3 ADD DUP1 SLOAD PUSH2 0x13CC SWAP1 PUSH2 0x27C0 JUMP JUMPDEST DUP1 PUSH1 0x1F ADD PUSH1 0x20 DUP1 SWAP2 DIV MUL PUSH1 0x20 ADD PUSH1 0x40 MLOAD SWAP1 DUP2 ADD PUSH1 0x40 MSTORE DUP1 SWAP3 SWAP2 SWAP1 DUP2 DUP2 MSTORE PUSH1 0x20 ADD DUP3 DUP1 SLOAD PUSH2 0x13F8 SWAP1 PUSH2 0x27C0 JUMP JUMPDEST DUP1 ISZERO PUSH2 0x1445 JUMPI DUP1 PUSH1 0x1F LT PUSH2 0x141A JUMPI PUSH2 0x100 DUP1 DUP4 SLOAD DIV MUL DUP4 MSTORE SWAP2 PUSH1 0x20 ADD SWAP2 PUSH2 0x1445 JUMP JUMPDEST DUP3 ADD SWAP2 SWAP1 PUSH1 0x0 MSTORE PUSH1 0x20 PUSH1 0x0 KECCAK256 SWAP1 JUMPDEST DUP2 SLOAD DUP2 MSTORE SWAP1 PUSH1 0x1 ADD SWAP1 PUSH1 0x20 ADD DUP1 DUP4 GT PUSH2 0x1428 JUMPI DUP3 SWAP1 SUB PUSH1 0x1F AND DUP3 ADD SWAP2 JUMPDEST POP POP POP POP POP DUP2 MSTORE PUSH1 0x20 ADD PUSH1 0x2 DUP3 ADD SLOAD DUP2 MSTORE PUSH1 0x20 ADD PUSH1 0x3 DUP3 ADD SLOAD DUP2 MSTORE PUSH1 0x20 ADD PUSH1 0x4 DUP3 ADD PUSH1 0x0 SWAP1 SLOAD SWAP1 PUSH2 0x100 EXP SWAP1 DIV PUSH20 0xFFFFFFFFFFFFFFFFFFFFFFFFFFFFFFFFFFFFFFFF AND PUSH20 0xFFFFFFFFFFFFFFFFFFFFFFFFFFFFFFFFFFFFFFFF AND PUSH20 0xFFFFFFFFFFFFFFFFFFFFFFFFFFFFFFFFFFFFFFFF AND DUP2 MSTORE PUSH1 0x20 ADD PUSH1 0x5 DUP3 ADD SLOAD DUP2 MSTORE POP POP SWAP2 POP JUMPDEST JUMPDEST DUP1 DUP1 PUSH2 0x14D1 SWAP1 PUSH2 0x2DDA JUMP JUMPDEST SWAP2 POP POP PUSH2 0x126E JUMP JUMPDEST POP DUP1 PUSH1 0x5 DUP4 DUP2 SLOAD DUP2 LT PUSH2 0x14EF JUMPI PUSH2 0x14EE PUSH2 0x2A5E JUMP JUMPDEST JUMPDEST SWAP1 PUSH1 0x0 MSTORE PUSH1 0x20 PUSH1 0x0 KECCAK256 SWAP1 PUSH1 0x8 MUL ADD PUSH1 0x2 ADD PUSH1 0x0 DUP3 ADD MLOAD DUP2 PUSH1 0x0 ADD SWAP1 DUP2 PUSH2 0x1515 SWAP2 SWAP1 PUSH2 0x2C39 JUMP JUMPDEST POP PUSH1 0x20 DUP3 ADD MLOAD DUP2 PUSH1 0x1 ADD SWAP1 DUP2 PUSH2 0x152B SWAP2 SWAP1 PUSH2 0x2C39 JUMP JUMPDEST POP PUSH1 0x40 DUP3 ADD MLOAD DUP2 PUSH1 0x2 ADD SSTORE PUSH1 0x60 DUP3 ADD MLOAD DUP2 PUSH1 0x3 ADD SSTORE PUSH1 0x80 DUP3 ADD MLOAD DUP2 PUSH1 0x4 ADD PUSH1 0x0 PUSH2 0x100 EXP DUP2 SLOAD DUP2 PUSH20 0xFFFFFFFFFFFFFFFFFFFFFFFFFFFFFFFFFFFFFFFF MUL NOT AND SWAP1 DUP4 PUSH20 0xFFFFFFFFFFFFFFFFFFFFFFFFFFFFFFFFFFFFFFFF AND MUL OR SWAP1 SSTORE POP PUSH1 0xA0 DUP3 ADD MLOAD DUP2 PUSH1 0x5 ADD SSTORE SWAP1 POP POP PUSH32 0x28E4CDCE854CBC2D5590D27FA474702AC9C289967764A63F240AA28101FF5835 DUP2 PUSH1 0x5 DUP5 DUP2 SLOAD DUP2 LT PUSH2 0x15CA JUMPI PUSH2 0x15C9 PUSH2 0x2A5E JUMP JUMPDEST JUMPDEST SWAP1 PUSH1 0x0 MSTORE PUSH1 0x20 PUSH1 0x0 KECCAK256 SWAP1 PUSH1 0x8 MUL ADD PUSH1 0x40 MLOAD PUSH2 0x15E6 SWAP3 SWAP2 SWAP1 PUSH2 0x3107 JUMP JUMPDEST PUSH1 0x40 MLOAD DUP1 SWAP2 SUB SWAP1 LOG1 POP DUP1 DUP1 PUSH2 0x15FA SWAP1 PUSH2 0x2DDA JUMP JUMPDEST SWAP2 POP POP PUSH2 0x1256 JUMP JUMPDEST POP JUMP JUMPDEST PUSH1 0x5 DUP2 DUP2 SLOAD DUP2 LT PUSH2 0x1615 JUMPI PUSH1 0x0 DUP1 REVERT JUMPDEST SWAP1 PUSH1 0x0 MSTORE PUSH1 0x20 PUSH1 0x0 KECCAK256 SWAP1 PUSH1 0x8 MUL ADD PUSH1 0x0 SWAP2 POP SWAP1 POP DUP1 PUSH1 0x0 ADD DUP1 SLOAD PUSH2 0x1638 SWAP1 PUSH2 0x27C0 JUMP JUMPDEST DUP1 PUSH1 0x1F ADD PUSH1 0x20 DUP1 SWAP2 DIV MUL PUSH1 0x20 ADD PUSH1 0x40 MLOAD SWAP1 DUP2 ADD PUSH1 0x40 MSTORE DUP1 SWAP3 SWAP2 SWAP1 DUP2 DUP2 MSTORE PUSH1 0x20 ADD DUP3 DUP1 SLOAD PUSH2 0x1664 SWAP1 PUSH2 0x27C0 JUMP JUMPDEST DUP1 ISZERO PUSH2 0x16B1 JUMPI DUP1 PUSH1 0x1F LT PUSH2 0x1686 JUMPI PUSH2 0x100 DUP1 DUP4 SLOAD DIV MUL DUP4 MSTORE SWAP2 PUSH1 0x20 ADD SWAP2 PUSH2 0x16B1 JUMP JUMPDEST DUP3 ADD SWAP2 SWAP1 PUSH1 0x0 MSTORE PUSH1 0x20 PUSH1 0x0 KECCAK256 SWAP1 JUMPDEST DUP2 SLOAD DUP2 MSTORE SWAP1 PUSH1 0x1 ADD SWAP1 PUSH1 0x20 ADD DUP1 DUP4 GT PUSH2 0x1694 JUMPI DUP3 SWAP1 SUB PUSH1 0x1F AND DUP3 ADD SWAP2 JUMPDEST POP POP POP POP POP SWAP1 DUP1 PUSH1 0x1 ADD SLOAD SWAP1 DUP1 PUSH1 0x2 ADD PUSH1 0x40 MLOAD DUP1 PUSH1 0xC0 ADD PUSH1 0x40 MSTORE SWAP1 DUP2 PUSH1 0x0 DUP3 ADD DUP1 SLOAD PUSH2 0x16DC SWAP1 PUSH2 0x27C0 JUMP JUMPDEST DUP1 PUSH1 0x1F ADD PUSH1 0x20 DUP1 SWAP2 DIV MUL PUSH1 0x20 ADD PUSH1 0x40 MLOAD SWAP1 DUP2 ADD PUSH1 0x40 MSTORE DUP1 SWAP3 SWAP2 SWAP1 DUP2 DUP2 MSTORE PUSH1 0x20 ADD DUP3 DUP1 SLOAD PUSH2 0x1708 SWAP1 PUSH2 0x27C0 JUMP JUMPDEST DUP1 ISZERO PUSH2 0x1755 JUMPI DUP1 PUSH1 0x1F LT PUSH2 0x172A JUMPI PUSH2 0x100 DUP1 DUP4 SLOAD DIV MUL DUP4 MSTORE SWAP2 PUSH1 0x20 ADD SWAP2 PUSH2 0x1755 JUMP JUMPDEST DUP3 ADD SWAP2 SWAP1 PUSH1 0x0 MSTORE PUSH1 0x20 PUSH1 0x0 KECCAK256 SWAP1 JUMPDEST DUP2 SLOAD DUP2 MSTORE SWAP1 PUSH1 0x1 ADD SWAP1 PUSH1 0x20 ADD DUP1 DUP4 GT PUSH2 0x1738 JUMPI DUP3 SWAP1 SUB PUSH1 0x1F AND DUP3 ADD SWAP2 JUMPDEST POP POP POP POP POP DUP2 MSTORE PUSH1 0x20 ADD PUSH1 0x1 DUP3 ADD DUP1 SLOAD PUSH2 0x176E SWAP1 PUSH2 0x27C0 JUMP JUMPDEST DUP1 PUSH1 0x1F ADD PUSH1 0x20 DUP1 SWAP2 DIV MUL PUSH1 0x20 ADD PUSH1 0x40 MLOAD SWAP1 DUP2 ADD PUSH1 0x40 MSTORE DUP1 SWAP3 SWAP2 SWAP1 DUP2 DUP2 MSTORE PUSH1 0x20 ADD DUP3 DUP1 SLOAD PUSH2 0x179A SWAP1 PUSH2 0x27C0 JUMP JUMPDEST DUP1 ISZERO PUSH2 0x17E7 JUMPI DUP1 PUSH1 0x1F LT PUSH2 0x17BC JUMPI PUSH2 0x100 DUP1 DUP4 SLOAD DIV MUL DUP4 MSTORE SWAP2 PUSH1 0x20 ADD SWAP2 PUSH2 0x17E7 JUMP JUMPDEST DUP3 ADD SWAP2 SWAP1 PUSH1 0x0 MSTORE PUSH1 0x20 PUSH1 0x0 KECCAK256 SWAP1 JUMPDEST DUP2 SLOAD DUP2 MSTORE SWAP1 PUSH1 0x1 ADD SWAP1 PUSH1 0x20 ADD DUP1 DUP4 GT PUSH2 0x17CA JUMPI DUP3 SWAP1 SUB PUSH1 0x1F AND DUP3 ADD SWAP2 JUMPDEST POP POP POP POP POP DUP2 MSTORE PUSH1 0x20 ADD PUSH1 0x2 DUP3 ADD SLOAD DUP2 MSTORE PUSH1 0x20 ADD PUSH1 0x3 DUP3 ADD SLOAD DUP2 MSTORE PUSH1 0x20 ADD PUSH1 0x4 DUP3 ADD PUSH1 0x0 SWAP1 SLOAD SWAP1 PUSH2 0x100 EXP SWAP1 DIV PUSH20 0xFFFFFFFFFFFFFFFFFFFFFFFFFFFFFFFFFFFFFFFF AND PUSH20 0xFFFFFFFFFFFFFFFFFFFFFFFFFFFFFFFFFFFFFFFF AND PUSH20 0xFFFFFFFFFFFFFFFFFFFFFFFFFFFFFFFFFFFFFFFF AND DUP2 MSTORE PUSH1 0x20 ADD PUSH1 0x5 DUP3 ADD SLOAD DUP2 MSTORE POP POP SWAP1 POP DUP4 JUMP JUMPDEST PUSH1 0x0 PUSH1 0x6 PUSH1 0x0 SWAP1 SLOAD SWAP1 PUSH2 0x100 EXP SWAP1 DIV PUSH1 0xFF AND SWAP1 POP SWAP1 JUMP JUMPDEST PUSH1 0x3 PUSH1 0x20 MSTORE DUP1 PUSH1 0x0 MSTORE PUSH1 0x40 PUSH1 0x0 KECCAK256 PUSH1 0x0 SWAP2 POP SWAP1 POP DUP1 PUSH1 0x0 ADD DUP1 SLOAD PUSH2 0x18A3 SWAP1 PUSH2 0x27C0 JUMP JUMPDEST DUP1 PUSH1 0x1F ADD PUSH1 0x20 DUP1 SWAP2 DIV MUL PUSH1 0x20 ADD PUSH1 0x40 MLOAD SWAP1 DUP2 ADD PUSH1 0x40 MSTORE DUP1 SWAP3 SWAP2 SWAP1 DUP2 DUP2 MSTORE PUSH1 0x20 ADD DUP3 DUP1 SLOAD PUSH2 0x18CF SWAP1 PUSH2 0x27C0 JUMP JUMPDEST DUP1 ISZERO PUSH2 0x191C JUMPI DUP1 PUSH1 0x1F LT PUSH2 0x18F1 JUMPI PUSH2 0x100 DUP1 DUP4 SLOAD DIV MUL DUP4 MSTORE SWAP2 PUSH1 0x20 ADD SWAP2 PUSH2 0x191C JUMP JUMPDEST DUP3 ADD SWAP2 SWAP1 PUSH1 0x0 MSTORE PUSH1 0x20 PUSH1 0x0 KECCAK256 SWAP1 JUMPDEST DUP2 SLOAD DUP2 MSTORE SWAP1 PUSH1 0x1 ADD SWAP1 PUSH1 0x20 ADD DUP1 DUP4 GT PUSH2 0x18FF JUMPI DUP3 SWAP1 SUB PUSH1 0x1F AND DUP3 ADD SWAP2 JUMPDEST POP POP POP POP POP SWAP1 DUP1 PUSH1 0x1 ADD DUP1 SLOAD PUSH2 0x1931 SWAP1 PUSH2 0x27C0 JUMP JUMPDEST DUP1 PUSH1 0x1F ADD PUSH1 0x20 DUP1 SWAP2 DIV MUL PUSH1 0x20 ADD PUSH1 0x40 MLOAD SWAP1 DUP2 ADD PUSH1 0x40 MSTORE DUP1 SWAP3 SWAP2 SWAP1 DUP2 DUP2 MSTORE PUSH1 0x20 ADD DUP3 DUP1 SLOAD PUSH2 0x195D SWAP1 PUSH2 0x27C0 JUMP JUMPDEST DUP1 ISZERO PUSH2 0x19AA JUMPI DUP1 PUSH1 0x1F LT PUSH2 0x197F JUMPI PUSH2 0x100 DUP1 DUP4 SLOAD DIV MUL DUP4 MSTORE SWAP2 PUSH1 0x20 ADD SWAP2 PUSH2 0x19AA JUMP JUMPDEST DUP3 ADD SWAP2 SWAP1 PUSH1 0x0 MSTORE PUSH1 0x20 PUSH1 0x0 KECCAK256 SWAP1 JUMPDEST DUP2 SLOAD DUP2 MSTORE SWAP1 PUSH1 0x1 ADD SWAP1 PUSH1 0x20 ADD DUP1 DUP4 GT PUSH2 0x198D JUMPI DUP3 SWAP1 SUB PUSH1 0x1F AND DUP3 ADD SWAP2 JUMPDEST POP POP POP POP POP SWAP1 DUP1 PUSH1 0x2 ADD SLOAD SWAP1 DUP1 PUSH1 0x3 ADD SLOAD SWAP1 DUP1 PUSH1 0x4 ADD PUSH1 0x0 SWAP1 SLOAD SWAP1 PUSH2 0x100 EXP SWAP1 DIV PUSH1 0xFF AND SWAP1 DUP1 PUSH1 0x4 ADD PUSH1 0x1 SWAP1 SLOAD SWAP1 PUSH2 0x100 EXP SWAP1 DIV PUSH20 0xFFFFFFFFFFFFFFFFFFFFFFFFFFFFFFFFFFFFFFFF AND SWAP1 POP DUP7 JUMP JUMPDEST PUSH1 0x0 PUSH1 0x2 DUP2 GT ISZERO PUSH2 0x1A0D JUMPI PUSH2 0x1A0C PUSH2 0x1E90 JUMP JUMPDEST JUMPDEST PUSH1 0x6 PUSH1 0x0 SWAP1 SLOAD SWAP1 PUSH2 0x100 EXP SWAP1 DIV PUSH1 0xFF AND PUSH1 0x2 DUP2 GT ISZERO PUSH2 0x1A2F JUMPI PUSH2 0x1A2E PUSH2 0x1E90 JUMP JUMPDEST JUMPDEST EQ PUSH2 0x1A39 JUMPI PUSH1 0x0 DUP1 REVERT JUMPDEST PUSH1 0x0 PUSH1 0x3 PUSH1 0x0 CALLER PUSH20 0xFFFFFFFFFFFFFFFFFFFFFFFFFFFFFFFFFFFFFFFF AND PUSH20 0xFFFFFFFFFFFFFFFFFFFFFFFFFFFFFFFFFFFFFFFF AND DUP2 MSTORE PUSH1 0x20 ADD SWAP1 DUP2 MSTORE PUSH1 0x20 ADD PUSH1 0x0 KECCAK256 PUSH1 0x3 ADD SLOAD EQ PUSH2 0x1ABE JUMPI PUSH1 0x40 MLOAD PUSH32 0x8C379A000000000000000000000000000000000000000000000000000000000 DUP2 MSTORE PUSH1 0x4 ADD PUSH2 0x1AB5 SWAP1 PUSH2 0x318A JUMP JUMPDEST PUSH1 0x40 MLOAD DUP1 SWAP2 SUB SWAP1 REVERT JUMPDEST PUSH1 0x0 DUP1 DUP2 SLOAD DUP1 SWAP3 SWAP2 SWAP1 PUSH2 0x1AD0 SWAP1 PUSH2 0x2DDA JUMP JUMPDEST SWAP2 SWAP1 POP SSTORE POP PUSH1 0x0 PUSH1 0x40 MLOAD DUP1 PUSH1 0xC0 ADD PUSH1 0x40 MSTORE DUP1 DUP6 DUP2 MSTORE PUSH1 0x20 ADD DUP5 DUP2 MSTORE PUSH1 0x20 ADD DUP4 DUP2 MSTORE PUSH1 0x20 ADD PUSH1 0x0 SLOAD DUP2 MSTORE PUSH1 0x20 ADD PUSH1 0x0 ISZERO ISZERO DUP2 MSTORE PUSH1 0x20 ADD CALLER PUSH20 0xFFFFFFFFFFFFFFFFFFFFFFFFFFFFFFFFFFFFFFFF AND DUP2 MSTORE POP SWAP1 POP DUP1 PUSH1 0x3 PUSH1 0x0 CALLER PUSH20 0xFFFFFFFFFFFFFFFFFFFFFFFFFFFFFFFFFFFFFFFF AND PUSH20 0xFFFFFFFFFFFFFFFFFFFFFFFFFFFFFFFFFFFFFFFF AND DUP2 MSTORE PUSH1 0x20 ADD SWAP1 DUP2 MSTORE PUSH1 0x20 ADD PUSH1 0x0 KECCAK256 PUSH1 0x0 DUP3 ADD MLOAD DUP2 PUSH1 0x0 ADD SWAP1 DUP2 PUSH2 0x1B76 SWAP2 SWAP1 PUSH2 0x2C39 JUMP JUMPDEST POP PUSH1 0x20 DUP3 ADD MLOAD DUP2 PUSH1 0x1 ADD SWAP1 DUP2 PUSH2 0x1B8C SWAP2 SWAP1 PUSH2 0x2C39 JUMP JUMPDEST POP PUSH1 0x40 DUP3 ADD MLOAD DUP2 PUSH1 0x2 ADD SSTORE PUSH1 0x60 DUP3 ADD MLOAD DUP2 PUSH1 0x3 ADD SSTORE PUSH1 0x80 DUP3 ADD MLOAD DUP2 PUSH1 0x4 ADD PUSH1 0x0 PUSH2 0x100 EXP DUP2 SLOAD DUP2 PUSH1 0xFF MUL NOT AND SWAP1 DUP4 ISZERO ISZERO MUL OR SWAP1 SSTORE POP PUSH1 0xA0 DUP3 ADD MLOAD DUP2 PUSH1 0x4 ADD PUSH1 0x1 PUSH2 0x100 EXP DUP2 SLOAD DUP2 PUSH20 0xFFFFFFFFFFFFFFFFFFFFFFFFFFFFFFFFFFFFFFFF MUL NOT AND SWAP1 DUP4 PUSH20 0xFFFFFFFFFFFFFFFFFFFFFFFFFFFFFFFFFFFFFFFF AND MUL OR SWAP1 SSTORE POP SWAP1 POP POP POP POP POP POP JUMP JUMPDEST PUSH1 0x6 PUSH1 0x1 SWAP1 SLOAD SWAP1 PUSH2 0x100 EXP SWAP1 DIV PUSH20 0xFFFFFFFFFFFFFFFFFFFFFFFFFFFFFFFFFFFFFFFF AND PUSH20 0xFFFFFFFFFFFFFFFFFFFFFFFFFFFFFFFFFFFFFFFF AND CALLER PUSH20 0xFFFFFFFFFFFFFFFFFFFFFFFFFFFFFFFFFFFFFFFF AND EQ PUSH2 0x1C6B JUMPI PUSH1 0x0 DUP1 REVERT JUMPDEST PUSH1 0x0 PUSH1 0x2 DUP2 GT ISZERO PUSH2 0x1C7F JUMPI PUSH2 0x1C7E PUSH2 0x1E90 JUMP JUMPDEST JUMPDEST PUSH1 0x6 PUSH1 0x0 SWAP1 SLOAD SWAP1 PUSH2 0x100 EXP SWAP1 DIV PUSH1 0xFF AND PUSH1 0x2 DUP2 GT ISZERO PUSH2 0x1CA1 JUMPI PUSH2 0x1CA0 PUSH2 0x1E90 JUMP JUMPDEST JUMPDEST SUB PUSH2 0x1D1C JUMPI PUSH1 0x1 PUSH1 0x6 PUSH1 0x0 PUSH2 0x100 EXP DUP2 SLOAD DUP2 PUSH1 0xFF MUL NOT AND SWAP1 DUP4 PUSH1 0x2 DUP2 GT ISZERO PUSH2 0x1CCC JUMPI PUSH2 0x1CCB PUSH2 0x1E90 JUMP JUMPDEST JUMPDEST MUL OR SWAP1 SSTORE POP PUSH32 0xD0E47A271D69B0E6E3F9BD81C7C695BFBCB309E6EE66A23E6AD80A8F90190574 PUSH1 0x6 PUSH1 0x0 SWAP1 SLOAD SWAP1 PUSH2 0x100 EXP SWAP1 DIV PUSH1 0xFF AND PUSH1 0x40 MLOAD PUSH2 0x1D0F SWAP2 SWAP1 PUSH2 0x1F07 JUMP JUMPDEST PUSH1 0x40 MLOAD DUP1 SWAP2 SUB SWAP1 LOG1 PUSH2 0x1DCA JUMP JUMPDEST PUSH1 0x1 PUSH1 0x2 DUP2 GT ISZERO PUSH2 0x1D30 JUMPI PUSH2 0x1D2F PUSH2 0x1E90 JUMP JUMPDEST JUMPDEST PUSH1 0x6 PUSH1 0x0 SWAP1 SLOAD SWAP1 PUSH2 0x100 EXP SWAP1 DIV PUSH1 0xFF AND PUSH1 0x2 DUP2 GT ISZERO PUSH2 0x1D52 JUMPI PUSH2 0x1D51 PUSH2 0x1E90 JUMP JUMPDEST JUMPDEST SUB PUSH2 0x1DC9 JUMPI PUSH1 0x2 PUSH1 0x6 PUSH1 0x0 PUSH2 0x100 EXP DUP2 SLOAD DUP2 PUSH1 0xFF MUL NOT AND SWAP1 DUP4 PUSH1 0x2 DUP2 GT ISZERO PUSH2 0x1D7D JUMPI PUSH2 0x1D7C PUSH2 0x1E90 JUMP JUMPDEST JUMPDEST MUL OR SWAP1 SSTORE POP PUSH32 0xD0E47A271D69B0E6E3F9BD81C7C695BFBCB309E6EE66A23E6AD80A8F90190574 PUSH1 0x6 PUSH1 0x0 SWAP1 SLOAD SWAP1 PUSH2 0x100 EXP SWAP1 DIV PUSH1 0xFF AND PUSH1 0x40 MLOAD PUSH2 0x1DC0 SWAP2 SWAP1 PUSH2 0x1F07 JUMP JUMPDEST PUSH1 0x40 MLOAD DUP1 SWAP2 SUB SWAP1 LOG1 JUMPDEST JUMPDEST JUMP JUMPDEST PUSH1 0x0 PUSH1 0x6 PUSH1 0x1 SWAP1 SLOAD SWAP1 PUSH2 0x100 EXP SWAP1 DIV PUSH20 0xFFFFFFFFFFFFFFFFFFFFFFFFFFFFFFFFFFFFFFFF AND SWAP1 POP SWAP1 JUMP JUMPDEST PUSH1 0x40 MLOAD DUP1 PUSH1 0xC0 ADD PUSH1 0x40 MSTORE DUP1 PUSH1 0x60 DUP2 MSTORE PUSH1 0x20 ADD PUSH1 0x60 DUP2 MSTORE PUSH1 0x20 ADD PUSH1 0x0 DUP2 MSTORE PUSH1 0x20 ADD PUSH1 0x0 DUP2 MSTORE PUSH1 0x20 ADD PUSH1 0x0 ISZERO ISZERO DUP2 MSTORE PUSH1 0x20 ADD PUSH1 0x0 PUSH20 0xFFFFFFFFFFFFFFFFFFFFFFFFFFFFFFFFFFFFFFFF AND DUP2 MSTORE POP SWAP1 JUMP JUMPDEST PUSH1 0x40 MLOAD DUP1 PUSH1 0xC0 ADD PUSH1 0x40 MSTORE DUP1 PUSH1 0x60 DUP2 MSTORE PUSH1 0x20 ADD PUSH1 0x60 DUP2 MSTORE PUSH1 0x20 ADD PUSH1 0x0 DUP2 MSTORE PUSH1 0x20 ADD PUSH1 0x0 DUP2 MSTORE PUSH1 0x20 ADD PUSH1 0x0 PUSH20 0xFFFFFFFFFFFFFFFFFFFFFFFFFFFFFFFFFFFFFFFF AND DUP2 MSTORE PUSH1 0x20 ADD PUSH1 0x0 DUP2 MSTORE POP SWAP1 JUMP JUMPDEST PUSH32 0x4E487B7100000000000000000000000000000000000000000000000000000000 PUSH1 0x0 MSTORE PUSH1 0x21 PUSH1 0x4 MSTORE PUSH1 0x24 PUSH1 0x0 REVERT JUMPDEST PUSH1 0x3 DUP2 LT PUSH2 0x1ED0 JUMPI PUSH2 0x1ECF PUSH2 0x1E90 JUMP JUMPDEST JUMPDEST POP JUMP JUMPDEST PUSH1 0x0 DUP2 SWAP1 POP PUSH2 0x1EE1 DUP3 PUSH2 0x1EBF JUMP JUMPDEST SWAP2 SWAP1 POP JUMP JUMPDEST PUSH1 0x0 PUSH2 0x1EF1 DUP3 PUSH2 0x1ED3 JUMP JUMPDEST SWAP1 POP SWAP2 SWAP1 POP JUMP JUMPDEST PUSH2 0x1F01 DUP2 PUSH2 0x1EE6 JUMP JUMPDEST DUP3 MSTORE POP POP JUMP JUMPDEST PUSH1 0x0 PUSH1 0x20 DUP3 ADD SWAP1 POP PUSH2 0x1F1C PUSH1 0x0 DUP4 ADD DUP5 PUSH2 0x1EF8 JUMP JUMPDEST SWAP3 SWAP2 POP POP JUMP JUMPDEST PUSH1 0x0 DUP2 MLOAD SWAP1 POP SWAP2 SWAP1 POP JUMP JUMPDEST PUSH1 0x0 DUP3 DUP3 MSTORE PUSH1 0x20 DUP3 ADD SWAP1 POP SWAP3 SWAP2 POP POP JUMP JUMPDEST PUSH1 0x0 DUP2 SWAP1 POP PUSH1 0x20 DUP3 ADD SWAP1 POP SWAP2 SWAP1 POP JUMP JUMPDEST PUSH1 0x0 DUP2 MLOAD SWAP1 POP SWAP2 SWAP1 POP JUMP JUMPDEST PUSH1 0x0 DUP3 DUP3 MSTORE PUSH1 0x20 DUP3 ADD SWAP1 POP SWAP3 SWAP2 POP POP JUMP JUMPDEST PUSH1 0x0 JUMPDEST DUP4 DUP2 LT ISZERO PUSH2 0x1F88 JUMPI DUP1 DUP3 ADD MLOAD DUP2 DUP5 ADD MSTORE PUSH1 0x20 DUP2 ADD SWAP1 POP PUSH2 0x1F6D JUMP JUMPDEST PUSH1 0x0 DUP5 DUP5 ADD MSTORE POP POP POP POP JUMP JUMPDEST PUSH1 0x0 PUSH1 0x1F NOT PUSH1 0x1F DUP4 ADD AND SWAP1 POP SWAP2 SWAP1 POP JUMP JUMPDEST PUSH1 0x0 PUSH2 0x1FB0 DUP3 PUSH2 0x1F4E JUMP JUMPDEST PUSH2 0x1FBA DUP2 DUP6 PUSH2 0x1F59 JUMP JUMPDEST SWAP4 POP PUSH2 0x1FCA DUP2 DUP6 PUSH1 0x20 DUP7 ADD PUSH2 0x1F6A JUMP JUMPDEST PUSH2 0x1FD3 DUP2 PUSH2 0x1F94 JUMP JUMPDEST DUP5 ADD SWAP2 POP POP SWAP3 SWAP2 POP POP JUMP JUMPDEST PUSH1 0x0 DUP2 SWAP1 POP SWAP2 SWAP1 POP JUMP JUMPDEST PUSH2 0x1FF1 DUP2 PUSH2 0x1FDE JUMP JUMPDEST DUP3 MSTORE POP POP JUMP JUMPDEST PUSH1 0x0 PUSH20 0xFFFFFFFFFFFFFFFFFFFFFFFFFFFFFFFFFFFFFFFF DUP3 AND SWAP1 POP SWAP2 SWAP1 POP JUMP JUMPDEST PUSH1 0x0 PUSH2 0x2022 DUP3 PUSH2 0x1FF7 JUMP JUMPDEST SWAP1 POP SWAP2 SWAP1 POP JUMP JUMPDEST PUSH2 0x2032 DUP2 PUSH2 0x2017 JUMP JUMPDEST DUP3 MSTORE POP POP JUMP JUMPDEST PUSH1 0x0 PUSH1 0xC0 DUP4 ADD PUSH1 0x0 DUP4 ADD MLOAD DUP5 DUP3 SUB PUSH1 0x0 DUP7 ADD MSTORE PUSH2 0x2055 DUP3 DUP3 PUSH2 0x1FA5 JUMP JUMPDEST SWAP2 POP POP PUSH1 0x20 DUP4 ADD MLOAD DUP5 DUP3 SUB PUSH1 0x20 DUP7 ADD MSTORE PUSH2 0x206F DUP3 DUP3 PUSH2 0x1FA5 JUMP JUMPDEST SWAP2 POP POP PUSH1 0x40 DUP4 ADD MLOAD PUSH2 0x2084 PUSH1 0x40 DUP7 ADD DUP3 PUSH2 0x1FE8 JUMP JUMPDEST POP PUSH1 0x60 DUP4 ADD MLOAD PUSH2 0x2097 PUSH1 0x60 DUP7 ADD DUP3 PUSH2 0x1FE8 JUMP JUMPDEST POP PUSH1 0x80 DUP4 ADD MLOAD PUSH2 0x20AA PUSH1 0x80 DUP7 ADD DUP3 PUSH2 0x2029 JUMP JUMPDEST POP PUSH1 0xA0 DUP4 ADD MLOAD PUSH2 0x20BD PUSH1 0xA0 DUP7 ADD DUP3 PUSH2 0x1FE8 JUMP JUMPDEST POP DUP1 SWAP2 POP POP SWAP3 SWAP2 POP POP JUMP JUMPDEST PUSH1 0x0 PUSH1 0x60 DUP4 ADD PUSH1 0x0 DUP4 ADD MLOAD DUP5 DUP3 SUB PUSH1 0x0 DUP7 ADD MSTORE PUSH2 0x20E5 DUP3 DUP3 PUSH2 0x1FA5 JUMP JUMPDEST SWAP2 POP POP PUSH1 0x20 DUP4 ADD MLOAD PUSH2 0x20FA PUSH1 0x20 DUP7 ADD DUP3 PUSH2 0x1FE8 JUMP JUMPDEST POP PUSH1 0x40 DUP4 ADD MLOAD DUP5 DUP3 SUB PUSH1 0x40 DUP7 ADD MSTORE PUSH2 0x2112 DUP3 DUP3 PUSH2 0x2038 JUMP JUMPDEST SWAP2 POP POP DUP1 SWAP2 POP POP SWAP3 SWAP2 POP POP JUMP JUMPDEST PUSH1 0x0 PUSH2 0x212B DUP4 DUP4 PUSH2 0x20C8 JUMP JUMPDEST SWAP1 POP SWAP3 SWAP2 POP POP JUMP JUMPDEST PUSH1 0x0 PUSH1 0x20 DUP3 ADD SWAP1 POP SWAP2 SWAP1 POP JUMP JUMPDEST PUSH1 0x0 PUSH2 0x214B DUP3 PUSH2 0x1F22 JUMP JUMPDEST PUSH2 0x2155 DUP2 DUP6 PUSH2 0x1F2D JUMP JUMPDEST SWAP4 POP DUP4 PUSH1 0x20 DUP3 MUL DUP6 ADD PUSH2 0x2167 DUP6 PUSH2 0x1F3E JUMP JUMPDEST DUP1 PUSH1 0x0 JUMPDEST DUP6 DUP2 LT ISZERO PUSH2 0x21A3 JUMPI DUP5 DUP5 SUB DUP10 MSTORE DUP2 MLOAD PUSH2 0x2184 DUP6 DUP3 PUSH2 0x211F JUMP JUMPDEST SWAP5 POP PUSH2 0x218F DUP4 PUSH2 0x2133 JUMP JUMPDEST SWAP3 POP PUSH1 0x20 DUP11 ADD SWAP10 POP POP PUSH1 0x1 DUP2 ADD SWAP1 POP PUSH2 0x216B JUMP JUMPDEST POP DUP3 SWAP8 POP DUP8 SWAP6 POP POP POP POP POP POP SWAP3 SWAP2 POP POP JUMP JUMPDEST PUSH1 0x0 PUSH1 0x20 DUP3 ADD SWAP1 POP DUP2 DUP2 SUB PUSH1 0x0 DUP4 ADD MSTORE PUSH2 0x21CF DUP2 DUP5 PUSH2 0x2140 JUMP JUMPDEST SWAP1 POP SWAP3 SWAP2 POP POP JUMP JUMPDEST PUSH1 0x0 PUSH1 0x40 MLOAD SWAP1 POP SWAP1 JUMP JUMPDEST PUSH1 0x0 DUP1 REVERT JUMPDEST PUSH1 0x0 DUP1 REVERT JUMPDEST PUSH2 0x21F4 DUP2 PUSH2 0x1FDE JUMP JUMPDEST DUP2 EQ PUSH2 0x21FF JUMPI PUSH1 0x0 DUP1 REVERT JUMPDEST POP JUMP JUMPDEST PUSH1 0x0 DUP2 CALLDATALOAD SWAP1 POP PUSH2 0x2211 DUP2 PUSH2 0x21EB JUMP JUMPDEST SWAP3 SWAP2 POP POP JUMP JUMPDEST PUSH1 0x0 PUSH1 0x20 DUP3 DUP5 SUB SLT ISZERO PUSH2 0x222D JUMPI PUSH2 0x222C PUSH2 0x21E1 JUMP JUMPDEST JUMPDEST PUSH1 0x0 PUSH2 0x223B DUP5 DUP3 DUP6 ADD PUSH2 0x2202 JUMP JUMPDEST SWAP2 POP POP SWAP3 SWAP2 POP POP JUMP JUMPDEST PUSH1 0x0 DUP3 DUP3 MSTORE PUSH1 0x20 DUP3 ADD SWAP1 POP SWAP3 SWAP2 POP POP JUMP JUMPDEST PUSH1 0x0 PUSH2 0x2260 DUP3 PUSH2 0x1F4E JUMP JUMPDEST PUSH2 0x226A DUP2 DUP6 PUSH2 0x2244 JUMP JUMPDEST SWAP4 POP PUSH2 0x227A DUP2 DUP6 PUSH1 0x20 DUP7 ADD PUSH2 0x1F6A JUMP JUMPDEST PUSH2 0x2283 DUP2 PUSH2 0x1F94 JUMP JUMPDEST DUP5 ADD SWAP2 POP POP SWAP3 SWAP2 POP POP JUMP JUMPDEST PUSH2 0x2297 DUP2 PUSH2 0x1FDE JUMP JUMPDEST DUP3 MSTORE POP POP JUMP JUMPDEST PUSH2 0x22A6 DUP2 PUSH2 0x2017 JUMP JUMPDEST DUP3 MSTORE POP POP JUMP JUMPDEST PUSH1 0x0 PUSH1 0xC0 DUP3 ADD SWAP1 POP DUP2 DUP2 SUB PUSH1 0x0 DUP4 ADD MSTORE PUSH2 0x22C6 DUP2 DUP10 PUSH2 0x2255 JUMP JUMPDEST SWAP1 POP DUP2 DUP2 SUB PUSH1 0x20 DUP4 ADD MSTORE PUSH2 0x22DA DUP2 DUP9 PUSH2 0x2255 JUMP JUMPDEST SWAP1 POP PUSH2 0x22E9 PUSH1 0x40 DUP4 ADD DUP8 PUSH2 0x228E JUMP JUMPDEST PUSH2 0x22F6 PUSH1 0x60 DUP4 ADD DUP7 PUSH2 0x228E JUMP JUMPDEST PUSH2 0x2303 PUSH1 0x80 DUP4 ADD DUP6 PUSH2 0x229D JUMP JUMPDEST PUSH2 0x2310 PUSH1 0xA0 DUP4 ADD DUP5 PUSH2 0x228E JUMP JUMPDEST SWAP8 SWAP7 POP POP POP POP POP POP POP JUMP JUMPDEST PUSH1 0x0 DUP1 REVERT JUMPDEST PUSH1 0x0 DUP1 REVERT JUMPDEST PUSH32 0x4E487B7100000000000000000000000000000000000000000000000000000000 PUSH1 0x0 MSTORE PUSH1 0x41 PUSH1 0x4 MSTORE PUSH1 0x24 PUSH1 0x0 REVERT JUMPDEST PUSH2 0x235D DUP3 PUSH2 0x1F94 JUMP JUMPDEST DUP2 ADD DUP2 DUP2 LT PUSH8 0xFFFFFFFFFFFFFFFF DUP3 GT OR ISZERO PUSH2 0x237C JUMPI PUSH2 0x237B PUSH2 0x2325 JUMP JUMPDEST JUMPDEST DUP1 PUSH1 0x40 MSTORE POP POP POP JUMP JUMPDEST PUSH1 0x0 PUSH2 0x238F PUSH2 0x21D7 JUMP JUMPDEST SWAP1 POP PUSH2 0x239B DUP3 DUP3 PUSH2 0x2354 JUMP JUMPDEST SWAP2 SWAP1 POP JUMP JUMPDEST PUSH1 0x0 PUSH8 0xFFFFFFFFFFFFFFFF DUP3 GT ISZERO PUSH2 0x23BB JUMPI PUSH2 0x23BA PUSH2 0x2325 JUMP JUMPDEST JUMPDEST PUSH2 0x23C4 DUP3 PUSH2 0x1F94 JUMP JUMPDEST SWAP1 POP PUSH1 0x20 DUP2 ADD SWAP1 POP SWAP2 SWAP1 POP JUMP JUMPDEST DUP3 DUP2 DUP4 CALLDATACOPY PUSH1 0x0 DUP4 DUP4 ADD MSTORE POP POP POP JUMP JUMPDEST PUSH1 0x0 PUSH2 0x23F3 PUSH2 0x23EE DUP5 PUSH2 0x23A0 JUMP JUMPDEST PUSH2 0x2385 JUMP JUMPDEST SWAP1 POP DUP3 DUP2 MSTORE PUSH1 0x20 DUP2 ADD DUP5 DUP5 DUP5 ADD GT ISZERO PUSH2 0x240F JUMPI PUSH2 0x240E PUSH2 0x2320 JUMP JUMPDEST JUMPDEST PUSH2 0x241A DUP5 DUP3 DUP6 PUSH2 0x23D1 JUMP JUMPDEST POP SWAP4 SWAP3 POP POP POP JUMP JUMPDEST PUSH1 0x0 DUP3 PUSH1 0x1F DUP4 ADD SLT PUSH2 0x2437 JUMPI PUSH2 0x2436 PUSH2 0x231B JUMP JUMPDEST JUMPDEST DUP2 CALLDATALOAD PUSH2 0x2447 DUP5 DUP3 PUSH1 0x20 DUP7 ADD PUSH2 0x23E0 JUMP JUMPDEST SWAP2 POP POP SWAP3 SWAP2 POP POP JUMP JUMPDEST PUSH1 0x0 DUP1 PUSH1 0x0 PUSH1 0x60 DUP5 DUP7 SUB SLT ISZERO PUSH2 0x2469 JUMPI PUSH2 0x2468 PUSH2 0x21E1 JUMP JUMPDEST JUMPDEST PUSH1 0x0 DUP5 ADD CALLDATALOAD PUSH8 0xFFFFFFFFFFFFFFFF DUP2 GT ISZERO PUSH2 0x2487 JUMPI PUSH2 0x2486 PUSH2 0x21E6 JUMP JUMPDEST JUMPDEST PUSH2 0x2493 DUP7 DUP3 DUP8 ADD PUSH2 0x2422 JUMP JUMPDEST SWAP4 POP POP PUSH1 0x20 DUP5 ADD CALLDATALOAD PUSH8 0xFFFFFFFFFFFFFFFF DUP2 GT ISZERO PUSH2 0x24B4 JUMPI PUSH2 0x24B3 PUSH2 0x21E6 JUMP JUMPDEST JUMPDEST PUSH2 0x24C0 DUP7 DUP3 DUP8 ADD PUSH2 0x2422 JUMP JUMPDEST SWAP3 POP POP PUSH1 0x40 PUSH2 0x24D1 DUP7 DUP3 DUP8 ADD PUSH2 0x2202 JUMP JUMPDEST SWAP2 POP POP SWAP3 POP SWAP3 POP SWAP3 JUMP JUMPDEST PUSH2 0x24E4 DUP2 PUSH2 0x2017 JUMP JUMPDEST DUP2 EQ PUSH2 0x24EF JUMPI PUSH1 0x0 DUP1 REVERT JUMPDEST POP JUMP JUMPDEST PUSH1 0x0 DUP2 CALLDATALOAD SWAP1 POP PUSH2 0x2501 DUP2 PUSH2 0x24DB JUMP JUMPDEST SWAP3 SWAP2 POP POP JUMP JUMPDEST PUSH1 0x0 PUSH1 0x20 DUP3 DUP5 SUB SLT ISZERO PUSH2 0x251D JUMPI PUSH2 0x251C PUSH2 0x21E1 JUMP JUMPDEST JUMPDEST PUSH1 0x0 PUSH2 0x252B DUP5 DUP3 DUP6 ADD PUSH2 0x24F2 JUMP JUMPDEST SWAP2 POP POP SWAP3 SWAP2 POP POP JUMP JUMPDEST PUSH1 0x0 DUP2 ISZERO ISZERO SWAP1 POP SWAP2 SWAP1 POP JUMP JUMPDEST PUSH2 0x2549 DUP2 PUSH2 0x2534 JUMP JUMPDEST DUP3 MSTORE POP POP JUMP JUMPDEST PUSH1 0x0 PUSH1 0xC0 DUP4 ADD PUSH1 0x0 DUP4 ADD MLOAD DUP5 DUP3 SUB PUSH1 0x0 DUP7 ADD MSTORE PUSH2 0x256C DUP3 DUP3 PUSH2 0x1FA5 JUMP JUMPDEST SWAP2 POP POP PUSH1 0x20 DUP4 ADD MLOAD DUP5 DUP3 SUB PUSH1 0x20 DUP7 ADD MSTORE PUSH2 0x2586 DUP3 DUP3 PUSH2 0x1FA5 JUMP JUMPDEST SWAP2 POP POP PUSH1 0x40 DUP4 ADD MLOAD PUSH2 0x259B PUSH1 0x40 DUP7 ADD DUP3 PUSH2 0x1FE8 JUMP JUMPDEST POP PUSH1 0x60 DUP4 ADD MLOAD PUSH2 0x25AE PUSH1 0x60 DUP7 ADD DUP3 PUSH2 0x1FE8 JUMP JUMPDEST POP PUSH1 0x80 DUP4 ADD MLOAD PUSH2 0x25C1 PUSH1 0x80 DUP7 ADD DUP3 PUSH2 0x2540 JUMP JUMPDEST POP PUSH1 0xA0 DUP4 ADD MLOAD PUSH2 0x25D4 PUSH1 0xA0 DUP7 ADD DUP3 PUSH2 0x2029 JUMP JUMPDEST POP DUP1 SWAP2 POP POP SWAP3 SWAP2 POP POP JUMP JUMPDEST PUSH1 0x0 PUSH1 0x20 DUP3 ADD SWAP1 POP DUP2 DUP2 SUB PUSH1 0x0 DUP4 ADD MSTORE PUSH2 0x25F9 DUP2 DUP5 PUSH2 0x254F JUMP JUMPDEST SWAP1 POP SWAP3 SWAP2 POP POP JUMP JUMPDEST PUSH1 0x0 PUSH1 0x20 DUP3 ADD SWAP1 POP PUSH2 0x2616 PUSH1 0x0 DUP4 ADD DUP5 PUSH2 0x229D JUMP JUMPDEST SWAP3 SWAP2 POP POP JUMP JUMPDEST PUSH1 0x0 PUSH1 0xC0 DUP4 ADD PUSH1 0x0 DUP4 ADD MLOAD DUP5 DUP3 SUB PUSH1 0x0 DUP7 ADD MSTORE PUSH2 0x2639 DUP3 DUP3 PUSH2 0x1FA5 JUMP JUMPDEST SWAP2 POP POP PUSH1 0x20 DUP4 ADD MLOAD DUP5 DUP3 SUB PUSH1 0x20 DUP7 ADD MSTORE PUSH2 0x2653 DUP3 DUP3 PUSH2 0x1FA5 JUMP JUMPDEST SWAP2 POP POP PUSH1 0x40 DUP4 ADD MLOAD PUSH2 0x2668 PUSH1 0x40 DUP7 ADD DUP3 PUSH2 0x1FE8 JUMP JUMPDEST POP PUSH1 0x60 DUP4 ADD MLOAD PUSH2 0x267B PUSH1 0x60 DUP7 ADD DUP3 PUSH2 0x1FE8 JUMP JUMPDEST POP PUSH1 0x80 DUP4 ADD MLOAD PUSH2 0x268E PUSH1 0x80 DUP7 ADD DUP3 PUSH2 0x2029 JUMP JUMPDEST POP PUSH1 0xA0 DUP4 ADD MLOAD PUSH2 0x26A1 PUSH1 0xA0 DUP7 ADD DUP3 PUSH2 0x1FE8 JUMP JUMPDEST POP DUP1 SWAP2 POP POP SWAP3 SWAP2 POP POP JUMP JUMPDEST PUSH1 0x0 PUSH1 0x20 DUP3 ADD SWAP1 POP DUP2 DUP2 SUB PUSH1 0x0 DUP4 ADD MSTORE PUSH2 0x26C6 DUP2 DUP5 PUSH2 0x261C JUMP JUMPDEST SWAP1 POP SWAP3 SWAP2 POP POP JUMP JUMPDEST PUSH1 0x0 PUSH1 0x60 DUP3 ADD SWAP1 POP DUP2 DUP2 SUB PUSH1 0x0 DUP4 ADD MSTORE PUSH2 0x26E8 DUP2 DUP7 PUSH2 0x2255 JUMP JUMPDEST SWAP1 POP PUSH2 0x26F7 PUSH1 0x20 DUP4 ADD DUP6 PUSH2 0x228E JUMP JUMPDEST DUP2 DUP2 SUB PUSH1 0x40 DUP4 ADD MSTORE PUSH2 0x2709 DUP2 DUP5 PUSH2 0x261C JUMP JUMPDEST SWAP1 POP SWAP5 SWAP4 POP POP POP POP JUMP JUMPDEST PUSH2 0x271C DUP2 PUSH2 0x2534 JUMP JUMPDEST DUP3 MSTORE POP POP JUMP JUMPDEST PUSH1 0x0 PUSH1 0xC0 DUP3 ADD SWAP1 POP DUP2 DUP2 SUB PUSH1 0x0 DUP4 ADD MSTORE PUSH2 0x273C DUP2 DUP10 PUSH2 0x2255 JUMP JUMPDEST SWAP1 POP DUP2 DUP2 SUB PUSH1 0x20 DUP4 ADD MSTORE PUSH2 0x2750 DUP2 DUP9 PUSH2 0x2255 JUMP JUMPDEST SWAP1 POP PUSH2 0x275F PUSH1 0x40 DUP4 ADD DUP8 PUSH2 0x228E JUMP JUMPDEST PUSH2 0x276C PUSH1 0x60 DUP4 ADD DUP7 PUSH2 0x228E JUMP JUMPDEST PUSH2 0x2779 PUSH1 0x80 DUP4 ADD DUP6 PUSH2 0x2713 JUMP JUMPDEST PUSH2 0x2786 PUSH1 0xA0 DUP4 ADD DUP5 PUSH2 0x229D JUMP JUMPDEST SWAP8 SWAP7 POP POP POP POP POP POP POP JUMP JUMPDEST PUSH32 0x4E487B7100000000000000000000000000000000000000000000000000000000 PUSH1 0x0 MSTORE PUSH1 0x22 PUSH1 0x4 MSTORE PUSH1 0x24 PUSH1 0x0 REVERT JUMPDEST PUSH1 0x0 PUSH1 0x2 DUP3 DIV SWAP1 POP PUSH1 0x1 DUP3 AND DUP1 PUSH2 0x27D8 JUMPI PUSH1 0x7F DUP3 AND SWAP2 POP JUMPDEST PUSH1 0x20 DUP3 LT DUP2 SUB PUSH2 0x27EB JUMPI PUSH2 0x27EA PUSH2 0x2791 JUMP JUMPDEST JUMPDEST POP SWAP2 SWAP1 POP JUMP JUMPDEST PUSH32 0x596F7520617265206E6F7420726567697374657265642E000000000000000000 PUSH1 0x0 DUP3 ADD MSTORE POP JUMP JUMPDEST PUSH1 0x0 PUSH2 0x2827 PUSH1 0x17 DUP4 PUSH2 0x2244 JUMP JUMPDEST SWAP2 POP PUSH2 0x2832 DUP3 PUSH2 0x27F1 JUMP JUMPDEST PUSH1 0x20 DUP3 ADD SWAP1 POP SWAP2 SWAP1 POP JUMP JUMPDEST PUSH1 0x0 PUSH1 0x20 DUP3 ADD SWAP1 POP DUP2 DUP2 SUB PUSH1 0x0 DUP4 ADD MSTORE PUSH2 0x2856 DUP2 PUSH2 0x281A JUMP JUMPDEST SWAP1 POP SWAP2 SWAP1 POP JUMP JUMPDEST PUSH32 0x496E76616C69642063616E6469646174652049442E0000000000000000000000 PUSH1 0x0 DUP3 ADD MSTORE POP JUMP JUMPDEST PUSH1 0x0 PUSH2 0x2893 PUSH1 0x15 DUP4 PUSH2 0x2244 JUMP JUMPDEST SWAP2 POP PUSH2 0x289E DUP3 PUSH2 0x285D JUMP JUMPDEST PUSH1 0x20 DUP3 ADD SWAP1 POP SWAP2 SWAP1 POP JUMP JUMPDEST PUSH1 0x0 PUSH1 0x20 DUP3 ADD SWAP1 POP DUP2 DUP2 SUB PUSH1 0x0 DUP4 ADD MSTORE PUSH2 0x28C2 DUP2 PUSH2 0x2886 JUMP JUMPDEST SWAP1 POP SWAP2 SWAP1 POP JUMP JUMPDEST PUSH32 0x596F752063616E6E6F7420766F746520666F7220612063616E64696461746520 PUSH1 0x0 DUP3 ADD MSTORE PUSH32 0x696E207468697320617265612E00000000000000000000000000000000000000 PUSH1 0x20 DUP3 ADD MSTORE POP JUMP JUMPDEST PUSH1 0x0 PUSH2 0x2925 PUSH1 0x2D DUP4 PUSH2 0x2244 JUMP JUMPDEST SWAP2 POP PUSH2 0x2930 DUP3 PUSH2 0x28C9 JUMP JUMPDEST PUSH1 0x40 DUP3 ADD SWAP1 POP SWAP2 SWAP1 POP JUMP JUMPDEST PUSH1 0x0 PUSH1 0x20 DUP3 ADD SWAP1 POP DUP2 DUP2 SUB PUSH1 0x0 DUP4 ADD MSTORE PUSH2 0x2954 DUP2 PUSH2 0x2918 JUMP JUMPDEST SWAP1 POP SWAP2 SWAP1 POP JUMP JUMPDEST PUSH32 0x596F752063616E6E6F7420766F74652074776963650000000000000000000000 PUSH1 0x0 DUP3 ADD MSTORE POP JUMP JUMPDEST PUSH1 0x0 PUSH2 0x2991 PUSH1 0x15 DUP4 PUSH2 0x2244 JUMP JUMPDEST SWAP2 POP PUSH2 0x299C DUP3 PUSH2 0x295B JUMP JUMPDEST PUSH1 0x20 DUP3 ADD SWAP1 POP SWAP2 SWAP1 POP JUMP JUMPDEST PUSH1 0x0 PUSH1 0x20 DUP3 ADD SWAP1 POP DUP2 DUP2 SUB PUSH1 0x0 DUP4 ADD MSTORE PUSH2 0x29C0 DUP2 PUSH2 0x2984 JUMP JUMPDEST SWAP1 POP SWAP2 SWAP1 POP JUMP JUMPDEST PUSH32 0x4E487B7100000000000000000000000000000000000000000000000000000000 PUSH1 0x0 MSTORE PUSH1 0x11 PUSH1 0x4 MSTORE PUSH1 0x24 PUSH1 0x0 REVERT JUMPDEST PUSH1 0x0 PUSH2 0x2A01 DUP3 PUSH2 0x1FDE JUMP JUMPDEST SWAP2 POP PUSH2 0x2A0C DUP4 PUSH2 0x1FDE JUMP JUMPDEST SWAP3 POP DUP3 DUP3 ADD SWAP1 POP DUP1 DUP3 GT ISZERO PUSH2 0x2A24 JUMPI PUSH2 0x2A23 PUSH2 0x29C7 JUMP JUMPDEST JUMPDEST SWAP3 SWAP2 POP POP JUMP JUMPDEST PUSH1 0x0 PUSH2 0x2A35 DUP3 PUSH2 0x1FDE JUMP JUMPDEST SWAP2 POP PUSH2 0x2A40 DUP4 PUSH2 0x1FDE JUMP JUMPDEST SWAP3 POP DUP3 DUP3 SUB SWAP1 POP DUP2 DUP2 GT ISZERO PUSH2 0x2A58 JUMPI PUSH2 0x2A57 PUSH2 0x29C7 JUMP JUMPDEST JUMPDEST SWAP3 SWAP2 POP POP JUMP JUMPDEST PUSH32 0x4E487B7100000000000000000000000000000000000000000000000000000000 PUSH1 0x0 MSTORE PUSH1 0x32 PUSH1 0x4 MSTORE PUSH1 0x24 PUSH1 0x0 REVERT JUMPDEST PUSH1 0x0 DUP2 SWAP1 POP DUP2 PUSH1 0x0 MSTORE PUSH1 0x20 PUSH1 0x0 KECCAK256 SWAP1 POP SWAP2 SWAP1 POP JUMP JUMPDEST PUSH1 0x0 PUSH1 0x20 PUSH1 0x1F DUP4 ADD DIV SWAP1 POP SWAP2 SWAP1 POP JUMP JUMPDEST PUSH1 0x0 DUP3 DUP3 SHL SWAP1 POP SWAP3 SWAP2 POP POP JUMP JUMPDEST PUSH1 0x0 PUSH1 0x8 DUP4 MUL PUSH2 0x2AEF PUSH32 0xFFFFFFFFFFFFFFFFFFFFFFFFFFFFFFFFFFFFFFFFFFFFFFFFFFFFFFFFFFFFFFFF DUP3 PUSH2 0x2AB2 JUMP JUMPDEST PUSH2 0x2AF9 DUP7 DUP4 PUSH2 0x2AB2 JUMP JUMPDEST SWAP6 POP DUP1 NOT DUP5 AND SWAP4 POP DUP1 DUP7 AND DUP5 OR SWAP3 POP POP POP SWAP4 SWAP3 POP POP POP JUMP JUMPDEST PUSH1 0x0 DUP2 SWAP1 POP SWAP2 SWAP1 POP JUMP JUMPDEST PUSH1 0x0 PUSH2 0x2B36 PUSH2 0x2B31 PUSH2 0x2B2C DUP5 PUSH2 0x1FDE JUMP JUMPDEST PUSH2 0x2B11 JUMP JUMPDEST PUSH2 0x1FDE JUMP JUMPDEST SWAP1 POP SWAP2 SWAP1 POP JUMP JUMPDEST PUSH1 0x0 DUP2 SWAP1 POP SWAP2 SWAP1 POP JUMP JUMPDEST PUSH2 0x2B50 DUP4 PUSH2 0x2B1B JUMP JUMPDEST PUSH2 0x2B64 PUSH2 0x2B5C DUP3 PUSH2 0x2B3D JUMP JUMPDEST DUP5 DUP5 SLOAD PUSH2 0x2ABF JUMP JUMPDEST DUP3 SSTORE POP POP POP POP JUMP JUMPDEST PUSH1 0x0 SWAP1 JUMP JUMPDEST PUSH2 0x2B79 PUSH2 0x2B6C JUMP JUMPDEST PUSH2 0x2B84 DUP2 DUP5 DUP5 PUSH2 0x2B47 JUMP JUMPDEST POP POP POP JUMP JUMPDEST JUMPDEST DUP2 DUP2 LT ISZERO PUSH2 0x2BA8 JUMPI PUSH2 0x2B9D PUSH1 0x0 DUP3 PUSH2 0x2B71 JUMP JUMPDEST PUSH1 0x1 DUP2 ADD SWAP1 POP PUSH2 0x2B8A JUMP JUMPDEST POP POP JUMP JUMPDEST PUSH1 0x1F DUP3 GT ISZERO PUSH2 0x2BED JUMPI PUSH2 0x2BBE DUP2 PUSH2 0x2A8D JUMP JUMPDEST PUSH2 0x2BC7 DUP5 PUSH2 0x2AA2 JUMP JUMPDEST DUP2 ADD PUSH1 0x20 DUP6 LT ISZERO PUSH2 0x2BD6 JUMPI DUP2 SWAP1 POP JUMPDEST PUSH2 0x2BEA PUSH2 0x2BE2 DUP6 PUSH2 0x2AA2 JUMP JUMPDEST DUP4 ADD DUP3 PUSH2 0x2B89 JUMP JUMPDEST POP POP JUMPDEST POP POP POP JUMP JUMPDEST PUSH1 0x0 DUP3 DUP3 SHR SWAP1 POP SWAP3 SWAP2 POP POP JUMP JUMPDEST PUSH1 0x0 PUSH2 0x2C10 PUSH1 0x0 NOT DUP5 PUSH1 0x8 MUL PUSH2 0x2BF2 JUMP JUMPDEST NOT DUP1 DUP4 AND SWAP2 POP POP SWAP3 SWAP2 POP POP JUMP JUMPDEST PUSH1 0x0 PUSH2 0x2C29 DUP4 DUP4 PUSH2 0x2BFF JUMP JUMPDEST SWAP2 POP DUP3 PUSH1 0x2 MUL DUP3 OR SWAP1 POP SWAP3 SWAP2 POP POP JUMP JUMPDEST PUSH2 0x2C42 DUP3 PUSH2 0x1F4E JUMP JUMPDEST PUSH8 0xFFFFFFFFFFFFFFFF DUP2 GT ISZERO PUSH2 0x2C5B JUMPI PUSH2 0x2C5A PUSH2 0x2325 JUMP JUMPDEST JUMPDEST PUSH2 0x2C65 DUP3 SLOAD PUSH2 0x27C0 JUMP JUMPDEST PUSH2 0x2C70 DUP3 DUP3 DUP6 PUSH2 0x2BAC JUMP JUMPDEST PUSH1 0x0 PUSH1 0x20 SWAP1 POP PUSH1 0x1F DUP4 GT PUSH1 0x1 DUP2 EQ PUSH2 0x2CA3 JUMPI PUSH1 0x0 DUP5 ISZERO PUSH2 0x2C91 JUMPI DUP3 DUP8 ADD MLOAD SWAP1 POP JUMPDEST PUSH2 0x2C9B DUP6 DUP3 PUSH2 0x2C1D JUMP JUMPDEST DUP7 SSTORE POP PUSH2 0x2D03 JUMP JUMPDEST PUSH1 0x1F NOT DUP5 AND PUSH2 0x2CB1 DUP7 PUSH2 0x2A8D JUMP JUMPDEST PUSH1 0x0 JUMPDEST DUP3 DUP2 LT ISZERO PUSH2 0x2CD9 JUMPI DUP5 DUP10 ADD MLOAD DUP3 SSTORE PUSH1 0x1 DUP3 ADD SWAP2 POP PUSH1 0x20 DUP6 ADD SWAP5 POP PUSH1 0x20 DUP2 ADD SWAP1 POP PUSH2 0x2CB4 JUMP JUMPDEST DUP7 DUP4 LT ISZERO PUSH2 0x2CF6 JUMPI DUP5 DUP10 ADD MLOAD PUSH2 0x2CF2 PUSH1 0x1F DUP10 AND DUP3 PUSH2 0x2BFF JUMP JUMPDEST DUP4 SSTORE POP JUMPDEST PUSH1 0x1 PUSH1 0x2 DUP9 MUL ADD DUP9 SSTORE POP POP POP JUMPDEST POP POP POP POP POP POP JUMP JUMPDEST PUSH1 0x0 DUP2 PUSH1 0x60 SHL SWAP1 POP SWAP2 SWAP1 POP JUMP JUMPDEST PUSH1 0x0 PUSH2 0x2D23 DUP3 PUSH2 0x2D0B JUMP JUMPDEST SWAP1 POP SWAP2 SWAP1 POP JUMP JUMPDEST PUSH1 0x0 PUSH2 0x2D35 DUP3 PUSH2 0x2D18 JUMP JUMPDEST SWAP1 POP SWAP2 SWAP1 POP JUMP JUMPDEST PUSH2 0x2D4D PUSH2 0x2D48 DUP3 PUSH2 0x2017 JUMP JUMPDEST PUSH2 0x2D2A JUMP JUMPDEST DUP3 MSTORE POP POP JUMP JUMPDEST PUSH1 0x0 PUSH2 0x2D5F DUP3 DUP5 PUSH2 0x2D3C JUMP JUMPDEST PUSH1 0x14 DUP3 ADD SWAP2 POP DUP2 SWAP1 POP SWAP3 SWAP2 POP POP JUMP JUMPDEST PUSH32 0x43616E64696461746520616C7265616479206578697374730000000000000000 PUSH1 0x0 DUP3 ADD MSTORE POP JUMP JUMPDEST PUSH1 0x0 PUSH2 0x2DA4 PUSH1 0x18 DUP4 PUSH2 0x2244 JUMP JUMPDEST SWAP2 POP PUSH2 0x2DAF DUP3 PUSH2 0x2D6E JUMP JUMPDEST PUSH1 0x20 DUP3 ADD SWAP1 POP SWAP2 SWAP1 POP JUMP JUMPDEST PUSH1 0x0 PUSH1 0x20 DUP3 ADD SWAP1 POP DUP2 DUP2 SUB PUSH1 0x0 DUP4 ADD MSTORE PUSH2 0x2DD3 DUP2 PUSH2 0x2D97 JUMP JUMPDEST SWAP1 POP SWAP2 SWAP1 POP JUMP JUMPDEST PUSH1 0x0 PUSH2 0x2DE5 DUP3 PUSH2 0x1FDE JUMP JUMPDEST SWAP2 POP PUSH32 0xFFFFFFFFFFFFFFFFFFFFFFFFFFFFFFFFFFFFFFFFFFFFFFFFFFFFFFFFFFFFFFFF DUP3 SUB PUSH2 0x2E17 JUMPI PUSH2 0x2E16 PUSH2 0x29C7 JUMP JUMPDEST JUMPDEST PUSH1 0x1 DUP3 ADD SWAP1 POP SWAP2 SWAP1 POP JUMP JUMPDEST PUSH32 0x566F746572204E6F7420466F756E640000000000000000000000000000000000 PUSH1 0x0 DUP3 ADD MSTORE POP JUMP JUMPDEST PUSH1 0x0 PUSH2 0x2E58 PUSH1 0xF DUP4 PUSH2 0x2244 JUMP JUMPDEST SWAP2 POP PUSH2 0x2E63 DUP3 PUSH2 0x2E22 JUMP JUMPDEST PUSH1 0x20 DUP3 ADD SWAP1 POP SWAP2 SWAP1 POP JUMP JUMPDEST PUSH1 0x0 PUSH1 0x20 DUP3 ADD SWAP1 POP DUP2 DUP2 SUB PUSH1 0x0 DUP4 ADD MSTORE PUSH2 0x2E87 DUP2 PUSH2 0x2E4B JUMP JUMPDEST SWAP1 POP SWAP2 SWAP1 POP JUMP JUMPDEST PUSH32 0x43616E646964617465204E6F7420466F756E6400000000000000000000000000 PUSH1 0x0 DUP3 ADD MSTORE POP JUMP JUMPDEST PUSH1 0x0 PUSH2 0x2EC4 PUSH1 0x13 DUP4 PUSH2 0x2244 JUMP JUMPDEST SWAP2 POP PUSH2 0x2ECF DUP3 PUSH2 0x2E8E JUMP JUMPDEST PUSH1 0x20 DUP3 ADD SWAP1 POP SWAP2 SWAP1 POP JUMP JUMPDEST PUSH1 0x0 PUSH1 0x20 DUP3 ADD SWAP1 POP DUP2 DUP2 SUB PUSH1 0x0 DUP4 ADD MSTORE PUSH2 0x2EF3 DUP2 PUSH2 0x2EB7 JUMP JUMPDEST SWAP1 POP SWAP2 SWAP1 POP JUMP JUMPDEST PUSH1 0x0 DUP2 SLOAD PUSH2 0x2F07 DUP2 PUSH2 0x27C0 JUMP JUMPDEST PUSH2 0x2F11 DUP2 DUP7 PUSH2 0x1F59 JUMP JUMPDEST SWAP5 POP PUSH1 0x1 DUP3 AND PUSH1 0x0 DUP2 EQ PUSH2 0x2F2C JUMPI PUSH1 0x1 DUP2 EQ PUSH2 0x2F42 JUMPI PUSH2 0x2F75 JUMP JUMPDEST PUSH1 0xFF NOT DUP4 AND DUP7 MSTORE DUP2 ISZERO ISZERO PUSH1 0x20 MUL DUP7 ADD SWAP4 POP PUSH2 0x2F75 JUMP JUMPDEST PUSH2 0x2F4B DUP6 PUSH2 0x2A8D JUMP JUMPDEST PUSH1 0x0 JUMPDEST DUP4 DUP2 LT ISZERO PUSH2 0x2F6D JUMPI DUP2 SLOAD DUP2 DUP10 ADD MSTORE PUSH1 0x1 DUP3 ADD SWAP2 POP PUSH1 0x20 DUP2 ADD SWAP1 POP PUSH2 0x2F4E JUMP JUMPDEST DUP1 DUP9 ADD SWAP6 POP POP POP JUMPDEST POP POP POP SWAP3 SWAP2 POP POP JUMP JUMPDEST PUSH1 0x0 DUP2 PUSH1 0x0 SHR SWAP1 POP SWAP2 SWAP1 POP JUMP JUMPDEST PUSH1 0x0 DUP2 SWAP1 POP SWAP2 SWAP1 POP JUMP JUMPDEST PUSH1 0x0 PUSH2 0x2FA8 PUSH2 0x2FA3 DUP4 PUSH2 0x2F7E JUMP JUMPDEST PUSH2 0x2F8B JUMP JUMPDEST SWAP1 POP SWAP2 SWAP1 POP JUMP JUMPDEST PUSH1 0x0 PUSH20 0xFFFFFFFFFFFFFFFFFFFFFFFFFFFFFFFFFFFFFFFF DUP3 AND SWAP1 POP SWAP2 SWAP1 POP JUMP JUMPDEST PUSH1 0x0 PUSH2 0x2FE2 PUSH2 0x2FDD DUP4 PUSH2 0x2F7E JUMP JUMPDEST PUSH2 0x2FAF JUMP JUMPDEST SWAP1 POP SWAP2 SWAP1 POP JUMP JUMPDEST PUSH1 0x0 PUSH1 0xC0 DUP4 ADD PUSH1 0x0 DUP1 DUP5 ADD DUP6 DUP4 SUB PUSH1 0x0 DUP8 ADD MSTORE PUSH2 0x3006 DUP4 DUP3 PUSH2 0x2EFA JUMP JUMPDEST SWAP3 POP POP PUSH1 0x1 DUP5 ADD DUP6 DUP4 SUB PUSH1 0x20 DUP8 ADD MSTORE PUSH2 0x301F DUP4 DUP3 PUSH2 0x2EFA JUMP JUMPDEST SWAP3 POP POP PUSH1 0x2 DUP5 ADD SLOAD SWAP1 POP PUSH2 0x3032 DUP2 PUSH2 0x2F95 JUMP JUMPDEST PUSH2 0x303F PUSH1 0x40 DUP8 ADD DUP3 PUSH2 0x1FE8 JUMP JUMPDEST POP PUSH1 0x3 DUP5 ADD SLOAD SWAP1 POP PUSH2 0x3050 DUP2 PUSH2 0x2F95 JUMP JUMPDEST PUSH2 0x305D PUSH1 0x60 DUP8 ADD DUP3 PUSH2 0x1FE8 JUMP JUMPDEST POP PUSH1 0x4 DUP5 ADD SLOAD SWAP1 POP PUSH2 0x306E DUP2 PUSH2 0x2FCF JUMP JUMPDEST PUSH2 0x307B PUSH1 0x80 DUP8 ADD DUP3 PUSH2 0x2029 JUMP JUMPDEST POP PUSH1 0x5 DUP5 ADD SLOAD SWAP1 POP PUSH2 0x308C DUP2 PUSH2 0x2F95 JUMP JUMPDEST PUSH2 0x3099 PUSH1 0xA0 DUP8 ADD DUP3 PUSH2 0x1FE8 JUMP JUMPDEST POP DUP2 SWAP3 POP POP POP SWAP3 SWAP2 POP POP JUMP JUMPDEST PUSH1 0x0 PUSH1 0x60 DUP4 ADD PUSH1 0x0 DUP1 DUP5 ADD DUP6 DUP4 SUB PUSH1 0x0 DUP8 ADD MSTORE PUSH2 0x30C2 DUP4 DUP3 PUSH2 0x2EFA JUMP JUMPDEST SWAP3 POP POP PUSH1 0x1 DUP5 ADD SLOAD SWAP1 POP PUSH2 0x30D5 DUP2 PUSH2 0x2F95 JUMP JUMPDEST PUSH2 0x30E2 PUSH1 0x20 DUP8 ADD DUP3 PUSH2 0x1FE8 JUMP JUMPDEST POP PUSH1 0x2 DUP5 ADD DUP6 DUP4 SUB PUSH1 0x40 DUP8 ADD MSTORE PUSH2 0x30F9 DUP4 DUP3 PUSH2 0x2FE9 JUMP JUMPDEST SWAP3 POP POP DUP2 SWAP3 POP POP POP SWAP3 SWAP2 POP POP JUMP JUMPDEST PUSH1 0x0 PUSH1 0x40 DUP3 ADD SWAP1 POP DUP2 DUP2 SUB PUSH1 0x0 DUP4 ADD MSTORE PUSH2 0x3121 DUP2 DUP6 PUSH2 0x261C JUMP JUMPDEST SWAP1 POP DUP2 DUP2 SUB PUSH1 0x20 DUP4 ADD MSTORE PUSH2 0x3135 DUP2 DUP5 PUSH2 0x30A5 JUMP JUMPDEST SWAP1 POP SWAP4 SWAP3 POP POP POP JUMP JUMPDEST PUSH32 0x566F74657220616C726561647920657869737473000000000000000000000000 PUSH1 0x0 DUP3 ADD MSTORE POP JUMP JUMPDEST PUSH1 0x0 PUSH2 0x3174 PUSH1 0x14 DUP4 PUSH2 0x2244 JUMP JUMPDEST SWAP2 POP PUSH2 0x317F DUP3 PUSH2 0x313E JUMP JUMPDEST PUSH1 0x20 DUP3 ADD SWAP1 POP SWAP2 SWAP1 POP JUMP JUMPDEST PUSH1 0x0 PUSH1 0x20 DUP3 ADD SWAP1 POP DUP2 DUP2 SUB PUSH1 0x0 DUP4 ADD MSTORE PUSH2 0x31A3 DUP2 PUSH2 0x3167 JUMP JUMPDEST SWAP1 POP SWAP2 SWAP1 POP JUMP INVALID LOG2 PUSH5 0x6970667358 0x22 SLT KECCAK256 0xD PUSH14 0x208B70A3C6E2C087D52AB580ED3D 0xE7 JUMPDEST JUMPDEST 0x2E 0xEF 0xCE 0xB2 DUP4 PUSH22 0xA3F1BDD26AC9CD64736F6C6343000813003300000000 "},"methodIdentifiers":{"addCandidate(string,string,uint256)":"3ca09fdf","advancePhase()":"be25a718","areas(uint256)":"9b2c6125","candidates(uint256)":"3477ee2e","currentPhase()":"055ad42e","declareAreaWinners()":"9277bbea","electionManager()":"7da32949","getAreas()":"2ea3981a","getCandidateByID(uint256)":"82202396","getCurrentPhase()":"a3a40ea5","getElectionManager()":"bf77b8bf","getVoterByAddress(address)":"4bdd7585","registerVoter(string,string,uint256)":"ae17a82a","voteForCandidate(uint256)":"36c8c5ee","voters(address)":"a3ec138d"}}}}}