{
  "_format": "hh-sol-artifact-1",
  "contractName": "Election",
  "sourceName": "contracts/Election.sol",
  "abi": [
    {
      "inputs": [
        {
          "internalType": "string[]",
          "name": "_areas",
          "type": "string[]"
        }
      ],
      "stateMutability": "nonpayable",
      "type": "constructor"
    },
    {
      "anonymous": false,
      "inputs": [
        {
          "indexed": false,
          "internalType": "enum Election.Phase",
          "name": "phase",
          "type": "uint8"
        }
      ],
      "name": "PhaseAdvanced",
      "type": "event"
    },
    {
      "anonymous": false,
      "inputs": [
        {
          "components": [
            {
              "internalType": "string",
              "name": "forename",
              "type": "string"
            },
            {
              "internalType": "string",
              "name": "surname",
              "type": "string"
            },
            {
              "internalType": "uint256",
              "name": "areaID",
              "type": "uint256"
            },
            {
              "internalType": "uint256",
              "name": "uid",
              "type": "uint256"
            },
            {
              "internalType": "address",
              "name": "user",
              "type": "address"
            },
            {
              "internalType": "uint256",
              "name": "voteCount",
              "type": "uint256"
            }
          ],
          "indexed": false,
          "internalType": "struct Election.Candidate",
          "name": "candidate",
          "type": "tuple"
        },
        {
          "components": [
            {
              "internalType": "string",
              "name": "name",
              "type": "string"
            },
            {
              "internalType": "uint256",
              "name": "id",
              "type": "uint256"
            },
            {
              "components": [
                {
                  "internalType": "string",
                  "name": "forename",
                  "type": "string"
                },
                {
                  "internalType": "string",
                  "name": "surname",
                  "type": "string"
                },
                {
                  "internalType": "uint256",
                  "name": "areaID",
                  "type": "uint256"
                },
                {
                  "internalType": "uint256",
                  "name": "uid",
                  "type": "uint256"
                },
                {
                  "internalType": "address",
                  "name": "user",
                  "type": "address"
                },
                {
                  "internalType": "uint256",
                  "name": "voteCount",
                  "type": "uint256"
                }
              ],
              "internalType": "struct Election.Candidate",
              "name": "candidate",
              "type": "tuple"
            }
          ],
          "indexed": false,
          "internalType": "struct Election.Area",
          "name": "area",
          "type": "tuple"
        }
      ],
      "name": "WinningCandidate",
      "type": "event"
    },
    {
      "inputs": [
        {
          "internalType": "string",
          "name": "forename",
          "type": "string"
        },
        {
          "internalType": "string",
          "name": "surname",
          "type": "string"
        },
        {
          "internalType": "uint256",
          "name": "area",
          "type": "uint256"
        }
      ],
      "name": "addCandidate",
      "outputs": [],
      "stateMutability": "nonpayable",
      "type": "function"
    },
    {
      "inputs": [],
      "name": "advancePhase",
      "outputs": [],
      "stateMutability": "nonpayable",
      "type": "function"
    },
    {
      "inputs": [
        {
          "internalType": "uint256",
          "name": "",
          "type": "uint256"
        }
      ],
      "name": "areas",
      "outputs": [
        {
          "internalType": "string",
          "name": "name",
          "type": "string"
        },
        {
          "internalType": "uint256",
          "name": "id",
          "type": "uint256"
        },
        {
          "components": [
            {
              "internalType": "string",
              "name": "forename",
              "type": "string"
            },
            {
              "internalType": "string",
              "name": "surname",
              "type": "string"
            },
            {
              "internalType": "uint256",
              "name": "areaID",
              "type": "uint256"
            },
            {
              "internalType": "uint256",
              "name": "uid",
              "type": "uint256"
            },
            {
              "internalType": "address",
              "name": "user",
              "type": "address"
            },
            {
              "internalType": "uint256",
              "name": "voteCount",
              "type": "uint256"
            }
          ],
          "internalType": "struct Election.Candidate",
          "name": "candidate",
          "type": "tuple"
        }
      ],
      "stateMutability": "view",
      "type": "function"
    },
    {
      "inputs": [
        {
          "internalType": "uint256",
          "name": "",
          "type": "uint256"
        }
      ],
      "name": "candidates",
      "outputs": [
        {
          "internalType": "string",
          "name": "forename",
          "type": "string"
        },
        {
          "internalType": "string",
          "name": "surname",
          "type": "string"
        },
        {
          "internalType": "uint256",
          "name": "areaID",
          "type": "uint256"
        },
        {
          "internalType": "uint256",
          "name": "uid",
          "type": "uint256"
        },
        {
          "internalType": "address",
          "name": "user",
          "type": "address"
        },
        {
          "internalType": "uint256",
          "name": "voteCount",
          "type": "uint256"
        }
      ],
      "stateMutability": "view",
      "type": "function"
    },
    {
      "inputs": [],
      "name": "currentPhase",
      "outputs": [
        {
          "internalType": "enum Election.Phase",
          "name": "",
          "type": "uint8"
        }
      ],
      "stateMutability": "view",
      "type": "function"
    },
    {
      "inputs": [],
      "name": "declareAreaWinners",
      "outputs": [],
      "stateMutability": "nonpayable",
      "type": "function"
    },
    {
      "inputs": [],
      "name": "electionManager",
      "outputs": [
        {
          "internalType": "address",
          "name": "",
          "type": "address"
        }
      ],
      "stateMutability": "view",
      "type": "function"
    },
    {
      "inputs": [],
      "name": "getAreas",
      "outputs": [
        {
          "components": [
            {
              "internalType": "string",
              "name": "name",
              "type": "string"
            },
            {
              "internalType": "uint256",
              "name": "id",
              "type": "uint256"
            },
            {
              "components": [
                {
                  "internalType": "string",
                  "name": "forename",
                  "type": "string"
                },
                {
                  "internalType": "string",
                  "name": "surname",
                  "type": "string"
                },
                {
                  "internalType": "uint256",
                  "name": "areaID",
                  "type": "uint256"
                },
                {
                  "internalType": "uint256",
                  "name": "uid",
                  "type": "uint256"
                },
                {
                  "internalType": "address",
                  "name": "user",
                  "type": "address"
                },
                {
                  "internalType": "uint256",
                  "name": "voteCount",
                  "type": "uint256"
                }
              ],
              "internalType": "struct Election.Candidate",
              "name": "candidate",
              "type": "tuple"
            }
          ],
          "internalType": "struct Election.Area[]",
          "name": "",
          "type": "tuple[]"
        }
      ],
      "stateMutability": "view",
      "type": "function"
    },
    {
      "inputs": [
        {
          "internalType": "uint256",
          "name": "id",
          "type": "uint256"
        }
      ],
      "name": "getCandidateByID",
      "outputs": [
        {
          "components": [
            {
              "internalType": "string",
              "name": "forename",
              "type": "string"
            },
            {
              "internalType": "string",
              "name": "surname",
              "type": "string"
            },
            {
              "internalType": "uint256",
              "name": "areaID",
              "type": "uint256"
            },
            {
              "internalType": "uint256",
              "name": "uid",
              "type": "uint256"
            },
            {
              "internalType": "address",
              "name": "user",
              "type": "address"
            },
            {
              "internalType": "uint256",
              "name": "voteCount",
              "type": "uint256"
            }
          ],
          "internalType": "struct Election.Candidate",
          "name": "",
          "type": "tuple"
        }
      ],
      "stateMutability": "view",
      "type": "function"
    },
    {
      "inputs": [],
      "name": "getCurrentPhase",
      "outputs": [
        {
          "internalType": "enum Election.Phase",
          "name": "",
          "type": "uint8"
        }
      ],
      "stateMutability": "view",
      "type": "function"
    },
    {
      "inputs": [],
      "name": "getElectionManager",
      "outputs": [
        {
          "internalType": "address",
          "name": "",
          "type": "address"
        }
      ],
      "stateMutability": "view",
      "type": "function"
    },
    {
      "inputs": [
        {
          "internalType": "address",
          "name": "voterAddress",
          "type": "address"
        }
      ],
      "name": "getVoterByAddress",
      "outputs": [
        {
          "components": [
            {
              "internalType": "string",
              "name": "forename",
              "type": "string"
            },
            {
              "internalType": "string",
              "name": "surname",
              "type": "string"
            },
            {
              "internalType": "uint256",
              "name": "areaID",
              "type": "uint256"
            },
            {
              "internalType": "uint256",
              "name": "uid",
              "type": "uint256"
            },
            {
              "internalType": "bool",
              "name": "voted",
              "type": "bool"
            },
            {
              "internalType": "address",
              "name": "user",
              "type": "address"
            }
          ],
          "internalType": "struct Election.Voter",
          "name": "",
          "type": "tuple"
        }
      ],
      "stateMutability": "view",
      "type": "function"
    },
    {
      "inputs": [
        {
          "internalType": "string",
          "name": "forename",
          "type": "string"
        },
        {
          "internalType": "string",
          "name": "surname",
          "type": "string"
        },
        {
          "internalType": "uint256",
          "name": "area",
          "type": "uint256"
        }
      ],
      "name": "registerVoter",
      "outputs": [],
      "stateMutability": "nonpayable",
      "type": "function"
    },
    {
      "inputs": [
        {
          "internalType": "uint256",
          "name": "candidateID",
          "type": "uint256"
        }
      ],
      "name": "voteForCandidate",
      "outputs": [],
      "stateMutability": "nonpayable",
      "type": "function"
    },
    {
      "inputs": [
        {
          "internalType": "address",
          "name": "",
          "type": "address"
        }
      ],
      "name": "voters",
      "outputs": [
        {
          "internalType": "string",
          "name": "forename",
          "type": "string"
        },
        {
          "internalType": "string",
          "name": "surname",
          "type": "string"
        },
        {
          "internalType": "uint256",
          "name": "areaID",
          "type": "uint256"
        },
        {
          "internalType": "uint256",
          "name": "uid",
          "type": "uint256"
        },
        {
          "internalType": "bool",
          "name": "voted",
          "type": "bool"
        },
        {
          "internalType": "address",
          "name": "user",
          "type": "address"
        }
      ],
      "stateMutability": "view",
      "type": "function"
    }
  ],
  "bytecode": "0x608060405260008055600060015560006002553480156200001f57600080fd5b5060405162003b6838038062003b6883398181016040528101906200004591906200051b565b60005b81518110156200021557600260008154809291906200006790620005a5565b9190505550600060405180606001604052808484815181106200008f576200008e620005f2565b5b6020026020010151815260200160025481526020016040518060c001604052806040518060200160405280600081525081526020016040518060200160405280600081525081526020016000815260200160008152602001600073ffffffffffffffffffffffffffffffffffffffff168152602001600081525081525090506005819080600181540180825580915050600190039060005260206000209060080201600090919091909150600082015181600001908162000151919062000862565b506020820151816001015560408201518160020160008201518160000190816200017c919062000862565b50602082015181600101908162000194919062000862565b50604082015181600201556060820151816003015560808201518160040160006101000a81548173ffffffffffffffffffffffffffffffffffffffff021916908373ffffffffffffffffffffffffffffffffffffffff16021790555060a08201518160050155505050505080806200020c90620005a5565b91505062000048565b506000600660006101000a81548160ff021916908360028111156200023f576200023e62000949565b5b021790555033600660016101000a81548173ffffffffffffffffffffffffffffffffffffffff021916908373ffffffffffffffffffffffffffffffffffffffff1602179055505062000978565b6000604051905090565b600080fd5b600080fd5b600080fd5b6000601f19601f8301169050919050565b7f4e487b7100000000000000000000000000000000000000000000000000000000600052604160045260246000fd5b620002f082620002a5565b810181811067ffffffffffffffff82111715620003125762000311620002b6565b5b80604052505050565b6000620003276200028c565b9050620003358282620002e5565b919050565b600067ffffffffffffffff821115620003585762000357620002b6565b5b602082029050602081019050919050565b600080fd5b600080fd5b600067ffffffffffffffff821115620003915762000390620002b6565b5b6200039c82620002a5565b9050602081019050919050565b60005b83811015620003c9578082015181840152602081019050620003ac565b60008484015250505050565b6000620003ec620003e68462000373565b6200031b565b9050828152602081018484840111156200040b576200040a6200036e565b5b62000418848285620003a9565b509392505050565b600082601f830112620004385762000437620002a0565b5b81516200044a848260208601620003d5565b91505092915050565b60006200046a62000464846200033a565b6200031b565b9050808382526020820190506020840283018581111562000490576200048f62000369565b5b835b81811015620004de57805167ffffffffffffffff811115620004b957620004b8620002a0565b5b808601620004c8898262000420565b8552602085019450505060208101905062000492565b5050509392505050565b600082601f8301126200050057620004ff620002a0565b5b81516200051284826020860162000453565b91505092915050565b60006020828403121562000534576200053362000296565b5b600082015167ffffffffffffffff8111156200055557620005546200029b565b5b6200056384828501620004e8565b91505092915050565b7f4e487b7100000000000000000000000000000000000000000000000000000000600052601160045260246000fd5b6000819050919050565b6000620005b2826200059b565b91507fffffffffffffffffffffffffffffffffffffffffffffffffffffffffffffffff8203620005e757620005e66200056c565b5b600182019050919050565b7f4e487b7100000000000000000000000000000000000000000000000000000000600052603260045260246000fd5b600081519050919050565b7f4e487b7100000000000000000000000000000000000000000000000000000000600052602260045260246000fd5b600060028204905060018216806200067457607f821691505b6020821081036200068a57620006896200062c565b5b50919050565b60008190508160005260206000209050919050565b60006020601f8301049050919050565b600082821b905092915050565b600060088302620006f47fffffffffffffffffffffffffffffffffffffffffffffffffffffffffffffffff82620006b5565b620007008683620006b5565b95508019841693508086168417925050509392505050565b6000819050919050565b6000620007436200073d62000737846200059b565b62000718565b6200059b565b9050919050565b6000819050919050565b6200075f8362000722565b620007776200076e826200074a565b848454620006c2565b825550505050565b600090565b6200078e6200077f565b6200079b81848462000754565b505050565b5b81811015620007c357620007b760008262000784565b600181019050620007a1565b5050565b601f8211156200081257620007dc8162000690565b620007e784620006a5565b81016020851015620007f7578190505b6200080f6200080685620006a5565b830182620007a0565b50505b505050565b600082821c905092915050565b6000620008376000198460080262000817565b1980831691505092915050565b600062000852838362000824565b9150826002028217905092915050565b6200086d8262000621565b67ffffffffffffffff811115620008895762000888620002b6565b5b6200089582546200065b565b620008a2828285620007c7565b600060209050601f831160018114620008da5760008415620008c5578287015190505b620008d1858262000844565b86555062000941565b601f198416620008ea8662000690565b60005b828110156200091457848901518255600182019150602085019450602081019050620008ed565b8683101562000934578489015162000930601f89168262000824565b8355505b6001600288020188555050505b505050505050565b7f4e487b7100000000000000000000000000000000000000000000000000000000600052602160045260246000fd5b6131e080620009886000396000f3fe608060405234801561001057600080fd5b50600436106100f55760003560e01c80638220239611610097578063a3ec138d11610066578063a3ec138d1461027b578063ae17a82a146102b0578063be25a718146102cc578063bf77b8bf146102d6576100f5565b806382202396146101f15780639277bbea146102215780639b2c61251461022b578063a3a40ea51461025d576100f5565b806336c8c5ee116100d357806336c8c5ee1461016b5780633ca09fdf146101875780634bdd7585146101a35780637da32949146101d3576100f5565b8063055ad42e146100fa5780632ea3981a146101185780633477ee2e14610136575b600080fd5b6101026102f4565b60405161010f9190611f07565b60405180910390f35b610120610307565b60405161012d91906121b5565b60405180910390f35b610150600480360381019061014b9190612217565b6105ae565b604051610162969594939291906122ac565b60405180910390f35b61018560048036038101906101809190612217565b61072a565b005b6101a1600480360381019061019c9190612450565b610a82565b005b6101bd60048036038101906101b89190612507565b610ce0565b6040516101ca91906125df565b60405180910390f35b6101db610f2f565b6040516101e89190612601565b60405180910390f35b61020b60048036038101906102069190612217565b610f55565b60405161021891906126ac565b60405180910390f35b6102296111ba565b005b61024560048036038101906102409190612217565b611605565b604051610254939291906126ce565b60405180910390f35b610265611869565b6040516102729190611f07565b60405180910390f35b61029560048036038101906102909190612507565b611880565b6040516102a796959493929190612722565b60405180910390f35b6102ca60048036038101906102c59190612450565b6119f9565b005b6102d4611c11565b005b6102de611dcc565b6040516102eb9190612601565b60405180910390f35b600660009054906101000a900460ff1681565b60606005805480602002602001604051908101604052809291908181526020016000905b828210156105a5578382906000526020600020906008020160405180606001604052908160008201805461035e906127c0565b80601f016020809104026020016040519081016040528092919081815260200182805461038a906127c0565b80156103d75780601f106103ac576101008083540402835291602001916103d7565b820191906000526020600020905b8154815290600101906020018083116103ba57829003601f168201915b5050505050815260200160018201548152602001600282016040518060c001604052908160008201805461040a906127c0565b80601f0160208091040260200160405190810160405280929190818152602001828054610436906127c0565b80156104835780601f1061045857610100808354040283529160200191610483565b820191906000526020600020905b81548152906001019060200180831161046657829003601f168201915b5050505050815260200160018201805461049c906127c0565b80601f01602080910402602001604051908101604052809291908181526020018280546104c8906127c0565b80156105155780601f106104ea57610100808354040283529160200191610515565b820191906000526020600020905b8154815290600101906020018083116104f857829003601f168201915b5050505050815260200160028201548152602001600382015481526020016004820160009054906101000a900473ffffffffffffffffffffffffffffffffffffffff1673ffffffffffffffffffffffffffffffffffffffff1673ffffffffffffffffffffffffffffffffffffffff168152602001600582015481525050815250508152602001906001019061032b565b50505050905090565b600481815481106105be57600080fd5b90600052602060002090600602016000915090508060000180546105e1906127c0565b80601f016020809104026020016040519081016040528092919081815260200182805461060d906127c0565b801561065a5780601f1061062f5761010080835404028352916020019161065a565b820191906000526020600020905b81548152906001019060200180831161063d57829003601f168201915b50505050509080600101805461066f906127c0565b80601f016020809104026020016040519081016040528092919081815260200182805461069b906127c0565b80156106e85780601f106106bd576101008083540402835291602001916106e8565b820191906000526020600020905b8154815290600101906020018083116106cb57829003601f168201915b5050505050908060020154908060030154908060040160009054906101000a900473ffffffffffffffffffffffffffffffffffffffff16908060050154905086565b6001600281111561073e5761073d611e90565b5b600660009054906101000a900460ff1660028111156107605761075f611e90565b5b1461076a57600080fd5b600061077533610ce0565b905060008160600151036107be576040517f08c379a00000000000000000000000000000000000000000000000000000000081526004016107b59061283d565b60405180910390fd5b60006107c983610f55565b90506000816060015103610812576040517f08c379a0000000000000000000000000000000000000000000000000000000008152600401610809906128a9565b60405180910390fd5b806040015182604001511461085c576040517f08c379a00000000000000000000000000000000000000000000000000000000081526004016108539061293b565b60405180910390fd5b8160800151156108a1576040517f08c379a0000000000000000000000000000000000000000000000000000000008152600401610898906129a7565b60405180910390fd5b60018160a0018181516108b491906129f6565b91508181525050806004600183606001516108cf9190612a2a565b815481106108e0576108df612a5e565b5b906000526020600020906006020160008201518160000190816109039190612c39565b5060208201518160010190816109199190612c39565b50604082015181600201556060820151816003015560808201518160040160006101000a81548173ffffffffffffffffffffffffffffffffffffffff021916908373ffffffffffffffffffffffffffffffffffffffff16021790555060a08201518160050155905050600182608001901515908115158152505081600360003373ffffffffffffffffffffffffffffffffffffffff1673ffffffffffffffffffffffffffffffffffffffff16815260200190815260200160002060008201518160000190816109e89190612c39565b5060208201518160010190816109fe9190612c39565b50604082015181600201556060820151816003015560808201518160040160006101000a81548160ff02191690831515021790555060a08201518160040160016101000a81548173ffffffffffffffffffffffffffffffffffffffff021916908373ffffffffffffffffffffffffffffffffffffffff160217905550905050505050565b60006002811115610a9657610a95611e90565b5b600660009054906101000a900460ff166002811115610ab857610ab7611e90565b5b14610ac257600080fd5b60005b600480549050811015610bb85760048181548110610ae657610ae5612a5e565b5b906000526020600020906006020160040160009054906101000a900473ffffffffffffffffffffffffffffffffffffffff16604051602001610b289190612d53565b6040516020818303038152906040528051906020012033604051602001610b4f9190612d53565b6040516020818303038152906040528051906020012003610ba5576040517f08c379a0000000000000000000000000000000000000000000000000000000008152600401610b9c90612dba565b60405180910390fd5b8080610bb090612dda565b915050610ac5565b5060016000815480929190610bcc90612dda565b919050555060006040518060c0016040528085815260200184815260200183815260200160015481526020013373ffffffffffffffffffffffffffffffffffffffff1681526020016000815250905060048190806001815401808255809150506001900390600052602060002090600602016000909190919091506000820151816000019081610c5c9190612c39565b506020820151816001019081610c729190612c39565b50604082015181600201556060820151816003015560808201518160040160006101000a81548173ffffffffffffffffffffffffffffffffffffffff021916908373ffffffffffffffffffffffffffffffffffffffff16021790555060a08201518160050155505050505050565b610ce8611df6565b6000600360008473ffffffffffffffffffffffffffffffffffffffff1673ffffffffffffffffffffffffffffffffffffffff1681526020019081526020016000206040518060c0016040529081600082018054610d44906127c0565b80601f0160208091040260200160405190810160405280929190818152602001828054610d70906127c0565b8015610dbd5780601f10610d9257610100808354040283529160200191610dbd565b820191906000526020600020905b815481529060010190602001808311610da057829003601f168201915b50505050508152602001600182018054610dd6906127c0565b80601f0160208091040260200160405190810160405280929190818152602001828054610e02906127c0565b8015610e4f5780601f10610e2457610100808354040283529160200191610e4f565b820191906000526020600020905b815481529060010190602001808311610e3257829003601f168201915b5050505050815260200160028201548152602001600382015481526020016004820160009054906101000a900460ff161515151581526020016004820160019054906101000a900473ffffffffffffffffffffffffffffffffffffffff1673ffffffffffffffffffffffffffffffffffffffff1673ffffffffffffffffffffffffffffffffffffffff168152505090506000816060015103610f26576040517f08c379a0000000000000000000000000000000000000000000000000000000008152600401610f1d90612e6e565b60405180910390fd5b80915050919050565b600660019054906101000a900473ffffffffffffffffffffffffffffffffffffffff1681565b610f5d611e44565b60005b600480549050811015611179578260048281548110610f8257610f81612a5e565b5b906000526020600020906006020160030154036111665760048181548110610fad57610fac612a5e565b5b90600052602060002090600602016040518060c0016040529081600082018054610fd6906127c0565b80601f0160208091040260200160405190810160405280929190818152602001828054611002906127c0565b801561104f5780601f106110245761010080835404028352916020019161104f565b820191906000526020600020905b81548152906001019060200180831161103257829003601f168201915b50505050508152602001600182018054611068906127c0565b80601f0160208091040260200160405190810160405280929190818152602001828054611094906127c0565b80156110e15780601f106110b6576101008083540402835291602001916110e1565b820191906000526020600020905b8154815290600101906020018083116110c457829003601f168201915b5050505050815260200160028201548152602001600382015481526020016004820160009054906101000a900473ffffffffffffffffffffffffffffffffffffffff1673ffffffffffffffffffffffffffffffffffffffff1673ffffffffffffffffffffffffffffffffffffffff1681526020016005820154815250509150506111b5565b808061117190612dda565b915050610f60565b506040517f08c379a00000000000000000000000000000000000000000000000000000000081526004016111ac90612eda565b60405180910390fd5b919050565b600660019054906101000a900473ffffffffffffffffffffffffffffffffffffffff1673ffffffffffffffffffffffffffffffffffffffff163373ffffffffffffffffffffffffffffffffffffffff161461121457600080fd5b60028081111561122757611226611e90565b5b600660009054906101000a900460ff16600281111561124957611248611e90565b5b1461125357600080fd5b60005b6005805490508110156116025761126b611e44565b60005b6004805490508110156114d9576004818154811061128f5761128e612a5e565b5b906000526020600020906006020160020154600584815481106112b5576112b4612a5e565b5b906000526020600020906008020160010154036114c657600481815481106112e0576112df612a5e565b5b9060005260206000209060060201600501548260a0015110156114c5576004818154811061131157611310612a5e565b5b90600052602060002090600602016040518060c001604052908160008201805461133a906127c0565b80601f0160208091040260200160405190810160405280929190818152602001828054611366906127c0565b80156113b35780601f10611388576101008083540402835291602001916113b3565b820191906000526020600020905b81548152906001019060200180831161139657829003601f168201915b505050505081526020016001820180546113cc906127c0565b80601f01602080910402602001604051908101604052809291908181526020018280546113f8906127c0565b80156114455780601f1061141a57610100808354040283529160200191611445565b820191906000526020600020905b81548152906001019060200180831161142857829003601f168201915b5050505050815260200160028201548152602001600382015481526020016004820160009054906101000a900473ffffffffffffffffffffffffffffffffffffffff1673ffffffffffffffffffffffffffffffffffffffff1673ffffffffffffffffffffffffffffffffffffffff16815260200160058201548152505091505b5b80806114d190612dda565b91505061126e565b5080600583815481106114ef576114ee612a5e565b5b906000526020600020906008020160020160008201518160000190816115159190612c39565b50602082015181600101908161152b9190612c39565b50604082015181600201556060820151816003015560808201518160040160006101000a81548173ffffffffffffffffffffffffffffffffffffffff021916908373ffffffffffffffffffffffffffffffffffffffff16021790555060a082015181600501559050507f28e4cdce854cbc2d5590d27fa474702ac9c289967764a63f240aa28101ff583581600584815481106115ca576115c9612a5e565b5b90600052602060002090600802016040516115e6929190613107565b60405180910390a15080806115fa90612dda565b915050611256565b50565b6005818154811061161557600080fd5b9060005260206000209060080201600091509050806000018054611638906127c0565b80601f0160208091040260200160405190810160405280929190818152602001828054611664906127c0565b80156116b15780601f10611686576101008083540402835291602001916116b1565b820191906000526020600020905b81548152906001019060200180831161169457829003601f168201915b505050505090806001015490806002016040518060c00160405290816000820180546116dc906127c0565b80601f0160208091040260200160405190810160405280929190818152602001828054611708906127c0565b80156117555780601f1061172a57610100808354040283529160200191611755565b820191906000526020600020905b81548152906001019060200180831161173857829003601f168201915b5050505050815260200160018201805461176e906127c0565b80601f016020809104026020016040519081016040528092919081815260200182805461179a906127c0565b80156117e75780601f106117bc576101008083540402835291602001916117e7565b820191906000526020600020905b8154815290600101906020018083116117ca57829003601f168201915b5050505050815260200160028201548152602001600382015481526020016004820160009054906101000a900473ffffffffffffffffffffffffffffffffffffffff1673ffffffffffffffffffffffffffffffffffffffff1673ffffffffffffffffffffffffffffffffffffffff168152602001600582015481525050905083565b6000600660009054906101000a900460ff16905090565b60036020528060005260406000206000915090508060000180546118a3906127c0565b80601f01602080910402602001604051908101604052809291908181526020018280546118cf906127c0565b801561191c5780601f106118f15761010080835404028352916020019161191c565b820191906000526020600020905b8154815290600101906020018083116118ff57829003601f168201915b505050505090806001018054611931906127c0565b80601f016020809104026020016040519081016040528092919081815260200182805461195d906127c0565b80156119aa5780601f1061197f576101008083540402835291602001916119aa565b820191906000526020600020905b81548152906001019060200180831161198d57829003601f168201915b5050505050908060020154908060030154908060040160009054906101000a900460ff16908060040160019054906101000a900473ffffffffffffffffffffffffffffffffffffffff16905086565b60006002811115611a0d57611a0c611e90565b5b600660009054906101000a900460ff166002811115611a2f57611a2e611e90565b5b14611a3957600080fd5b6000600360003373ffffffffffffffffffffffffffffffffffffffff1673ffffffffffffffffffffffffffffffffffffffff1681526020019081526020016000206003015414611abe576040517f08c379a0000000000000000000000000000000000000000000000000000000008152600401611ab59061318a565b60405180910390fd5b600080815480929190611ad090612dda565b919050555060006040518060c0016040528085815260200184815260200183815260200160005481526020016000151581526020013373ffffffffffffffffffffffffffffffffffffffff16815250905080600360003373ffffffffffffffffffffffffffffffffffffffff1673ffffffffffffffffffffffffffffffffffffffff1681526020019081526020016000206000820151816000019081611b769190612c39565b506020820151816001019081611b8c9190612c39565b50604082015181600201556060820151816003015560808201518160040160006101000a81548160ff02191690831515021790555060a08201518160040160016101000a81548173ffffffffffffffffffffffffffffffffffffffff021916908373ffffffffffffffffffffffffffffffffffffffff16021790555090505050505050565b600660019054906101000a900473ffffffffffffffffffffffffffffffffffffffff1673ffffffffffffffffffffffffffffffffffffffff163373ffffffffffffffffffffffffffffffffffffffff1614611c6b57600080fd5b60006002811115611c7f57611c7e611e90565b5b600660009054906101000a900460ff166002811115611ca157611ca0611e90565b5b03611d1c576001600660006101000a81548160ff02191690836002811115611ccc57611ccb611e90565b5b02179055507fd0e47a271d69b0e6e3f9bd81c7c695bfbcb309e6ee66a23e6ad80a8f90190574600660009054906101000a900460ff16604051611d0f9190611f07565b60405180910390a1611dca565b60016002811115611d3057611d2f611e90565b5b600660009054906101000a900460ff166002811115611d5257611d51611e90565b5b03611dc9576002600660006101000a81548160ff02191690836002811115611d7d57611d7c611e90565b5b02179055507fd0e47a271d69b0e6e3f9bd81c7c695bfbcb309e6ee66a23e6ad80a8f90190574600660009054906101000a900460ff16604051611dc09190611f07565b60405180910390a15b5b565b6000600660019054906101000a900473ffffffffffffffffffffffffffffffffffffffff16905090565b6040518060c0016040528060608152602001606081526020016000815260200160008152602001600015158152602001600073ffffffffffffffffffffffffffffffffffffffff1681525090565b6040518060c0016040528060608152602001606081526020016000815260200160008152602001600073ffffffffffffffffffffffffffffffffffffffff168152602001600081525090565b7f4e487b7100000000000000000000000000000000000000000000000000000000600052602160045260246000fd5b60038110611ed057611ecf611e90565b5b50565b6000819050611ee182611ebf565b919050565b6000611ef182611ed3565b9050919050565b611f0181611ee6565b82525050565b6000602082019050611f1c6000830184611ef8565b92915050565b600081519050919050565b600082825260208201905092915050565b6000819050602082019050919050565b600081519050919050565b600082825260208201905092915050565b60005b83811015611f88578082015181840152602081019050611f6d565b60008484015250505050565b6000601f19601f8301169050919050565b6000611fb082611f4e565b611fba8185611f59565b9350611fca818560208601611f6a565b611fd381611f94565b840191505092915050565b6000819050919050565b611ff181611fde565b82525050565b600073ffffffffffffffffffffffffffffffffffffffff82169050919050565b600061202282611ff7565b9050919050565b61203281612017565b82525050565b600060c08301600083015184820360008601526120558282611fa5565b9150506020830151848203602086015261206f8282611fa5565b91505060408301516120846040860182611fe8565b5060608301516120976060860182611fe8565b5060808301516120aa6080860182612029565b5060a08301516120bd60a0860182611fe8565b508091505092915050565b600060608301600083015184820360008601526120e58282611fa5565b91505060208301516120fa6020860182611fe8565b50604083015184820360408601526121128282612038565b9150508091505092915050565b600061212b83836120c8565b905092915050565b6000602082019050919050565b600061214b82611f22565b6121558185611f2d565b93508360208202850161216785611f3e565b8060005b858110156121a35784840389528151612184858261211f565b945061218f83612133565b925060208a0199505060018101905061216b565b50829750879550505050505092915050565b600060208201905081810360008301526121cf8184612140565b905092915050565b6000604051905090565b600080fd5b600080fd5b6121f481611fde565b81146121ff57600080fd5b50565b600081359050612211816121eb565b92915050565b60006020828403121561222d5761222c6121e1565b5b600061223b84828501612202565b91505092915050565b600082825260208201905092915050565b600061226082611f4e565b61226a8185612244565b935061227a818560208601611f6a565b61228381611f94565b840191505092915050565b61229781611fde565b82525050565b6122a681612017565b82525050565b600060c08201905081810360008301526122c68189612255565b905081810360208301526122da8188612255565b90506122e9604083018761228e565b6122f6606083018661228e565b612303608083018561229d565b61231060a083018461228e565b979650505050505050565b600080fd5b600080fd5b7f4e487b7100000000000000000000000000000000000000000000000000000000600052604160045260246000fd5b61235d82611f94565b810181811067ffffffffffffffff8211171561237c5761237b612325565b5b80604052505050565b600061238f6121d7565b905061239b8282612354565b919050565b600067ffffffffffffffff8211156123bb576123ba612325565b5b6123c482611f94565b9050602081019050919050565b82818337600083830152505050565b60006123f36123ee846123a0565b612385565b90508281526020810184848401111561240f5761240e612320565b5b61241a8482856123d1565b509392505050565b600082601f8301126124375761243661231b565b5b81356124478482602086016123e0565b91505092915050565b600080600060608486031215612469576124686121e1565b5b600084013567ffffffffffffffff811115612487576124866121e6565b5b61249386828701612422565b935050602084013567ffffffffffffffff8111156124b4576124b36121e6565b5b6124c086828701612422565b92505060406124d186828701612202565b9150509250925092565b6124e481612017565b81146124ef57600080fd5b50565b600081359050612501816124db565b92915050565b60006020828403121561251d5761251c6121e1565b5b600061252b848285016124f2565b91505092915050565b60008115159050919050565b61254981612534565b82525050565b600060c083016000830151848203600086015261256c8282611fa5565b915050602083015184820360208601526125868282611fa5565b915050604083015161259b6040860182611fe8565b5060608301516125ae6060860182611fe8565b5060808301516125c16080860182612540565b5060a08301516125d460a0860182612029565b508091505092915050565b600060208201905081810360008301526125f9818461254f565b905092915050565b6000602082019050612616600083018461229d565b92915050565b600060c08301600083015184820360008601526126398282611fa5565b915050602083015184820360208601526126538282611fa5565b91505060408301516126686040860182611fe8565b50606083015161267b6060860182611fe8565b50608083015161268e6080860182612029565b5060a08301516126a160a0860182611fe8565b508091505092915050565b600060208201905081810360008301526126c6818461261c565b905092915050565b600060608201905081810360008301526126e88186612255565b90506126f7602083018561228e565b8181036040830152612709818461261c565b9050949350505050565b61271c81612534565b82525050565b600060c082019050818103600083015261273c8189612255565b905081810360208301526127508188612255565b905061275f604083018761228e565b61276c606083018661228e565b6127796080830185612713565b61278660a083018461229d565b979650505050505050565b7f4e487b7100000000000000000000000000000000000000000000000000000000600052602260045260246000fd5b600060028204905060018216806127d857607f821691505b6020821081036127eb576127ea612791565b5b50919050565b7f596f7520617265206e6f7420726567697374657265642e000000000000000000600082015250565b6000612827601783612244565b9150612832826127f1565b602082019050919050565b600060208201905081810360008301526128568161281a565b9050919050565b7f496e76616c69642063616e6469646174652049442e0000000000000000000000600082015250565b6000612893601583612244565b915061289e8261285d565b602082019050919050565b600060208201905081810360008301526128c281612886565b9050919050565b7f596f752063616e6e6f7420766f746520666f7220612063616e6469646174652060008201527f696e207468697320617265612e00000000000000000000000000000000000000602082015250565b6000612925602d83612244565b9150612930826128c9565b604082019050919050565b6000602082019050818103600083015261295481612918565b9050919050565b7f596f752063616e6e6f7420766f74652074776963650000000000000000000000600082015250565b6000612991601583612244565b915061299c8261295b565b602082019050919050565b600060208201905081810360008301526129c081612984565b9050919050565b7f4e487b7100000000000000000000000000000000000000000000000000000000600052601160045260246000fd5b6000612a0182611fde565b9150612a0c83611fde565b9250828201905080821115612a2457612a236129c7565b5b92915050565b6000612a3582611fde565b9150612a4083611fde565b9250828203905081811115612a5857612a576129c7565b5b92915050565b7f4e487b7100000000000000000000000000000000000000000000000000000000600052603260045260246000fd5b60008190508160005260206000209050919050565b60006020601f8301049050919050565b600082821b905092915050565b600060088302612aef7fffffffffffffffffffffffffffffffffffffffffffffffffffffffffffffffff82612ab2565b612af98683612ab2565b95508019841693508086168417925050509392505050565b6000819050919050565b6000612b36612b31612b2c84611fde565b612b11565b611fde565b9050919050565b6000819050919050565b612b5083612b1b565b612b64612b5c82612b3d565b848454612abf565b825550505050565b600090565b612b79612b6c565b612b84818484612b47565b505050565b5b81811015612ba857612b9d600082612b71565b600181019050612b8a565b5050565b601f821115612bed57612bbe81612a8d565b612bc784612aa2565b81016020851015612bd6578190505b612bea612be285612aa2565b830182612b89565b50505b505050565b600082821c905092915050565b6000612c1060001984600802612bf2565b1980831691505092915050565b6000612c298383612bff565b9150826002028217905092915050565b612c4282611f4e565b67ffffffffffffffff811115612c5b57612c5a612325565b5b612c6582546127c0565b612c70828285612bac565b600060209050601f831160018114612ca35760008415612c91578287015190505b612c9b8582612c1d565b865550612d03565b601f198416612cb186612a8d565b60005b82811015612cd957848901518255600182019150602085019450602081019050612cb4565b86831015612cf65784890151612cf2601f891682612bff565b8355505b6001600288020188555050505b505050505050565b60008160601b9050919050565b6000612d2382612d0b565b9050919050565b6000612d3582612d18565b9050919050565b612d4d612d4882612017565b612d2a565b82525050565b6000612d5f8284612d3c565b60148201915081905092915050565b7f43616e64696461746520616c7265616479206578697374730000000000000000600082015250565b6000612da4601883612244565b9150612daf82612d6e565b602082019050919050565b60006020820190508181036000830152612dd381612d97565b9050919050565b6000612de582611fde565b91507fffffffffffffffffffffffffffffffffffffffffffffffffffffffffffffffff8203612e1757612e166129c7565b5b600182019050919050565b7f566f746572204e6f7420466f756e640000000000000000000000000000000000600082015250565b6000612e58600f83612244565b9150612e6382612e22565b602082019050919050565b60006020820190508181036000830152612e8781612e4b565b9050919050565b7f43616e646964617465204e6f7420466f756e6400000000000000000000000000600082015250565b6000612ec4601383612244565b9150612ecf82612e8e565b602082019050919050565b60006020820190508181036000830152612ef381612eb7565b9050919050565b60008154612f07816127c0565b612f118186611f59565b94506001821660008114612f2c5760018114612f4257612f75565b60ff198316865281151560200286019350612f75565b612f4b85612a8d565b60005b83811015612f6d57815481890152600182019150602081019050612f4e565b808801955050505b50505092915050565b60008160001c9050919050565b6000819050919050565b6000612fa8612fa383612f7e565b612f8b565b9050919050565b600073ffffffffffffffffffffffffffffffffffffffff82169050919050565b6000612fe2612fdd83612f7e565b612faf565b9050919050565b600060c08301600080840185830360008701526130068382612efa565b92505060018401858303602087015261301f8382612efa565b9250506002840154905061303281612f95565b61303f6040870182611fe8565b506003840154905061305081612f95565b61305d6060870182611fe8565b506004840154905061306e81612fcf565b61307b6080870182612029565b506005840154905061308c81612f95565b61309960a0870182611fe8565b50819250505092915050565b600060608301600080840185830360008701526130c28382612efa565b925050600184015490506130d581612f95565b6130e26020870182611fe8565b506002840185830360408701526130f98382612fe9565b925050819250505092915050565b60006040820190508181036000830152613121818561261c565b9050818103602083015261313581846130a5565b90509392505050565b7f566f74657220616c726561647920657869737473000000000000000000000000600082015250565b6000613174601483612244565b915061317f8261313e565b602082019050919050565b600060208201905081810360008301526131a381613167565b905091905056fea26469706673582212200d6d208b70a3c6e2c087d52ab580ed3de75b5b2eefceb28375a3f1bdd26ac9cd64736f6c63430008130033",
  "linkReferences": {},
  "deployedLinkReferences": {}
}